:100000000C94E80B0C94120C0C94120C0C94120C23
:100010000C94120C0C94120C0C94120C0C94120CE8
:100020000C94120C0C94120C0C94120C0C94120CD8
:100030000C94120C0C94120C0C94120C0C94120CC8
:100040000C9496400C94120C0C94A13C0C94D73C4C
:100050000C94120C0C94120C0C94120C0C94120CA8
:100060000C94120C0C94120C0C94120C0C94120C98
:100070000C94120C0C948C1C0C94383D0C946E3D1A
:100080000C94120C0C94343A0C94120C660C740CF4
:10009000870C490C870C4E0C820C920C870C870C39
:1000A000870C870C870C870C870C870C920C870CAD
:1000B000870C870C870C870C65106B1072107810FA
:1000C0007E1084108A10901096109C10A210A81018
:1000D000AE10B410BA10C01096419641A7418841A5
:1000E0008B418F419241A741A7419A419E41A24134
:1000F000036EDB363D9A9999993DABAAAA2A3E0038
:100100000000803F084AD73B3BCE016E84BCBFFD58
:10011000C12F3D6C74319ABD56833DDA3D00C77FD7
:1001200011BED9E4BB4C3E916BAAAABE0000008070
:100130003F072C7AA5BA6CC590DA3B9365FC8BBC63
:1001400053F810FD3C5692834DBD879D3AB63DCB8A
:10015000C9BF5BBE73DA0FC93F05A84CCDB2D44E00
:10016000B93836A9020C50B9918688083CA6AAAACB
:100170002ABE000000803F0664EC1B3C04BC163E17
:100180003BE5B93CC93C37C29E5A3D660498083EDF
:10019000EA69AAAA3E000000803F4A5349544246F9
:1001A000584B415708090A0B0C0D0E0C0D0E0F1081
:1001B000051C101112131415161718191A1B1C1DE3
:1001C0001E1F2021222314151617242424244153F2
:1001D00053414C414D55414C41494B554D205741A0
:1001E000524F484D4154554C4C414849205741428B
:1001F00041524F4B415455480A41484C414E2057BB
:1002000041205341484C414E2042494B4855445AA5
:100210005552494B554D0A4D4F484F4E204D454E76
:100220004F4E414B5449464B414E204850204B4580
:1002300054494B412044492044414C414D204D41BB
:10024000534A49440A53454C414D4154204D454E73
:100250004A414C414E4B414E204942414441482085
:1002600053484F4C41540A53484F4C415420424547
:10027000524A414D414148204C4542494820544949
:100280004E47474920323720444552414A41542085
:10029000444942414E44494E472053484F4C4154F3
:1002A0002053454E444952490A4C55525553204417
:1002B000414E2052415041544B414E2053484F46ED
:1002C0002C20534553554E474755484E5941204CD5
:1002D000555255532044414E2052415041544E599D
:1002E000412053484F46204D45525550414B414EB9
:1002F000204B4553454D5055524E41414E20534899
:100300004F4C4154204245524A414D4141480A44D4
:10031000494C4152414E4720424552424943415285
:1003200041204B4554494B41204B484F54494220B2
:10033000534544414E47204245524B484F54424159
:10034000480A57415353414C414D55414C41494B4B
:10035000554D205741524F484D4154554C4C414802
:10036000492057414241524F4B415455480044495E
:100370004C4152414E47204245524249434152412D
:100380002053414154204B485554424148204A553E
:100390004D41540A4850204D4F484F4E204449206B
:1003A0004E4F4E414B5449464B414E0057414B54E2
:1003B000552053484F4C415420495359410057410F
:1003C0004B54552053484F4C4154204D41474852BF
:1003D00049420057414B54552053484F4C415420FB
:1003E00041534841520057414B54552053484F4CBC
:1003F000415420445A554855520057414B545520BA
:1004000053484F4C41542053554255480034660AD6
:100410001020600102060D090E0D020505070C04EF
:10042000060207090809090A090909090902040A53
:100430000B0A080D0C0A0B0C09090C0A06070B091C
:100440000C0A0D0A0E0B0A0C0B0B110B0C090507FD
:10045000050A0B03090908090A050908020409022B
:100460000E080A090906080708090E090808080203
:10047000080D0C0000FFFFCFCF1F1F00001F1F0043
:100480000000000000001010D13C131010D03C13ED
:10049000101002621E030202621E030202020038F2
:1004A0004CC6C6FFC686860C18303030FF30391F68
:1004B0000F7C828282827C8060904C42404080002F
:1004C0000000100C0201000F101010100F001CBED5
:1004D000E3C3E33F1E00C0C000001E3F71606061C7
:1004E000633E1C3F7360401F1F0000F0FC060301C9
:1004F0000F3F60C08001030EFCF080C0703F0F22F0
:1005000014087F0814220000000000000000000012
:100510000000F8F8000000000003030303037F7FDE
:1005200003030303030000000080D87838000000B4
:1005300000000003030303030300007070000000C9
:10054000E0FC1F03C0F83F07000000F8FE070303AC
:100550000307FEF80F3F70606060703F0F0C0C0CDB
:10056000FFFF0000006060607F7F60606006030343
:100570000303C7FE3C0070786C66636160606006D0
:100580000303C3C3C3E7BE1C306060606060313FDB
:100590001F80C070380C06FFFF0000030303030335
:1005A000037F7F030300FFFFC3C3C3C38303306024
:1005B00060606060313F0FE0FC4E666363E3C380C0
:1005C0000F3F38606060703F0F0303030303C3F302
:1005D0003F0F0040703C0F030000003CFEE7C3C328
:1005E000C3C73E1C1E3F70606060713F1EF8FE86F0
:1005F00003030306FEF8006163636333391F0138A8
:10060000383838001C1C00C0F81C04C0C0606030C2
:10061000303018180C010103030606060C0C18C034
:10062000C0C0C0C0C0C0C0C0C0C00C0C0C0C0C0C02
:100630000C0C0C0C0C0C18183030306060C0C0185A
:100640000C0C060606030301010603038383C77E21
:100650003C0000676700000000E01804C42212128A
:100660001212F40418E00718202344484848440FA5
:10067000080807000080F07E0F0F7EF08000006009
:100680007C3F0706060606073F7C60FFFFC3C3C327
:10069000C3E7BE9E007F7F6060606060313F1FF0F7
:1006A000FC1E060303030303060E071F3C306060B5
:1006B0006060603038FFFF0303030306061CF8F098
:1006C000007F7F6060606030301C0F0300FFFFC35D
:1006D000C3C3C3C3C3C37F7F60606060606060FFEB
:1006E000FFC3C3C3C3C3C3037F7F00000000000078
:1006F00000F0F81E06070303838387868E071F3CDE
:10070000307060606161613F3FFFFFC0C0C0C0C02A
:10071000C0FFFF7F7F0000000000007F7F0303FF1A
:10072000FF030360607F7F60600000030303FFFF3F
:1007300060606060703F1FFFFFC0E0F0381C0E0774
:1007400003017F7F000103070E38706040FFFF0048
:100750000000000000007F7F60606060606060FFFC
:10076000FF073CF08080F03C07FFFF7F7F00000127
:1007700007070100007F7FFFFF071CF0C00000FF9C
:10078000FF7F7F000000030F787F7FF0FC1E0603D1
:1007900003030303061EFCF0071F3C30606060602B
:1007A00060303C1F07FFFF030303030386FE7C7FCB
:1007B0007F0303030303010100F0FC1E0603030390
:1007C0000303061EFCF000071F3C30606060666C8F
:1007D000383C7FC780FFFF83838383C7FE3C0000D4
:1007E0007F7F010103070E3C7060403C7EE7C3C37E
:1007F000838383060038306060606161313F1E038F
:1008000003030303FFFF03030303030000000000CF
:100810007F7F0000000000FFFF00000000000000DC
:10082000FFFF1F3F306060606060303F0F031FFEBE
:10083000E0000000E0FE1F030000000F7F707F0F4C
:10084000000000033FFCC00000E07F077FE00000E5
:10085000C0FC3F030000037F787E0F0000000F7E86
:10086000787F03000001070E3CF0C0F03C0E07014A
:100870004070381E0701071E38704001070F3CF01A
:10088000C0E0F03C0F070100000000007F7F000087
:1008900000000003030383C3633B1F07707C6E6388
:1008A0006160606060FF03030303FFC0C0C0C0035A
:1008B0001FFCE0000000000000073FF8C003030336
:1008C00003FFC0C0C0C0FF60301C0E03030E1C300D
:1008D00060000000000000000000000000000000B8
:1008E000000000000000C0C0C0C0C0C0C0C0C0C088
:1008F000C003060400000000303030303030E0C06B
:100900001C3E66636363337F7FFFFFC0606060E00F
:10091000C0807F7F20606060703F1F80E06030306B
:100920003030600F3F30606060603080E0603030B9
:100930003030FFFF1F3F70606060307F7F80C0609D
:100940003030303030E0C00F3F3373636363636334
:100950003360FCFE6763007F7F0000C0E0703030D2
:100960003060F0F003C7CECCCCCCE67F3FFFFFC0B9
:10097000606060C0807F7F000000007F7FFBFB7FA6
:100980007F0018FBFBC0C07F3FFFFF0080C06030CE
:1009900010007F7F03070E38706040FFFF7F7FF0FD
:1009A000F060303030F0C060303030F0E07F7F00F9
:1009B0000000007F7F000000007F7FF0F06030309B
:1009C00030F0C07F7F000000007F7F80E06030302B
:1009D000303060E0800F3F3060606060303F0FF08B
:1009E000F06030303070E0C0FFFF0C0C0C0C0E07D4
:1009F00003C0E07030303060F0F003070E0C0C0CD8
:100A00000CFFFFF0F0602030307F7F00000000C05E
:100A1000E03030303030603163636766663E1C30F2
:100A2000FEFE30303030003F7F60606060F0F000EC
:100A3000000000F0F01F3F606060307F7F10F0E04A
:100A4000000000E0F0100000073F783F0700003092
:100A5000F0C0000080F0F0C00000C0F03000033FA4
:100A6000787C070000077C703F03001030E0C00076
:100A7000C0E030104060381F071F38604030F0C0C1
:100A80000000C0F03000C0F33F0F030000303030F2
:100A90003030F0F03060787C66636160608080C0E8
:100AA0007E3F0303010000017FFEC0C080FFFFFF07
:100AB000FF0103033F7EC0808080C0C0FE7F010035
:100AC000000080C0C0C0C08000000000C0C0070798
:100AD0000100000103070606070301FE02020202ED
:100AE000020202020202FE1F10101010101010105D
:100AF00010101F0007090808070909070708070859
:100B00000707070707070808070807080707070870
:100B1000080807070707070807070709090807075D
:100B2000090707070707080707070908070707074F
:100B3000070707070707070807090808070807083E
:100B4000090708070807070707070707070709072F
:100B5000080707070807080707080707070807081F
:100B60000707070708080707080707070707070811
:100B70000707070707070807070807070707070802
:100B800007070707080808070807090808080809E9
:100B900008080707080709070707070707070707E0
:100BA00009080707080707070707070707080807CF
:100BB00007080807070707080707070707070707C2
:100BC00007080808070707080707070707070707B1
:100BD00007070807080708070708070708070707A0
:100BE000070707080708070907070707070807088F
:100BF0000707070708080707070907070707070880
:100C0000070707070807070808080708080707076E
:100C1000070708080708070707070707070908085D
:100C2000070907070707080809080807070707074C
:100C300000000000CDCCDC4266260043E73BE742E3
:100C40000080E642B488CC42CDCCF9420080054316
:100C50007FAAC942E73BE4421BEFF1424E22C64263
:100C60007FAAE94233B3BE424C77D2424E22D742EA
:100C7000B488E1427F2ACA42CD4CCC4233B3E6422B
:100C80007FAAE542B408D9427F2AE5426666DB4284
:100C9000B2DDEF42B25DD442B25DDC427FAAE542F2
:100CA0004E22E7427FAAE5423333EF429A19D042FF
:100CB0000080DB42E510E1421944D0423333C9429F
:100CC0001944F5424CF7D5427F2ACC424EA2CC4281
:100CD0000000F1429A1908434EA2ED420000C542BD
:100CE000CD4CC142CD4CFA428155E04281D5DE4225
:100CF0009A99D54219C4DF424EA2E3420000EB426A
:100D00007F2ADD429A19DA42B2DDC84200C00243AE
:100D10000080F0424EA2E5427F2ADF4233B3D84240
:100D20001944D642B25DD5420000DA429A19D44243
:100D30009A19D7427F2AD742B408CD428155DD4265
:100D40001B6FE6424EA2D5427F2AFB421BEFEC42CC
:100D5000B25DEF42E7BBCA42CD4CF3428155CD4272
:100D6000B488EF429A59044319C4D7427FAAE64295
:100D7000B408DB424E22F6421944E142E73BC3424B
:100D80004EA2D8424C77D5424EA2D5424EA2D54271
:100D900019C4D542E7BBD5424E22CF4233730C4330
:100DA000B25DE3420080EF428155DD424C77E04284
:100DB0000000C542B408F9420080D3428155E542A3
:100DC000B2DDDD42E590D642CDCCE2427FAAD142EF
:100DD0008155DB42B408E0421BEFF8426666DC4214
:100DE0004E22F5423333E042CDCCDB42E73BC742F3
:100DF0003333DD427F2AF3426666E84233B3D142A1
:100E00001944BF42E590F84233B3E44219C4E342C7
:100E10009A19E1421BEFCE427FAADD424CF7D8423D
:100E20004E22F7429A99C342CDCCDB427FAAD342ED
:100E3000B408CF4281D5E0421BEFC34281D5F542D1
:100E40006666E142CD4CC2421BEFF5424E22C842DB
:100E500081D5CD42E7BBC542B25DC8421B6FE242BD
:100E60009A99F542B408DF421B6FDC427FAADE424A
:100E70001B6FD8421BEFED427FAAEF421BEFEE4201
:100E80000080E14281D5ED4281D5CD422711064354
:100E90000080E5427F2AEF427FAAE5427FAAF04226
:100EA000D9EE00431944E8426666F442CD4CC5428F
:100EB00066E6D942E7BBF942B25DD242F45D0C432B
:100EC000B488D242E73BC04281D5E0420080CE42A6
:100ED000E7BBCD42E590CF4219C4E5421BEFC942C2
:100EE0009A99DC42CD8C0743E73BE54281D5DF424E
:100EF000B2DDDE428155EB42E73BDE427FAAC842CB
:100F0000B488C64266E6C842B488CE423333C9428A
:100F1000B2DDE3420080D1424C77F042E7BBEF42C2
:100F20004CF7E2427F2AD4424E22EF429A99EF4296
:100F3000E73BDF423333D4429A19C7426666E04248
:100F40008155EF421944C842CDCCE142E510DE4262
:100F50001944C9428155DB424C77CA42E7BBDA42A9
:100F60009A19C6421BEFCD42B25DEF420080E542C6
:100F7000E73BEF4281D5D54266E6DE424EA2DA4239
:100F800081D5F1421B6FD042E590E8421B6FE242EF
:100F9000E7BBDA427F2AE5424CF7D64281D5DD42F3
:100FA0004C77DA42B408DC42B2DDE1420000F6429E
:100FB0000080D442CD4CE6427FAAC742CDCCEF425E
:100FC00033B3DE420080CD420000F1427FAABE4230
:100FD0000000DD42CD4CEA429A99DA421B6FE242B0
:100FE0000000E2420080DC42E7BBC94233B3CF429B
:100FF000E510E9424CF7DC42E510F0428155D4425D
:101000005A040243E590C5424EA2C4421B6FE1421E
:101010000000C0423333D8423333E642B2DDD94216
:101020000080F0420000DF420000E4421944DA424E
:1010300033B3DC423333FF42E590F8429A99DD4204
:10104000CD4CC942B408D7428D370343B408DE42C1
:1010500019C4C442E590D7427FAAD5427FAADD4297
:1010600066E6EA4281D5D74233B3E3421944D4421B
:1010700019C4CA421BEFEE420080E1427FAADD4262
:101080001944E6424CF7FA42B2DDEE427FAAC14271
:101090008155E6426666E8421944D542E590C7426A
:1010A0009A99CF42E73BD74266E6D0424CF7EA42F4
:1010B000E7BBEA428155C2421944EB42CDCCC5425E
:1010C0004C77D8421944C642CD4CDA426666DC42BF
:1010D000CD4CCE421BEFE942CDCCFE427FAAF1427D
:1010E000CDCCF9421B6FDF42A6BB04434E22E04247
:1010F000CDCCDF426666D742CDCCDC4281D5EE4214
:10110000B488F042D9AE0A4381D5F04219C4EF4207
:101110008155DC4281D5DD423333DD42CDCCDB422B
:10112000CDCCDC4200000000448BE8C0CDCC6CC0CC
:10113000333307C19A9919C046B65BC09A9911C159
:10114000000020C0CDCC0C40CDCC4CC02B870CC1B6
:10115000DF4F15405839A4BFDD24AA4023DBADC0C2
:101160006666DEC0560EE1C09A99993EDF4F05C013
:10117000333307C121B05AC077BEEBC0BA4954C05F
:10118000CDCCECC0560EB1C09A99C1C09A99F1C0AD
:10119000D57803C1AC1C22C0000080C0CDCC8CC06F
:1011A0002506913F1058DDC077BEFBC0894184C041
:1011B0002DB2DDBE1058ADC0BC74C7C06666C63F58
:1011C000BA4974C01058C5C0426095BF3BDF05C125
:1011D000DF4F5540BC74A7408B6CB73F9A9901C153
:1011E000AAF1DEC03333D3C0CDCCE4C01058FDC06B
:1011F0004C37893D560EF1C077BEDBC060E590BE2E
:10120000EE7C47C0448BB0C0F2D2DDBFCDCCE4C091
:10121000F0A7EAC0DD24DAC0CDCCCCC0BC74F7C0E6
:10122000448BC0C077BEDBC0BC74D7C054E35DC084
:101230008941DCC066660AC1CDCCCCC06F1209C141
:101240002B8708C1508D37BF0E2DE23F9A990DC1F3
:10125000F0A7AAC0BA4964C0666636C0BC74E7C0CD
:101260002B8708C13333F3C0B072083FAAF1E6C040
:101270000E2DA23FF0A7CAC0CDCCC4C01058C5C027
:10128000448BC8C0DD24CAC077BEC3C0DBF9CEBF63
:10129000B07208BF08AC02C123DBB5C03333D3C082
:1012A0009A99F1C066664640D57803C1F0A7BAC0E6
:1012B0009A9981C03333F3C09A99C9C0A8C6FBBFBD
:1012C0009A9959C01058F5C0DD24FAC091ED16C1A5
:1012D0001058DDC0CDCC7CC0F0A7F2C00000E0BF4C
:1012E00079E93E406666F6C0560E81C0871651C049
:1012F00033339BC09A99A940508D373F666646C0EC
:10130000DBF98EBF21B05AC0E92651BF9A99D9C0E6
:10131000AAF1DEC0666622C100006040AAF1F6C0F4
:101320008941CCC0BA4974C077BEE3C023DB8D408D
:101330009A9905C1F0A7FAC023DBA5404A0C223FC9
:10134000FA7EAABE000050C0333363409A99193E1A
:10135000C52002C1333373BF8941F4C0AAF1EEC086
:10136000CDCCF4C0F0A7DAC0AC1C62C0EE7C47C0A4
:10137000CDCCA4C0BC74FFC046B62BC010588DC0E5
:10138000B6F35DBF000040C00000A0C021B05AC04D
:10139000AC1C22C0871651C0F85309C13BDF09C1FC
:1013A000DF4F65406DE7BB3EF2D2BD3FBA4904C096
:1013B00091ED06C177BEA3C089418440AAF1EEC079
:1013C000A8C6DBBFA8C6BBBF21B06AC017D96EBF15
:1013D000333333BFF0A7F2C0333353C03BDF05C113
:1013E0003333F3C01058EDC033338340333303C17C
:1013F00083C02ABF2506B13F17D96EBF448B80C07A
:10140000BE9FAABF000010C079E93EC0EE7C47C075
:10141000666666BFCDCCE4C01058CDC0448B98C082
:1014200046B67BC046B62BC0128308C09A99593F76
:10143000AAF1F6C079E97EC04A0C22BF8941F4C006
:101440000000D8C0CDCC4CBECDCCDCC09A99193FA1
:10145000CDCCDCC046B63B40AC1C72C0871671C018
:10146000333373C0000088C0F0A7CAC077BEFBC08A
:1014700000000000BE9FAABF46B65BC066660AC1F8
:10148000448BF8C08941ECC07D3F15BFF0A7D2C0A6
:1014900077BEE3C01058EDC0AAF1F6C07D3F553FBE
:1014A00010589DC03333CBC021B03AC0000010406B
:1014B00054E33DC06666D6C0000000BFF85309C1C2
:1014C0008941BC40DD24EAC06666E6BECDCCAC3FB7
:1014D00023DBE5C0BA4924C00000803E83C02ABF98
:1014E000666636C066660AC1AAF1DEC0894184C05C
:1014F0008941C4C09A99C9C00000E03F0000304053
:101500006666EEC01058AD403333EBC09A9901C106
:101510004A0C623F77BEA3C04C37893D6666F6C071
:10152000BC74DFC0AAF1F6C09A99D93F3BDF1DC158
:101530006666F6C0CDCC4CBF560EE1C0CDCC4CBFDC
:1015400023DBEDC087167140F0A7D2C023DBDDC0DE
:101550001058F5C02B8708C177BEDBC00000E0C083
:10156000CDCCECBFDF4F05C023DBA5C0BC74E7C00A
:10157000560EF1C02B8708C1EE7C67401058ADC0F5
:1015800089419440EE7C07C04260F5BF23DBC5C0B3
:1015900079E93E40000070C0000030C083C06A3F5F
:1015A0009A990940666636400000504033335340F4
:1015B00000000040F0A7EAC0DF4F554077BEDBC017
:1015C000DD24EAC0D34DA2BECDCCCCBE6666E63FDC
:1015D0006666863FBE9FCA3FCDCC00C18941B4C07C
:1015E000CDCCDCC06F1201C11058DDC08941E4C010
:1015F000C5201AC166661AC19A9979C0BC748FC099
:1016000033338BC03333FB40DD24FAC0AAF1FEC074
:1016100077BEEBC09A99F9C0FF190385ED85FFFFEE
:10162000FF1903B3411941FFFFFF974131A1FFFFAC
:10163000FF1541878DED19FFFFE1A1878D4133FF34
:10164000FF19413133A1FFFFFFFF41354161FFFF2A
:10165000FF41B34197878DFFFFFFFF8185FFFFFFAC
:10166000FFFFFF811717FFFFFFED878D192941FF4E
:10167000FFFF19A131A135FFFFFF61A135A197FF40
:10168000FFFF4119354197FF878D41093597ED31AE
:10169000FFFFED192941FFFFFF193341853129FF74
:1016A000ED0D81878D4135FFFFFF15813341FFFF30
:1016B000FFE14161B1E141B333419733EDB3FFED58
:1016C00033419733EDB3FF4333419733EDB3FF49D4
:1016D00033419733EDB3FF2D33419733EDB3FF190A
:1016E00033419733EDB3FF111535A133314135FF48
:1016F000FFFFFFFFFFFFFFFF0000000A0B0C0000D1
:1017000000000000010405060000000000000000C9
:1017100000000000000000000000000000000000C9
:1017200000000000000000000000000000010204B2
:101730000810204080010204081020408008100199
:101740000204081020408001020102040810204019
:1017500080048040201008040201010204081020C7
:101760004080050505050505050502020202020285
:101770000202070704040404040404040707030323
:101780000303030303030701010101010101010632
:10179000060606060606060000390036003300304D
:1017A0000021002000630000003B003800350032BB
:1017B0000023006200650000003A00370034003169
:1017C000002200610064000098244B390B3DA23DCB
:1017D00011241FBECFEFD0E1DEBFCDBF12E0A0E0ED
:1017E000B1E0EEE6F2E900E00BBF02C007900D9217
:1017F000AA30B107D9F727E0AAE0B2E001C01D92F4
:10180000A139B207E1F71BE0C8EEDBE004C0219785
:10181000FE010E94F146C43ED107C9F70E948740ED
:101820000C9435490C940000FB013196695F7F4FA1
:1018300080E090E02191820F911DE617F707D1F724
:101840009195819591090895DC011D96EC911D9764
:10185000E13409F475C09196EC9391971F968C91A1
:101860001F9790E0982F882750962C915097820FC1
:10187000911D93969C938E9392974E2F50E0FA0170
:10188000FA97E631F10508F04DC0EA5BFF4F0C9482
:10189000F1465E961C925E9785E03DC080FF05C0D4
:1018A0005E961C925E9789E036C081FF05C05E9609
:1018B0001C925E9784E02FC083709927892B09F4CE
:1018C00041C05E961C925E978AE025C080FF05C0ED
:1018D0005E961C925E9787E01EC081FF33C05E96C5
:1018E0001C925E9782E017C080FF05C05E961C9236
:1018F0005E9788E010C081FF25C05E961C925E97BF
:1019000083E009C05E961C925E9786E004C05E96F6
:101910001C925E978BE090968C93909781E09496C2
:101920008C9308955E961C925E9781E090968C93BE
:10193000909793961C921E92929794968C9394975C
:1019400095961C920895CF93DF93EC01BC01665FDE
:101950007F4F0E94140C298930E0322F22274A89B8
:10196000240F311D41E02817390709F040E0842F8A
:10197000DF91CF9108950F931F93CF93DF93EC01E5
:1019800088819981DC01ED91FC910480F581E02D45
:101990000995892B09F43FC060E070E0CB010E94FB
:1019A00012411E8D88819981DC01ED91FC910680A8
:1019B000F781E02D111106C009958A878E3701F74E
:1019C0008E8D26C00995FE01E10FF11D82878E8D57
:1019D000823069F0893079F08130D1F49B859F3F66
:1019E000B9F01E8E81E088A31BA21AA231C09C858B
:1019F000963071F0F6CF8B898F3E99F7CE010E9419
:101A0000A30C882371F31E8ECE010E94240C24C0E7
:101A10008F5F8E8FB5CF8DA18823F1F00E94E040BB
:101A20000A811B812C813D81DC01CB01801B910B44
:101A3000A20BB30B0E811F81288539858017910772
:101A4000A207B30748F01E8E18A21BA21AA281E0BB
:101A50008CA31DA280E001C08CA1DF91CF911F91CA
:101A60000F910895CF93DF93EC01888D882361F067
:101A70008DA1882349F060E070E0CB010E94124103
:101A8000CE010E94BB0CF4CF88819981DC01ED91DD
:101A9000FC910280F381E02D4AE050E0BE016C5ED3
:101AA0007F4F09950E94E0406A837B838C839D83EE
:101AB000888D91E0811101C090E09DA3811108C043
:101AC0006AE070E080E090E0DF91CF910C941241E9
:101AD000DF91CF910895CF93DF93EC016F8B598FF6
:101AE0004A8FBC016C5E7F4F0E94140C9B8F8C8FC1
:101AF000CE01DF91CF910C94320D40E050E00C9478
:101B00006B0D8F929F92AF92BF92CF92DF92EF9226
:101B1000FF921F93CF93DF93EC016A017B010E9438
:101B2000E0404B015C01C114D104E104F10421F453
:101B3000CE80DF80E884F984CE010E94BB0C182F90
:101B4000811113C00E94E040DC01CB018819990982
:101B5000AA09BB09C816D906EA06FB0630F060E000
:101B600070E0CB010E941241E7CF812FDF91CF912E
:101B70001F91FF90EF90DF90CF90BF90AF909F901C
:101B80008F900895AB0163E00C946B0D462F50E0ED
:101B900066E00C946B0D6CE00C947D0D1F93CF935D
:101BA000DF93EC01142F79836883442319F081E0DB
:101BB000888F01C0188E222389F0CE010E94CB0DA0
:101BC00040ED57E060E070E0CE010E94810D68ECCE
:101BD00070E080E090E00E94124102C084E088A39F
:101BE0001CA288A1843029F0893019F081E0812776
:101BF00001C081E0DF91CF911F91089566E10C94BF
:101C00007D0D68E10C947D0DFC01E05FFD4F40818E
:101C100020E4429FA00111246FEF70E0FC0180815D
:101C200091810C9409490F931F93CF93DF93EC019B
:101C3000FC01E95EFD4F81E08083660F3997608388
:101C400031964083649F802D11243196808390E0EB
:101C500031969C0144E0220F331F4A95E1F731830E
:101C6000208332969C0155E0220F331F5A95E1F7ED
:101C70003183208332969C01220F331F220F331FA2
:101C8000A901440F551F240F351F220F331F220FA8
:101C9000331F31832083B6E0880F991FBA95E1F78F
:101CA0000E94FA469983888361E08CE10E94A841F2
:101CB00061E08DE10E94A84161E08EE10E94A841AF
:101CC00061E08FE10E94A84161E088E00E94A841A4
:101CD00061E082E20E94A84161E08AE20E94A8419C
:101CE00061E08FE00E94A841CE010E94040E8E01A7
:101CF000085E1D4FF8011082CE010E94040EF8010B
:101D00001082DF91CF911F910F910895895E9D4FB1
:101D1000FC01608308950F93FC01DC01A25FBD4FBD
:101D20003C91A0E23A9FC00111246817790708F09E
:101D300087C0DF01A15FBD4F8C91A0E18A9FC001E8
:101D400011244817590708F07BC0CB018F719927E0
:101D5000DA01B295A295AF70AB27BF70AB27B5E0A3
:101D600076956795BA95E1F73A9F600D112430E2B8
:101D7000639F800D911D1124DF01A05FBD4F6C9109
:101D8000A4E06A9FB00111244F705527649FD001D1
:101D9000659FB00D749FB00D1124AC0133E05695D2
:101DA00047953A95E1F74A0F5B1F87709927DC0149
:101DB000A75CBE4F9C912230E1F028F4222341F031
:101DC000213071F03DC0233019F1243061F138C069
:101DD0000190F081E02DE40FF51F013041F41FC0A8
:101DE0000190F081E02DE40FF51F0023C1F0808108
:101DF00025C0013029F50190F081E02DE40FF51F99
:101E00008081292F2823D1F090958923808318C0C1
:101E10000130B1F40190F081E02DE40FF51F9095B1
:101E2000808198230CC0013059F40190F081E02D9D
:101E3000E40FF51F8081292F282311F4982B90831C
:101E40000F91089561110C94040EFC01E05FFD4FA9
:101E5000408120E4429FA001112460E070E0FC0179
:101E6000808191810C9409492F923F924F925F9209
:101E70006F927F928F929F92AF92BF92CF92DF929A
:101E8000EF92FF920F931F93CF93DF9300D000D078
:101E900000D0CDB7DEB74C016B015A012901180102
:101EA0001E2D7101E41AF50AC901861B970B9E834A
:101EB0008D83F7FE06C0F194E194F1088FEF9FEF58
:101EC00002C081E090E09C838B838D819E8197FF8F
:101ED00008C09195819591099E838D838FEF9FEF27
:101EE00002C081E090E09A838983EE0CFF1C8D8113
:101EF0009E81880F991F9E838D8301E0212FA5016C
:101F0000B601C4010E948B0E8D819E81E816F906F0
:101F100004F5959587953701681A790AC414D50494
:101F2000D1F177FC08C08B819C81A80EB91E8D81F0
:101F30009E81681A790A89819A81C80ED91E6E0C11
:101F40007F1C01E0212FA501B601C4010E948B0E68
:101F5000E5CFC701959587956D807E80681A790ACF
:101F6000A214B304C1F077FC06C089819A81C80E1F
:101F7000D91E6E187F088B819C81A80EB91E8D8199
:101F80009E81680E791E01E0212FA501B601C401D2
:101F90000E948B0EE5CF26960FB6F894DEBF0FBEDB
:101FA000CDBFDF91CF911F910F91FF90EF90DF9008
:101FB000CF90BF90AF909F908F907F906F905F90E9
:101FC0004F903F902F9008956F927F928F929F92A3
:101FD000AF92BF92CF92DF92EF92FF920F931F9337
:101FE000CF93DF936C01EB015A0139014801FE2CBC
:101FF0006C167D0654F0EF2C84019E01A501BE01F4
:10200000C6010E94340F2196F3CFDF91CF911F912B
:102010000F91FF90EF90DF90CF90BF90AF909F9087
:102020008F907F906F90089588E067FF02C0DA98E4
:1020300001C0DA9A660F611DC09AC0988150A9F755
:102040000895AF92BF92CF92DF92EF92FF920F93DB
:102050001F93CF93DF93FC01E95EFD4F2081222384
:1020600009F494C08C013797A08084E0A89E5001A9
:102070001124E801C85EDD4F88818A9D60018B9D37
:10208000D00C1124E12CF12CEA14FB0479F0D801D6
:10209000ED91FC91EE0DFF1DEC0DFD1D6081C80161
:1020A0000E941410BFEFEB1AFB0AEECFC79AAE9A4C
:1020B000AE98E8818E2F90E08031910508F065C0E0
:1020C000FC01E45AFF4F0C94F146AB98AA98A998EA
:1020D000A89881E005C0AB98AA98A998A89A82E030
:1020E000888353C0AB98AA98A99AA89883E0F8CFA0
:1020F000AB98AA98A99AA89A84E0F2CFAB98AA9A2A
:10210000A998A89885E0ECCFAB98AA9AA998A89A24
:1021100086E0E6CFAB98AA9AA99AA89887E0E0CF84
:10212000AB98AA9AA99AA89A88E0DACFAB9AAA980B
:10213000A998A89889E0D4CFAB9AAA98A998A89A08
:102140008AE0CECFAB9AAA98A99AA8988BE0C8CF7C
:10215000AB9AAA98A99AA89A8CE0C2CFAB9AAA9AED
:10216000A998A8988DE0BCCFAB9AAA9AA998A89AEA
:102170008EE0B6CFAB9AAA9AA99AA8988FE0B0CF72
:10218000AB9AAA9AA99AA89A1882C798DF91CF9178
:102190001F910F91FF90EF90DF90CF90BF90AF9085
:1021A0000895845F9D4FFC017183608308956032C0
:1021B00009F46EE6FC01E45FFD4F80819181FC0132
:1021C00034964491319624916417A0F0E62FF0E004
:1021D00030E0240F311DE217F30764F4641BFC01A7
:1021E000249121110AC03196E491E11106C0FC014D
:1021F000329608C080E090E00895E62FF0E0369631
:10220000E80FF91FE4918E2F90E008952F923F92EE
:102210004F925F926F927F928F929F92AF92BF92F6
:10222000CF92DF92EF92FF920F931F93CF93DF93A2
:10223000CDB7DEB764970FB6F894DEBF0FBECDBF43
:10224000FC01E25FFD4FE08130E2E39FF0011124E9
:10225000E617F7070CF409C1FC01E15FFD4FE081CF
:10226000A0E1EA9FF0011124E417F5070CF402C184
:102270000C874A015B016C01FC01E45FFD4FFF83A9
:10228000EE8380819181FC01339634913983203231
:10229000B1F460E2C6010E94D7103C01840149817B
:1022A000040F111D9501280F391FEE24E394A4019A
:1022B000B501C6010E94E40F7C8A6B8AF6C0FC015E
:1022C000349634913196E491231708F4D8C0422F04
:1022D00050E06E2F70E0DB01A30FB11D4A175B07C2
:1022E0000CF0CDC0A9812A2E312CA101495F5F4F8E
:1022F000E3E055954795EA95E1F7231BFC013491FE
:10230000311105C03196E491EE2309F4BBC0FC0104
:10231000369610E0A0E0B0E0121731F03491A30F30
:10232000B11D1F5F3196F8CF4A9F90014B9F300D32
:102330005A9F300D11246A5F7F4FDB01A20FB31F3C
:10234000BC83AB83E12FF0E03696E80FF91F1491C0
:10235000E12FF0E0FC8BEB8BCF01919581959109FA
:10236000A816B9060CF4A1C08827992782199309E9
:10237000881699060CF499C04D83412C9A0121507E
:1023800031093A8B298BC10108979B878A871415DD
:1023900009F48BC05D805A94842D90E0AB81BC81A0
:1023A000A80FB91FB88BAF87FC01EA0DFB1DF98799
:1023B000E887FDEFF51508F456C0AE81BF81ED91B9
:1023C000FC918F859889159D800D911D1124E80F32
:1023D000F91FE491852D90E09C0143E0220F331F0B
:1023E0004A95E1F73A832983A989BA898A179B0715
:1023F00031F4BD81B23018F09A858B8502C0998185
:102400008A81692E782EE12CF12C2E2F30E03E8728
:102410002D87A981BA816A167B06CCF02614370471
:10242000B4F0ED85FE850E2C02C0F595E7950A9473
:10243000E2F7A401460D571DE0FF02C001E001C014
:1024400000E02C8568857985C6010E948B0EFFEF20
:10245000EF1AFF0A2FEF621A720A38E0E316F1044E
:10246000C1F65A94A6CF439492CF8FEF9FEF9C8BE7
:102470008B8B1BC0AFEFBFEFBC8BAB8B16C01C8A26
:102480001B8A13C0FC0132961491249FC001259F22
:10249000900D1124189FF001199FF00D11249F0138
:1024A0002A5F3F4F3C832B8353CF8B899C89649653
:1024B0000FB6F894DEBF0FBECDBFDF91CF911F9155
:1024C0000F91FF90EF90DF90CF90BF90AF909F90D3
:1024D0008F907F906F905F904F903F902F900895D6
:1024E0002F923F924F925F926F927F928F929F9224
:1024F000AF92BF92CF92DF92EF92FF920F931F9312
:10250000CF93DF93CDB7DEB728970FB6F894DEBF31
:102510000FBECDBFDC01A25FBD4FBA83A983EC9192
:10252000B0E2EB9FF00111246E177F070CF073C02F
:10253000FC01E15FFD4FFC83EB83E081A0E1EA9FBA
:10254000F00111244E175F070CF065C0FC01E45F39
:10255000FD4F0190F081E02D3396E4913A016E0E2B
:10256000711C77FC58C0FE2C1E830D8319015887FF
:102570004F835B016C0161507109EE24E394830188
:102580009B010E94340F2101812C912CC2018219E0
:102590009309ED81FE818E179F07ECF5D2012D91F5
:1025A0002D010F2D4F815885B501680D791DC6018C
:1025B0000E9406111816190694F4880E991EB5018A
:1025C000680D791DEE24E39483019B014F815885AA
:1025D000C6010E94340FBFEF8B1A9B0A02C0892BE1
:1025E000D1F4E981FA818081F0E28F9FC00111244A
:1025F0009501280D391D281739076CF4AB81BC8172
:102600008C91B0E18B9FC0011124EF81F885E81710
:10261000F9070CF4BBCF28960FB6F894DEBF0FBEB7
:10262000CDBFDF91CF911F910F91FF90EF90DF9081
:10263000CF90BF90AF909F908F907F906F905F9062
:102640004F903F902F9008952F923F924F925F921C
:102650006F927F928F929F92AF92BF92CF92DF92B2
:10266000EF92FF920F931F93CF93DF93EC015B01E7
:102670006A01290138014C018CEF881A8DEF980A04
:10268000D4011D921C928E010E5F1F4F7B01302ED4
:10269000212EC7018A199B098C159D05A4F4F70109
:1026A000D7018D917D01D8018D938D016081CE017F
:1026B0000E94D7100196F40120813181820F931F6F
:1026C00091838083E6CFFE01E45FFD4F0190F081AE
:1026D000E02D3396E491DE01AA5FBD4FF0E0ED936B
:1026E000FC93FE01EC0DFD1D1282FE01E65FFD4F25
:1026F000718260823297518240823697D182C08245
:10270000E12C8601232D322DA301B201CE010E94BE
:102710007012DF91CF911F910F91FF90EF90DF909A
:10272000CF90BF90AF909F908F907F906F905F9071
:102730004F903F902F9008954F925F927F928F928B
:102740009F92AF92BF92CF92DF92EF92FF920F9340
:102750001F93CF93DF93EC015B014A016C0128EFDB
:10276000C21A2DEFD20AD6018D919C911197860F36
:10277000971F8D939C937E01B6EFEB1ABDEFFB0A7A
:10278000F70120813181240F351F31832083369753
:10279000208131813195219531098E01025F1D4FD4
:1027A000D801821793074CF48C91B0E28B9FC00143
:1027B0001124F601918380830BC04C91B0E24B9FB2
:1027C000A0011124481759074CF4F60131832083E6
:1027D000CE010E94040E7724739401C0712CD7019E
:1027E0004D915C91FE01EA5FFD4F80819181919551
:1027F000819591093996481759074CF48081B0E1C9
:102800008B9FC0011124F701918380830BC020812D
:10281000F0E12F9F900111242417350744F4D701CC
:102820008D939C93CE010E94040E77247394892883
:1028300009F0CEC0BFEFAB16BB0609F06BC020E0BD
:1028400030E05E01E0EFAE1AEDEFBE0AD5018C91EB
:10285000B0E48B9FC00111242817390724F5D80153
:10286000EC91B4E0EB9FF0011124C901BF010E947B
:10287000BB46AF0141505109E881F981E20FF31FD6
:102880008417950721F48081880F8F5F08C08181AC
:10289000982F991F9927991F8081880F890F80830E
:1028A0002F5F3F4FD3CFF601A080B1804E01F2E001
:1028B0008F0E911CC12CD12C2E0122E0420E521EF3
:1028C000D2018D919C91C816D9060CF093C0F401E9
:1028D00061914F01CE010E94D710D8012C91A50122
:1028E000480F591FB0E22B9F900111244217530744
:1028F00054F0FE01EC0DFD1DD7014D915C9100E0FF
:102900002281B5015BC00196A80EB91EBFEFCB1A9C
:10291000DB0AD6CFAA94AB2809F05AC0FE01E05FCB
:10292000FD4F2081F0E42F9F9001112421503109A7
:10293000F0F0D8016C91B4E06B9FB0011124C90193
:102940000E94BB46E881F981E20FF31F892B21F435
:1029500080818695805809C0DF0111979C91808104
:10296000869540E8949F800D11248083DFCFD601A7
:10297000CD90DC905E01B2E0AB0EB11C00E010E047
:102980004E01E2E08E0E9E1ED4018D919C9108179F
:10299000190784F5F50161915F01CE010E94D710FE
:1029A0009601280F391F37FD0DC0FE01E00FF11F02
:1029B000D7014D915C9100E02281B601CE010E94C9
:1029C000061118C00196C80ED91E0F5F1F4FDCCF2D
:1029D000FE01EE5FFD4F008111819E012E5F3F4F92
:1029E000F70140815181D6016D917C91E12CCE019E
:1029F0000E947012872DDF91CF911F910F91FF9050
:102A0000EF90DF90CF90BF90AF909F908F907F908E
:102A10005F904F900895CF92DF92EF92FF926B01FB
:102A20007C0120E030E044EB53E40E9452430E94DA
:102A3000374420E030E044EB53E40E94AB459B0177
:102A4000AC01C701B6010E944E426B017C0120E03F
:102A500030E0A9010E94484387FF0AC020E030E02F
:102A600044EB53E4C701B6010E944F426B017C0165
:102A7000C701B601FF90EF90DF90CF900895CF92FD
:102A8000DF92EF92FF926B017C0120E030E040EC9E
:102A900051E40E9452430E94374420E030E040EC71
:102AA00051E40E94AB459B01AC01C701B6010E94F5
:102AB0004E426B017C0120E030E0A9010E944843B6
:102AC00087FF0AC020E030E040EC51E4C701B601C6
:102AD0000E944F426B017C01C701B601FF90EF904D
:102AE000DF90CF9008952BED3FE049E450E40E9441
:102AF000AB4520E030E044E353E40E9452430C94A1
:102B000018462F923F924F925F926F927F928F92D0
:102B10009F92AF92BF92CF92DF92EF92FF920F936C
:102B20001F93CF93DF938C01EB011A016330710582
:102B30001CF4015011092C96B801012E000C880BD1
:102B4000990B0E94FC4320E030E048EC52E40E94E4
:102B500052430E9437446B017C0120E030E040E8A2
:102B60005EE30E94AB450E9437444B015C01B80113
:102B700064597D4E072E000C880B990B0E94FC4374
:102B800020E030EA46EB53E40E94AB450E94374414
:102B90002B013C012196BE01DD0F880B990B0E9491
:102BA000FC4321E03DEC44EF51E40E94AB450E9420
:102BB00037449B01AC01C301B2010E944F422B017B
:102BC0003C01B101330C880B990B0E94FC439B0123
:102BD000AC01C301B2010E944F422B013C01A7018D
:102BE000960160E070E080E090E40E944E42A50112
:102BF00094010E944F429B01AC01C301B2010E94AB
:102C00004F4220E030E94EEB54E40E944E42DF9107
:102C1000CF911F910F91FF90EF90DF90CF90BF90D9
:102C2000AF909F908F907F906F905F904F903F906C
:102C30002F9008954F925F926F927F928F929F9202
:102C4000AF92BF92CF92DF92EF92FF92CF93DF933A
:102C5000CDB7DEB760970FB6F894DEBF0FBECDBF1D
:102C600024E631EA45E15AE40E944E426B017C01C0
:102C70002DE430E54CE75FE30E94AB4526EB33ECF7
:102C800042EB53E40E944F420E940B154B015C0142
:102C900023E633E54CE75FE3C701B6010E94AB458D
:102CA00021EC3AE34CE853E40E944F420E940B159A
:102CB0006D877E878F87988BC501B4010E9473153D
:102CC00028EB3EE145EF5FE30E94AB452D853E8555
:102CD0004F8558890E944F422B013C01A501940168
:102CE000C501B4010E944F420E9473152AE037EDDE
:102CF00043EA5CE30E94AB45A30192010E944F426C
:102D00000E940B152B013C0126E036E441EC54E314
:102D1000C701B6010E94AB459B01AC0162E173E8BB
:102D20008BEB91E40E944E424B015C010E947315B3
:102D300069877A878B879C87C301B2010E947315CC
:102D40006B017C019B01AC0169857A858B859C8533
:102D50000E94AB450E94BB4269877A878B879C871C
:102D60002BED3FE049E450E4C301B2010E94AB45C2
:102D700020E030E044E353E40E9452430E944D437C
:102D80002B013C012BED3FE049E450E4C501B401C7
:102D90000E94AB4520E030E044E353E40E945243FC
:102DA0000E944D439B01AC01C701B6010E94AB4597
:102DB000A30192010E94E94220E030E044E353E4A1
:102DC0000E94AB452BED3FE049E450E40E945243A2
:102DD00020E030E040E751E40E9452430E943F155A
:102DE0004B015C0120E030E044E353E469857A85DF
:102DF0008B859C850E94AB452BED3FE049E450E478
:102E00000E945243F62EAB01BC0149835A836B8367
:102E10007C8320E030E040E751E46D857E858F853E
:102E200098890E945243A50194010E944E42E62FC8
:102E3000462F572FBC014D835E836F8378872F2DDC
:102E40003A814B815C816E2F7E818F81988560965F
:102E50000FB6F894DEBF0FBECDBFDF91CF91FF90CC
:102E6000EF90DF90CF90BF90AF909F908F907F902A
:102E70006F905F904F90089590931102809310028D
:102E8000089590930F0280930E020895CF93DF93DD
:102E9000CDB7DEB728970FB6F894DEBF0FBECDBF13
:102EA0000E941A1629833A834B835C8369817A8155
:102EB0008B819C8128960FB6F894DEBF0FBECDBFE4
:102EC000DF91CF910895CF93DF93CDB7DEB72897E9
:102ED0000FB6F894DEBF0FBECDBF0E941A166D83E9
:102EE0007E838F8398876D817E818F8198852896D8
:102EF0000FB6F894DEBF0FBECDBFDF91CF9108951E
:102F000020917602309177024091780250917902B7
:102F10000E944F420E9463179B01AC0160E070E089
:102F200080E491E40E944E420C943F154F925F92D0
:102F30006F927F928F929F92AF92BF92CF92DF92C9
:102F4000EF92FF92CF93DF93CDB7DEB764970FB6C2
:102F5000F894DEBF0FBECDBF4B015C0169017A0161
:102F60002091760230917702409178025091790257
:102F7000C701B6010E944F420E9446172B013C0137
:102F8000C701B6010E94801769837A838B839C8373
:102F9000C501B4010E9473156D837E838F8398876A
:102FA000C301B2010E94731569877A878B879C875A
:102FB000C0908202D0908302E0908402F09085025B
:102FC000C701B6010E9473156D877E878F87988B26
:102FD0002BED3FE049E450E4C301B2010E94AB4550
:102FE00020E030E044E353E40E9452430E944D430A
:102FF000698B7A8B8B8B9C8B2BED3FE049E450E403
:10300000C701B6010E94AB4520E030E044E353E441
:103010000E9452430E944D432B013C01CD80DE8033
:10302000EF80F884F7FAF094F7F8F0942D853E8558
:103030004F85588969857A858B859C850E94AB452B
:103040009B01AC01C701B6010E944E426B017C019D
:1030500029893A894B895C89C301B2010E94AB4539
:103060009B01AC01C701B6010E9452430E943D4240
:1030700020E030E044E353E40E94AB452BED3FE019
:1030800049E450E40E94524329E838E848E85DE307
:103090000E94AB456B017C0120E030E044EB52E440
:1030A000C501B4010E949E45181624F4C701B6015B
:1030B000905802C0C701B60129813A814B815C81D9
:1030C0000E944F4264960FB6F894DEBF0FBECDBF8C
:1030D000DF91CF91FF90EF90DF90CF90BF90AF90B6
:1030E0009F908F907F906F905F904F9008958F92F8
:1030F0009F92AF92BF92CF92DF92EF92FF92CF93C7
:10310000DF93EC016A017B01209176023091770216
:103110004091780250917902C701B6010E944F4256
:103120000E9446179B01AC0160918202709183025C
:1031300080918402909185020E944E429F772BEDF0
:103140003FE049E450E40E94AB4520E030E044E336
:1031500053E40E9452430E946A464B015C01BE0147
:10316000DD0F880B990B0E94FC43A50194010E947E
:103170004F429B01AC0160E070E080E89FE30E9459
:1031800052430E94194320E030E044E353E40E949C
:10319000AB452BED3FE049E450E40E945243905888
:1031A000A7019601DF91CF91FF90EF90DF90CF9034
:1031B000BF90AF909F908F900C94961720910E0225
:1031C00030910F022230310551F02330310561F08A
:1031D0002130310581F060E070E0CB01089565E2B7
:1031E00079E482E19EE3089520E030E040E752E494
:1031F0000E945243089560E070E080E09FE30895EC
:103200004F925F926F927F928F929F92AF92BF92F6
:10321000CF92DF92EF92FF920F931F93CF93DF93A2
:10322000CDB7DEB72A970FB6F894DEBF0FBECDBF7D
:103230009A878987DC0114968D909D90AD90BC9003
:10324000179750968D919D910D90BC91A02D8983DB
:103250009A83AB83BC839C01AD01C501B4010E947C
:103260004E420E943F156B017C01009112021091A9
:1032700013028EE0809FF001819FF00D1124EC5E1F
:10328000FD4F60817181828193810E94DE18A701C8
:1032900096010E94AB456D837E838F839887E98575
:1032A000FA854080518062807380A3019201C3013E
:1032B000B2010E948F4681118EC0A3019201C50107
:1032C000B4010E944E420E943F159B01AC016D81EA
:1032D0007E818F8198850E94484387FD7CC08EE067
:1032E000809FF001819FF00D1124EC5EFD4F8185E0
:1032F000811105C0628573858485958504C060E071
:1033000070E080E991E40E94DE18A70196010E9416
:10331000AB452B013C01A985BA8558968D909D90AF
:10332000AD90BC905B97A5019401C501B4010E94CA
:103330008F46811160C029813A814B815C81C50132
:10334000B4010E944E420E943F15A30192010E94C7
:103350009E4518160CF44FC08EE0809FF001819FAF
:10336000F00D1124EC5EFD4F8481811105C0658153
:1033700076818781908504C060E070E080E890E409
:103380000E94DE189B01AC01C701B6010E94AB454B
:103390004B015C01E985FA85C488D588E688F78801
:1033A000A7019601C701B6010E948F46811132C064
:1033B00029813A814B815C81C701B6010E944E424E
:1033C0000E943F159B01AC01C501B4010E94484316
:1033D00087FD20C02FC02D813E814F815885C501BA
:1033E000B4010E944E42A985BA856D937D938D9359
:1033F0009C93139774CFA301920169817A818B8189
:103400009C810E944F42E985FA85608F718F828F7F
:10341000938FA2CFA501940169817A818B819C81D0
:103420000E944F42A985BA8554966D937D938D93E2
:103430009C9357972A960FB6F894DEBF0FBECDBF68
:10344000DF91CF911F910F91FF90EF90DF90CF9080
:10345000BF90AF909F908F907F906F905F904F90B4
:103460000895EF92FF920F931F93CF93DF93EC0198
:103470008C017C018CE1E80EF11C20E030E040E79B
:1034800051E460917E0270917F0280918002909160
:1034900081020E9452439B01AC0160917A027091BB
:1034A0007B0280917C0290917D020E944E429B01A2
:1034B000AC01F80160817181828193810E944F4249
:1034C000F80161937193819391938F01EE16FF063A
:1034D000A1F620E030E040E752E460910A027091EA
:1034E0000B0280910C0290910D020E9452439B01AD
:1034F000AC01688579858A859B850E944F426887E3
:1035000079878A879B8700911202109113028EE0BF
:10351000809FF001819FF00D1124EC5EFD4F8481AE
:103520008823A1F020E030E040E752E46581768115
:10353000878190850E945243288939894A895B890D
:103540000E944F426C8B7D8B8E8B9F8B8EE0809F79
:10355000F001819FF00D1124EC5EFD4F81858823E1
:10356000A1F020E030E040E752E462857385848575
:1035700095850E9452432C893D894E895F890E941E
:103580004F42688F798F8A8F9B8F80910E02909126
:103590000F02892B49F0CE01DF91CF911F910F913E
:1035A000FF90EF900C940019DF91CF911F910F9134
:1035B000FF90EF9008950F931F93CF93DF93EC014B
:1035C0008C01045E1F4F20E030E040EC51E4688144
:1035D00079818A819B810E9452436993799389936F
:1035E0009993C017D10779F7DF91CF911F910F9170
:1035F0000895CF92DF92EF92FF921F93CF93DF93C4
:10360000EC010E94DB1AC880D980EA80FB8080919F
:103610001202909113021EE0189FF001199FF00D05
:103620001124EC5EFD4F208131814281538160E0A5
:1036300070E084E393E40E944E42A70196010E9449
:103640009617688379838A839B832C813D814E8181
:103650005F8161EC7AE283E393E40E9496176C83C6
:103660007D838E839F83688579858A859B850E946B
:103670008017688779878A879B874C855D856E85EB
:103680007F85809110029091110201960E94771817
:103690006C877D878E879F87288939894A895B89CE
:1036A0006DE77FE385E59FE30E949617688B798B32
:1036B0008A8B9B8B2C893D894E895F898091120270
:1036C00090911302189FF001199FF00D1124EC5EE8
:1036D000FD4F65817681878190850E9496176C8B5E
:1036E0007D8B8E8B9F8B288D398D4A8D5B8D809144
:1036F000120290911302189FF001199FF00D1124EE
:10370000EC5EFD4F62857385848595850E949617D2
:10371000688F798F8A8F9B8FDF91CF911F91FF9058
:10372000EF90DF90CF9008950F931F93CF93DF9387
:10373000CDB7DEB76C970FB6F894DEBF0FBECDBF26
:10374000182F092F8CE1E7E0F1E0DE0111960190DE
:103750000D928A95E1F7FE013196A12FB92FCE0186
:103760004D9641915191619171914D935D936D93FE
:103770007D93E817F907A9F7812F902F0E94F91A76
:10378000812F902F6C960FB6F894DEBF0FBECDBF81
:10379000DF91CF911F910F910C94311A2F923F928C
:1037A0004F925F926F927F928F929F92AF92BF9251
:1037B000CF92DF92EF92FF920F931F93CF93DF93FD
:1037C000CDB7DEB72D883E88009382021093830226
:1037D0002093840230938502C0927E02D0927F02B1
:1037E000E0928002F092810280927A0290927B02B3
:1037F000A0927C02B0927D020E9481152B013C01B7
:1038000020E030E044EB53E4C701B6010E9452438C
:103810009B01AC01C301B2010E944E42609376024B
:10382000709377028093780290937902C101DF91BF
:10383000CF911F910F91FF90EF90DF90CF90BF90AD
:10384000AF909F908F907F906F905F904F903F9040
:103850002F900C94941B909313028093120208955E
:10386000609368027093690280936A0290936B027E
:1038700086E090E0909313028093120208951092D4
:10388000710260937202709373028093740290933A
:10389000750286E090E090931302809312020895DF
:1038A000CF92DF92EF92FF920F931F93CF93DF930C
:1038B0008A01E90129E838E848E05CE30E944F42C8
:1038C0000E943F156B017C010E9437440E94C44353
:1038D000F80171836083072E000C880B990B0E94FE
:1038E000FC439B01AC01C701B6010E944E4220E09F
:1038F00030E040E752E40E94AB450E9437440E940A
:10390000C44379836883DF91CF911F910F91FF901A
:10391000EF90DF90CF9008951F920F920FB60F9205
:1039200011240BB60F922F933F934F935F936F9396
:103930007F938F939F93AF93BF93EF93FF93E09108
:103940008902F0918A020995FF91EF91BF91AF91A1
:103950009F918F917F916F915F914F913F912F91A7
:103960000F900BBE0F900FBE0F901F901895FC018B
:10397000A3E0440F551F661F771FAA95D1F7411585
:10398000510581E06807710514F481E00EC033E051
:1039900075956795579547953A95D1F74115510516
:1039A00081E0680771051CF482E0828331C023E066
:1039B00075956795579547952A95D1F74115510506
:1039C00081E06807710514F483E0EFCF92E075950C
:1039D0006795579547959A95D1F74115510581E01F
:1039E0006807710514F484E0E0CF82E0759567956F
:1039F000579547958A95D1F785E082834115510502
:103A000081E06807710524F04FEF5FEF60E070E040
:103A100051834083509381004093800080918A00BD
:103A2000887F80938A0090918A008281892B80937D
:103A30008A00089510928B0020E120938A000C9454
:103A4000B71CEAE8F0E02081DC0112968C91822B11
:103A5000808308950F931F93CF93DF93EC018B0125
:103A6000BA01A901141615061606170614F40E94C9
:103A7000B71C1C830B8384E080937D007894CE0177
:103A8000DF91CF911F910F910C94211D82E293E061
:103A90000C9421100C9428490F931F93CF93DF931C
:103AA00006E912E0C0E0D0E0CE010E942049F80112
:103AB00081938F012196C634D105B1F786E992E052
:103AC000DF91CF911F910F910895FF920F931F9354
:103AD000CF93DF9306E912E0C0E0D0E0F801F19067
:103AE0008F01CE010E942049F81621F06F2DCE01E2
:103AF0000E9428492196C634D10581F786E992E0D3
:103B0000DF91CF911F910F91FF900895DC01ED910E
:103B1000FC910190F081E02D0994CF93DF931092F6
:103B200097021092960286E08093980284E0809338
:103B3000990280939A0280939B0280939C028093C7
:103B40009D0280939E0285E080939F028093A00255
:103B50008093A1028093A2028093A3028093A40287
:103B60008093A5028093A6028093A7028093A80267
:103B70008093A9028093AA021092AB021092AC0229
:103B80001092AD021092AE021092AF021092B002EB
:103B900081E08093B1028093B2028093B30280935C
:103BA000B40281E090E09093B6028093B5029093C6
:103BB000B8028093B7029093BA028093B9029093AF
:103BC000BC028093BB021092BE021092BD02109202
:103BD000C0021092BF021092C2021092C102109253
:103BE000C4021092C3021092C6021092C502109233
:103BF000C8021092C7021092CA021092C902109213
:103C0000CC021092CB021092CE021092CD021092F2
:103C1000D0021092CF021092D10287E090E09093F0
:103C2000D3028093D2028AE999E9A9EFB0EC80939C
:103C3000D4029093D502A093D602B093D7028DEC14
:103C40009CECACEDB2E48093D8029093D902A0939F
:103C5000DA02B093DB020E94651DCCEBD2E0FE01DC
:103C6000EE5EF0406491CE010E944A1D2196C0365E
:103C700084E0D807A1F7C4E6D0E0FE01EA56FC4F85
:103C80006491CE010E944A1D2196C837D105A9F73B
:103C9000C8ECD0E0FE01E25EFC4F6491CE010E94D0
:103CA0004A1D2196CD3DD105A9F7CCE2D1E0FE0118
:103CB000E955FD4F6491CE010E944A1D2196C03402
:103CC00081E0D807A1F7C0E9D1E0FE01E25DFD4F38
:103CD0006491CE010E944A1D2196C63A81E0D80720
:103CE000A1F7C4EFD1E0FE01E854FE4F6491CE018C
:103CF0000E944A1D2196C73082E0D807A1F7C8E587
:103D0000D2E0FE01EA5EFE4F6491CE010E944A1DA0
:103D10002196CE3982E0D807A1F7DF91CF9108959F
:103D20000F931F93CF93DF93CDB7DEB72C970FB6CA
:103D3000F894DEBF0FBECDBF182F062F8CE0E3E254
:103D4000F1E0DE01119601900D928A95E1F781E094
:103D500090E0633010F080E090E09A01281B390B6E
:103D6000C90137FD03969595879595958795FC0133
:103D7000E20FF31FC9016CE97FEF0E94BB46E60F1B
:103D8000F71FC90160E971E00E94BB46CF01860FB1
:103D9000971FFE01E00FF11D2081820F911D810F01
:103DA000911D67E070E00E94BB46811101C087E071
:103DB00090E02C960FB6F894DEBF0FBECDBFDF911A
:103DC000CF911F910F910895982F92959F708F70AA
:103DD0002AE0929F800D112408956AE00E949B467C
:103DE00020E1829F900D1124892F08951A9A64E68C
:103DF00070E080E090E00E9412411A988DE20E94EB
:103E00001342892B39F466E970E080E090E00E946B
:103E10001241F4CF08952F923F924F925F926F928A
:103E20007F928F929F92AF92BF92CF92DF92EF924A
:103E3000FF920F931F93CF93DF9300D000D0CDB7A5
:103E4000DEB79C01220F331F220F331FF901EC5DF7
:103E5000FE4E4591559165917491542E652E762EA6
:103E6000472EF901E05DF34F4591559165917491AD
:103E70001A01162F072FFC01ED50F54FE491892B05
:103E800091F4E091D2025090D4026090D5027090EB
:103E9000D6024090D7022090D8023090D9021091DB
:103EA000DA020091DB026E2F70E080E090E00E9469
:103EB000FA434B015C0140916505509166056091A4
:103EC000690570916A052CED32E03F932F936101F3
:103ED000E12EF02E052D162D272D342D80916B050A
:103EE00090916C050E94CE1B6091DC027091DD0206
:103EF0008091DE029091DF029E012F5F3F4FAE0165
:103F00004D5F5F4F0E94501C8B819C811CE3189F6A
:103F10009001199F300D112489819A81820F931F7E
:103F20009093700580936F056091E4027091E502B3
:103F30008091E6029091E7029E012F5F3F4FAE0114
:103F40004D5F5F4F0E94501C8B819C81189F900198
:103F5000199F300D112489819A81820F931F9093AC
:103F60007205809371056091E8027091E902809179
:103F7000EA029091EB029E012F5F3F4FAE014D5F31
:103F80005F4F0E94501C8B819C81189F9001199F4C
:103F9000300D112489819A81820F931F90937405AB
:103FA000809373056091F0027091F1028091F202AA
:103FB0009091F3029E012F5F3F4FAE014D5F5F4F27
:103FC0000E94501C8B819C81189F9001199F300D7D
:103FD000112489819A81820F931F90937605809393
:103FE00075056091F4027091F5028091F60290914E
:103FF000F7029E012F5F3F4FAE014D5F5F4F0E9462
:10400000501C60917105709172056E5F7F4F4091F9
:104010007305509174054E5F5F4F20917505309187
:1040200076052E5F3F4F8B819C81189FF001199F71
:10403000F00D112489819A818E0F9F1F0296E091C5
:104040006F05F09170053296A091BD02B091BE024D
:10405000EA0FFB1FF0937005E0936F05E091BF023C
:10406000F091C0026E0F7F1F70937205609371050F
:104070006091C1027091C202460F571F50937405A0
:10408000409373054091C3025091C402240F351F21
:1040900030937605209375052091C5023091C602B4
:1040A000820F931F90937805809377058091C702C4
:1040B0009091C8020F900F901816190624F490934F
:1040C000700580936F058091C9029091CA021816FD
:1040D000190624F490937205809371058091CB02A8
:1040E0009091CC021816190624F4909374058093CD
:1040F00073058091CD029091CE021816190624F412
:1041000090937605809375058091CF029091D002AF
:104110001816190624F490937805809377058091FA
:104120006F05909170050A9790936E0580936D05C9
:104130000F900F900F900F90DF91CF911F910F91E3
:10414000FF90EF90DF90CF90BF90AF909F908F90B7
:104150007F906F905F904F903F902F90089598E0E0
:1041600087FF02C0DD9A01C0DD98880F811DDE9AAD
:10417000DE989150A9F70895CF93DF93DC98809152
:104180008805813021F480913D05877F03C08091AF
:104190003D05886080933D05C3E2D0E0FE01E55C0B
:1041A000FA4F80810E94AF202197C0F7DC9ADF91FF
:1041B000CF910895AF92BF92CF92DF92EF92FF928C
:1041C0000F931F93CF93DF93282F823019F08F30F6
:1041D00009F0CEC08091630590916405CAE0D0E0FB
:1041E000BE010E94BB46FB01E153FE4F308130937C
:1041F0003B05FC01E153FE4F808180933C0580919B
:10420000610590916205BE010E94BB46FB01E1532E
:10421000FE4F308130933D05FC01E153FE4F80811C
:1042200080933E05243019F02F3009F0A4C080910E
:10423000670590916805EAE0F0E0BF010E94BB4687
:10424000DB01AC53BE4F3C9130933F05DC01AC53D6
:10425000BE4F8C91809340053FE73093410580919C
:10426000690590916A05BF010E94BB46DB01AC5312
:10427000BE4F4C9140934205DC01AC53BE4F8C9134
:104280008093430530934405C0916B05D0916C0534
:10429000CE01805D9740BF010E94BB46DB01AC535D
:1042A000BE4F8C9180934505CE01BF010E94BB4655
:1042B000FC01EC53FE4F808180934605243171F45C
:1042C0000DE615E02CE030E088E5C82E82E0D82E1F
:1042D0009CE3E92EF12CCAE0D0E003C02F3081F33B
:1042E0004DC0F801A190B1908F01C501B6010E94A7
:1042F000BB46FB01EC53FE4F8081F901E55CFA4FB0
:104300008083C501B7010E94BB465C01CB01BE01A1
:104310000E94BB46FC01EC53FE4F8081F901E45C36
:10432000FA4F8083C501BE010E94BB46FB01EC53DE
:10433000FE4F4081F901E35CFA4F4083FC01EC53EE
:10434000FE4F8081F901E25CFA4F80832C5F3F4F82
:104350002432310531F68DE090E0FC01E55CFA4F46
:1043600020812E7F2083049685329105B1F706C007
:10437000843009F45CCF243109F4A2CFDF91CF91CE
:104380001F910F91FF90EF90DF90CF90BF90AF9073
:1043900008958A3A09F48CE190E0019723E0880FB0
:1043A000991F2A95E1F7AFE3B5E020E030E0FC018A
:1043B000E20FF31FE85EF94EE491ED932F5F3F4F5C
:1043C00028303105A1F70895CF93DF9390E09C0149
:1043D00028503109220F331F220F331FF901EE54E9
:1043E000FE4F6491F901ED54FE4F7491F901EC54C4
:1043F000FE4FA491F901EB54FE4F24914CE050E0A4
:10440000EFEF641751F0741741F0A41731F024173F
:1044100021F0EA01C55CDA4FE8834F5F5F4F443219
:10442000510579F7FC01ED55FE4F8491DF91CF9155
:104430000C94C921AF92BF92CF92DF92EF92FF927C
:104440000F931F93CF93DF93CDB7DEB7D2500FB644
:10445000F894DEBF0FBECDBF6C01809190029091A9
:104460009102843F914024F01092910210929002A8
:10447000CE0101967C018C01809190029091910275
:10448000843F91400CF03EC0809190029091910247
:104490008C0D9D1D0E942049F80181938F01209170
:1044A0009002309191022F5F3F4F30939102209301
:1044B00090025F01AE18BF088A30F1F4F701EA0DEF
:1044C000FB1D108261E082E293E00E94220F00E077
:1044D00010E02FE730E0A501B70182E293E00E94EF
:1044E000241380919002909191028C0D9D1D0E9449
:1044F0002049811107C002C08111BECF10929102E4
:1045000010929002DE5F0FB6F894DEBF0FBECDBFF3
:10451000DF91CF911F910F91FF90EF90DF90CF909F
:10452000BF90AF9008950F931F93CF93DF93EC014B
:1045300083E99BE3892B11F00E94933B0E94E040AA
:104540000091920210919302209194023091950271
:10455000DC01CB01801B910BA20BB30B8897A1054B
:10456000B105B8F040E050E06FEF7FEF82E293E0FA
:104570000E949C13882319F0CE010E941A220E94E7
:10458000E040609392027093930280939402909320
:104590009502DF91CF911F910F910895CF93DF93F3
:1045A0001A9A64E670E080E090E00E9412411A9846
:1045B000C4EFD1E085E00E941342892B41F40E94B0
:1045C000BC208CEB92E00E949322219799F7DF9117
:1045D000CF910895CF93DF931A9A64E670E080E05C
:1045E00090E00E9412411A98C4EFD1E08EE20E943E
:1045F0001342892B41F40E94BC208CEB92E00E9474
:104600009322219799F7DF91CF9108954F925F926E
:104610006F927F92AF92BF92CF92DF92EF92FF9212
:104620000F931F93CF93DF93082F7B016A018CE0D8
:1046300090E02FEFFC01E55CFA4F20830196843275
:104640009105C1F7C02FD0E0CC0FDD1FC15ADA4F62
:104650005E019CE2492E55245394612C712C1FEF6E
:104660008DE20E941342019709F06FC085E00E941D
:104670001342892B99F4888199810196C816D9062D
:104680001CF09983888302C0F982E88282E00E944C
:10469000DA2084E00E94DA200E94CE228EE20E947C
:1046A0001342892BB9F48881998101978E159F0552
:1046B00034F08F3F910519F09983888303C0F50189
:1046C000D182C08282E00E94DA2084E00E94DA2057
:1046D0000E94EA2282E00E94DA2084E00E94DA202E
:1046E0000E94E040A30192010E94CF466639710505
:1046F0008105910518F50430C1F048F4013081F0CE
:104700000230E1F410933B0510933C0517C00530CF
:1047100089F0063099F410934505109346050EC0B4
:1047200010933D0510933E0509C010933F0510936B
:10473000400504C010934205109343050E94BC201D
:104740008CEB92E00E9493228BCFDF91CF911F914F
:104750000F91FF90EF90DF90CF90BF90AF907F9040
:104760006F905F904F900C94F61E4F925F926F92F5
:104770007F92AF92BF92CF92DF92EF92FF920F9310
:104780001F93CF93DF93EB016A0159012CE030E0D6
:104790009FEFF901E55CFA4F90832F5F3F4F243282
:1047A0003105B9F70E94C9211FEF0FE784E6E82E13
:1047B000F12C9CE2492E55245394612C712C8DE2EE
:1047C0000E941342019709F0A1C082E00E94DA2002
:1047D000C436D1056CF0CE01B7010E94BB46909360
:1047E000620580936105709364056093630512C050
:1047F00010933B0510933C05D7FD00933C05CE017B
:10480000D7FF04C0882799278C1B9D0B90936205C6
:104810008093610585E00E941342892B61F5219602
:10482000AC16BD060CF4E60182E00E94DA20C43624
:10483000D1056CF0CE01B7010E94BB469093620592
:1048400080936105709364056093630512C01093B3
:104850003B0510933C05D7FD00933C05CE01D7FFE7
:1048600004C0882799278C1B9D0B90936205809329
:1048700061050E94CE228EE20E941342892B61F5CF
:104880002197CC15DD050CF4E50182E00E94DA20C9
:10489000C436D1056CF0CE01B7010E94BB4690939F
:1048A000620580936105709364056093630512C08F
:1048B00010933B0510933C05D7FD00933C05CE01BA
:1048C000D7FF04C0882799278C1B9D0B9093620506
:1048D000809361050E94EA220E94E040A3019201B8
:1048E0000E94CF46663971058105910540F4109309
:1048F0003B0510933C0510933D0510933E050E9427
:10490000BC208CEB92E00E94932259CF0E94F61EAD
:10491000CE01DF91CF911F910F91FF90EF90DF902B
:10492000CF90BF90AF907F906F905F904F90089521
:10493000CF93DF9341E062E082E293E00E94130EA6
:10494000CCEFD2E084EF91E0A0E0B0E08E839F83D3
:10495000A887B9878AE0EFE2F1E0A0E1B3E0019037
:104960000D928A95E1F71E8E82E08F8F1CA21DA208
:10497000DF91CF9108951F93CF93DF93CFE5D5E0DB
:104980004C855D856A8588850E94901E182F68E693
:1049900070E089E895E00E94CC3860E070E089E83A
:1049A00095E00E94861D88810E94ED1E682F89E88F
:1049B00095E00E9479388A810E94ED1E682F89E86F
:1049C00095E00E9479388C810E94ED1E682F89E85D
:1049D00095E00E947938812F0E94ED1E682F89E8AA
:1049E00095E00E94793888850E94ED1E682F89E83D
:1049F00095E00E9479388A850E94ED1E682F89E82B
:104A000095E00E9479388C85805D0E94ED1E682FAC
:104A100089E895E00E94793889E895E00E94483954
:104A200068E670E089E895E00E94CC386EE070E0BE
:104A300089E895E00E94861D60E070E089E895E0D5
:104A40000E94861D89E895E0DF91CF911F910C941B
:104A500048390F931F93CF938DE20E941342892B05
:104A600081F50E94F61E47E150E060E070E082E0D0
:104A70000E9406234BE350E060E070E081E00E947A
:104A800006234FE150E061E070E084E00E940623DD
:104A90004CE050E061E070E085E00E94062343E3D3
:104AA00058E060ED77E086E00E9406230E94BB2478
:104AB00080919602909197020E940B1F8FE00E94B6
:104AC000DA2085E00E941342892B09F0DCC00E94A5
:104AD000CE2283E08093990280939A0280939B0276
:104AE00080939C0280939D0280939E0260919F021E
:104AF00070E023E630E040E050E08CE00E94B52317
:104B000080939F026091A00270E023E630E040E0D5
:104B100050E08DE00E94B5238093A0026091A10235
:104B200070E023E630E040E050E08EE00E94B523E4
:104B30008093A1026091A20270E023E630E040E0A1
:104B400050E08FE00E94B5238093A2026091A302FF
:104B500070E023E630E040E050E080E10E94B523C1
:104B60008093A3026091A40270E023E630E040E06D
:104B700050E08BE10E94B5238093A4026091A502CE
:104B800070E023E630E040E050E081E10E94B52390
:104B90008093A5028093A6028093A7028093A80227
:104BA0008093A9028093AA026091980270E023E6A4
:104BB00030E040E050E088E00E94B5238093980206
:104BC0008091BB029091BC020CE310E0B8010E94FE
:104BD000BB4627E130E040E050E08AE00E94B52388
:104BE000CCE39C01C29FC001C39F900D1124909300
:104BF000BC028093BB028091B5029091B602B801CD
:104C00000E94BB4627E130E040E050E089E00E948E
:104C1000B5239C01C29FC001C39F900D11249093A6
:104C2000B6028093B5029093B8028093B702909336
:104C3000BA028093B90287E08093B1028093B202F6
:104C40008093B3021092B4021092C8021092C7026D
:104C50001092CA021092C9021092CC021092CB029A
:104C60001092CE021092CD021092D0021092CF027A
:104C70000E94651D80919602909197020E940B1FE1
:104C80008FE00E94DA208EE20E941342892B09F005
:104C90009FC0C0E08EE20E941342892B09F098C0A9
:104CA00064E670E080E090E00E941241CF5FC23382
:104CB00089F70E94EA228EE20E941342892BD9F3DF
:104CC00064EF71E080E090E00E94124160919602F2
:104CD000709197022CE331E040E050E083E10E94C4
:104CE000B52390939702809396026091BD027091D4
:104CF000BE022AE030E046EF5FEF84E10E94B52378
:104D00009093BE028093BD029093C0028093BF0235
:104D10009093C2028093C1029093C4028093C30215
:104D20009093C6028093C5026091AB0270E023E6C7
:104D300030E040E050E085E10E94B5238093AB0273
:104D40006091AC0270E023E630E040E050E086E1A4
:104D50000E94B5238093AC026091AD0270E023E61F
:104D600030E040E050E087E10E94B5238093AD023F
:104D70006091AE0270E023E630E040E050E088E170
:104D80000E94B5238093AE026091AF0270E023E6EB
:104D900030E040E050E089E10E94B5238093AF020B
:104DA0006091B00270E023E630E040E050E08AE13C
:104DB0000E94B5238093B0020E94651D80919602E7
:104DC000909197020E940B1F8FE00E94DA2062CF21
:104DD000CF911F910F91089568E670E089E895E002
:104DE0000E94CC3860E070E089E895E00E94861D62
:104DF00089E895E00E94483947E050E068E670E0B5
:104E000089E895E00E944539873009F04FC089E86C
:104E100095E00E9428380E94E41E90E0909360057F
:104E200080935F0589E895E00E9428380E94E41E7F
:104E300090E0909362058093610589E895E00E9477
:104E400028380E94E41E90E09093640580936305E7
:104E500089E895E00E9428380E94E41E90E0909333
:104E600066058093650589E895E00E9428380E94D0
:104E7000E41E90E0909368058093670589E895E0CB
:104E80000E9428380E94E41E90E090936A05809367
:104E9000690589E895E00E9428380E94E41E90E0A8
:104EA0008053984F90936C0580936B05089561E053
:104EB00082E00E94A8410E94E040609392027093B9
:104EC0009302809394029093950261E088E20E949D
:104ED000A84161E086E20E94A84161E087E20E9469
:104EE000A84162E085E00E94A84162E08DE20E9454
:104EF000A84162E08EE20E94A84180ED97E0909385
:104F00006C0580936B058FE00E94DA200E94BC2024
:104F100026E040E056E960E070E086EE96E00E9410
:104F20003C3C26E040E855E260E070E089E496E031
:104F30000E943C3C89E895E00E94B83821E041E0BD
:104F400069E476E08CEF92E00E94CE0D48EC50E0F0
:104F500060E070E086EE96E00E94273F61E082E22A
:104F600093E00E94220F48EC50E060E070E086E899
:104F700092E00E941A1D2FEF3FEFA90166E47DE148
:104F800086E892E00E942A1D1A9A6AEF70E080E09B
:104F900090E00E9412411A9882E090E00E942B1C3F
:104FA00080E090E00E943C1783E090E00E9441176F
:104FB00060E070E080EA91E40E94301C60E070E004
:104FC00080E991E40E943F1C6DE074E082E293E08E
:104FD0000E94D11067E082E293E00E94860E85E095
:104FE0000E941342892B61F48EE20E941342892BA6
:104FF00039F48DE20E941342892B11F40E948D1D19
:105000000E944C1D0E94EC2680919602909197027E
:105010000E940B1F8FE00E94DA200E94BC2069E1F1
:105020008CEF92E00E94C60D61E070E08CEF92E0A0
:105030000E94C20D8CEB92E00E941A2261E471E0A2
:1050400089E496E00C943B3E4F925F926F927F9280
:105050008F929F92AF92BF92CF92DF92EF92FF9288
:105060000F931F93CF93DF93C82E1092910210924B
:1050700090028CEF92E00E94FE0D9090980228E042
:10508000C21217C0009199028CE3089F800111247D
:10509000C0919F022CE3C29FE0011124E090A50281
:1050A000F12C84E690E00E941A22A4E6AA2EB12CEC
:1050B00089C089E0C81217C000919A022CE3029FB0
:1050C00080011124C091A0028CE3C89FE00111244B
:1050D000E090A602F12C88EC90E00E941A22F8ECF5
:1050E000AF2EB12C6FC02AE0C21218C000919B02F3
:1050F0008CE3089F80011124C091A1022CE3C29F80
:10510000E0011124E090A702F12C8CE291E00E94D2
:105110001A22ECE2AE2EBB24B39454C08BE0C8122A
:1051200018C000919C022CE3029F80011124C091C1
:10513000A2028CE3C89FE0011124E090A802F12CA8
:1051400080E991E00E941A2270E9A72EBB24B39453
:1051500039C02CE0C21218C000919D028CE3089F58
:1051600080011124C091A3022CE3C29FE00111240D
:10517000E090A902F12C84EF91E00E941A2264EFE2
:10518000A62EBB24B3941EC054E6A52EB12C8DE0F0
:10519000C81218C000919E022CE3029F80011124C6
:1051A000C091A4028CE3C89FE0011124E090AA0200
:1051B000F12C88E592E00E941A2248E5A42E42E0F4
:1051C000B42E912C38EE432E33E0532E612C712CEB
:1051D0000E94E040A30192010E94CF46672B682BFA
:1051E000692BB1F7D12C28EE422E23E0522E612CF0
:1051F000712C8824839401151105C1F10E94E040AF
:10520000A30192010E94CF46643F71408105910540
:10521000E8F4992009F4FAC01A9ADD2091F00150BF
:1052200011090E94EC2682E00E94DA2084E10E94AB
:10523000DA209A948C2D0E94E4210E94BC201092C6
:105240008805C5010E949322D12CD5CFD11007C06B
:105250008EE00E94E4210E94BC20809288051A986A
:10526000C5010E949322DD24D394C5CF209709F471
:1052700064C08CE090E02FEFFC01E55CFA4F2083E6
:10528000019684329105C1F78DE0C81202C08BE10E
:1052900001C082E10E94C9211A9AD12C0CE310E0CE
:1052A00098EE492E93E0592E612C712CCC24C39496
:1052B000CE01B8010E94BB467093640560936305FC
:1052C0009093620580936105C5010E94932282E05C
:1052D0000E94DA200E94E040A30192010E94CF4682
:1052E000643F714081059105D0F4DD2051F0C092FA
:1052F000880582E10E94C9212197C230D1050CF4B2
:105300001A9A0E94BC20D12CD7FFD2CF1A9A60EDF6
:1053100077E080E090E00E9412411A980EC0DD20F4
:1053200019F0DD24D394F0CF109288058EE00E940E
:10533000E4210E94BC201A98F4CF8EE00E94E42160
:105340008CE38E9DE0018F9DD00D112461E082E2FF
:1053500093E00E94220F88EE882E83E0982EA12CE5
:10536000B12C2097D1F10E94EC2682E00E94DA2035
:105370000E94BC200E94E040A50194010E94CF46FB
:10538000643F714081059105D8F4DD2051F381E03F
:105390008093880500E02AE340E050E06BE370E092
:1053A00082E293E00E9406112AE340E050E062E4CA
:1053B00070E082E293E00E9406112197D12CD1CFB8
:1053C000DD2019F0DD24D394CCCF1092880561E064
:1053D00082E293E00E94220FF5CF8CEB92E00E94D4
:1053E0001A221092910210929002DF91CF911F9198
:1053F0000F91FF90EF90DF90CF90BF90AF909F9074
:105400008F907F906F905F904F900895DD2009F40A
:1054100018CF015011090E94EC2682E00E94DA2088
:1054200084E10E94DA2006CF8F929F92AF92BF92C2
:10543000CF92DF92EF92FF921F93CF93DF938091F1
:105440006305909164052CE3289FE001299FD00D0E
:1054500011248091610590916205C80FD91F209198
:10546000AB0280916F0590917005821B9109C8175E
:10547000D90731F4222321F08CEF92E00E94010E33
:1054800020916505309166058091710590917205B6
:105490002530310571F42091B002821B9109C817A3
:1054A000D90751F4222341F08CEF92E00E94010EC3
:1054B00003C02091AC02F1CF2091AD028091730521
:1054C00090917405821B9109C817D90731F42223E2
:1054D00021F08CEF92E00E94010E2091AE028091AB
:1054E000750590917605821B9109C817D90731F48B
:1054F000222321F08CEF92E00E94010E2091AF0256
:105500008091770590917805821B9109C817D9077A
:1055100031F4222321F08CEF92E00E94010E809161
:105520006D0590916E05C817D90791F58BE00E9423
:10553000C9210E94E0406B017C0120E6C20E2AEEE8
:10554000D21EE11CF11C88EE882E83E0982EA12C3F
:10555000B12C11E00E94E0406C157D058E059F0581
:10556000B8F40E94BC208CEB92E00E9493220E942F
:10557000E040A50194010E94CF46643F714081053F
:10558000910518F410928805E5CF10938805E2CFB5
:1055900080916F0590917005C817D90719F488E0BC
:1055A0000E9424288091710590917205C817D9072F
:1055B00059F48091650590916605059711F48DE089
:1055C00001C089E00E9424288091730590917405A0
:1055D000C817D90719F48AE00E942428809175051C
:1055E00090917605C817D90719F48BE00E942428FA
:1055F0008091770590917805C817D90771F48CE0F0
:10560000DF91CF911F91FF90EF90DF90CF90BF90EF
:10561000AF909F908F900C942428DF91CF911F9191
:10562000FF90EF90DF90CF90BF90AF909F908F90C2
:105630000895CF93DF930E94E04028EE33E040E0EE
:1056400050E00E94CF46643F71408105910548F4C7
:1056500080918805813011F40E94EC261092880513
:1056600003C081E08093880580915F05909160057B
:105670006AE070E00E94BB469C0190918B0225304D
:1056800031050CF0B7C09111B1C0809163059091C4
:1056900064052CE3289FE001299FD00D11248091FF
:1056A000610590916205C80FD91F8091B502909154
:1056B000B602C817D907BCF08091B7029091B80222
:1056C0008C179D0784F06091B10282E293E00E9402
:1056D000860E8091B102882321F081E0809306013B
:1056E00002C0109206018091B7029091B802C817CB
:1056F000D907BCF08091B9029091BA028C179D072E
:1057000084F06091B20282E293E00E94860E809162
:10571000B202882321F081E08093060102C010923A
:1057200006018091B9029091BA02C817D907BCF05E
:105730008091BB029091BC028C179D0784F0609110
:10574000B30282E293E00E94860E8091B302882326
:1057500021F081E08093060102C010920601809141
:10576000BB029091BC02C817D9073CF48091B502E6
:105770009091B6028C179D0784F06091B40282E28A
:1057800093E00E94860E8091B402882321F081E08C
:105790008093060102C0109206012091BB02309155
:1057A000BC028091B5029091B6022817390741F4E6
:1057B00081E08093060167E082E293E00E94860E1A
:1057C00080918C0281110FC067E471E086EE96E053
:1057D0000E941C3E6FE471E086EE96E00E943B3E24
:1057E00081E080938C028FE00E94DA2081E0809338
:1057F0008B0208C0913021F4809165050E94C92177
:1058000010928B0280918F0290E02091610530917F
:1058100062052817390711F00E94142A809161054A
:1058200080938F0280918E0290E0209163053091E9
:1058300064052817390731F08091960290919702FC
:105840000E940B1F8091630580938E0280918D02D0
:1058500090E020916505309166052817390711F011
:105860000E944C1D8091650580938D0280910601F8
:10587000882339F00E94BC208CEB92E00E94932296
:1058800006C0C4E28FEF0E94AF20C150D9F7DF916C
:10589000CF910C9429258F929F92AF92BF92CF9275
:1058A000DF92EF92FF920F931F93CF93DF93CDB7C9
:1058B000DEB72C970FB6F894DEBF0FBECDBF6CEFEE
:1058C00071E0CE0107960E94B63F86EE96E00E94F8
:1058D000653B892BC1F066EE76E0CE0101960E9411
:1058E0002D3FBE016F5F7F4FCE0107960E9408409B
:1058F000CE0101960E94483FBE01695F7F4F89E457
:1059000096E00E94293E60E070E0CE0107960E947A
:105910007440FC018081823509F076C061E070E05E
:10592000CE0107960E947440FC018081853409F005
:105930006BC062E070E0CE0107960E947440FC01EB
:105940008081833509F060C063E070E0CE01079686
:105950000E947440FC018081853409F055C064E0E8
:1059600070E0CE0107960E947440FC01808184356E
:1059700009F04AC00E948D1D66E070E0CE010796D6
:105980000E947440FC018081082E000C990BC09786
:1059900024E6289F8001299F100D112467E070E004
:1059A000CE0107960E947440FC018081082E000CF5
:1059B000990BC0972AE0289FB001299F700D1124F0
:1059C000060F171F68E070E0CE0107960E94744032
:1059D000FC016081062E000C770B60537109600F8B
:1059E000711F6D33F1E07F0764F470939702609349
:1059F00096024AE050E089E496E00E94E53E0E946B
:105A0000651D8CE0809387056EE571E0CE010796F9
:105A10000E945540882349F063E671E086EE96E0E7
:105A20000E941C3E81E00C944937809187058130AB
:105A3000D9F560E070E0CE0107960E947440FC0149
:105A40008081853211F00C94F837AAE9EA2EA1E0A2
:105A5000FA2E10E0F701049161E070E0CE010796A4
:105A60000E947440FC018081081316C067E671E053
:105A700086EE96E00E941C3E602F86EE96E00E9425
:105A80001E3E6BEF71E086EE96E00E941C3E1E5FAC
:105A9000109387050C94F8371F5FFFEFEF1AFF0A8A
:105AA0001A30C1F60C94F837809187058B3009F0D5
:105AB0006AC08CE08093870561E070E0CE010796B4
:105AC0000E947440FC018081082E000C990BC09745
:105AD00024E6289F8001299F100D112462E070E0C8
