:100000000C94070A0C94310A0C94310A0C94310AAE
:100010000C94310A0C94310A0C94310A0C94310A74
:100020000C94310A0C94310A0C94310A0C94310A64
:100030000C94310A0C94310A0C94310A0C94310A54
:100040000C94613E0C94310A0C943D3B0C94733B30
:100050000C94310A0C94310A0C94310A0C94310A34
:100060000C94310A0C94310A0C94310A0C94310A24
:100070000C94310A0C94310A0C94D43B0C940A3C35
:100080000C94310A0C94D0380C94310A850A930AE6
:10009000A60A680AA60A6D0AA10AB10AA60AA60A51
:1000A000A60AA60AA60AA60AA60AA60AB10AA60AC5
:1000B000A60AA60AA60AA60A6C0E720E790E7F0E72
:1000C000850E8B0E910E970E9D0EA30EA90EAF0EF0
:1000D000B50EBB0EC10EC70E731D861D991DAC1D3E
:1000E000BF1DCE1DE11D613F613F723F533F563F33
:1000F0005A3F5D3F723F723F653F693F6D3F036E00
:10010000DB363D9A9999993DABAAAA2A3E00000098
:10011000803F084AD73B3BCE016E84BCBFFDC12F58
:100120003D6C74319ABD56833DDA3D00C77F11BEE8
:10013000D9E4BB4C3E916BAAAABE000000803F07E9
:100140002C7AA5BA6CC590DA3B9365FC8BBC53F84E
:1001500010FD3C5692834DBD879D3AB63DCBC9BF3D
:100160005BBE73DA0FC93F05A84CCDB2D44EB93887
:1001700036A9020C50B9918688083CA6AAAA2ABEC4
:10018000000000803F0664EC1B3C04BC163E3BE5CF
:10019000B93CC93C37C29E5A3D660498083EEA699C
:1001A000AAAA3E000000803F30860A1020600003AB
:1001B000070B090E0B0305050609030503040806D2
:1001C00008080908080808080303090809080C0CAE
:1001D00009090909080A0A03090C080C0A0A090A8C
:1001E0000A090B0A0C100C0B090504050808030981
:1001F0000909090906090903040A030D090909097E
:1002000006080609090F0B09070602060908FEFE83
:10021000FE1D1D1D1E1E1E001E1E1E0000000000D5
:1002200000003030F0FE3E3030F0FE3E30061E1F43
:100230000706061E1F070606387CFEE6FFC6CE8CA4
:100240000C040C1C183F191F0F073C7E42427E3CD9
:100250008060108C82808000000000100C02010081
:100260000F1F10101F0F00809CFEFEE6BE3E9C80FC
:1002700080070F1F1918191F0F0F1F1D1E1E1E00AC
:100280000000E0F8FC1E020F3F7FF080021EFCF829
:10029000E080F07F3F0F08683E3E680800000000E5
:1002A0000000C0C0C0F8F8F8C0C0C00101010F0FC5
:1002B0000F010101000000DC7C3C80808080800315
:1002C000030303030000001C1C1C008078061807B1
:1002D0000000F8FCFE0606FEFCF8070F1F18181FAA
:1002E0000F07607038FEFEFE0000001F1F1F181C65
:1002F0001E0686FEFC78181C1E1F1B191818081CE9
:100300001EC6C6FEFC38060E1E18181F0F0780C03A
:10031000F0381CFEFEFE0003030303031F1F1F0330
:10032000F0FEFE6666E6C686060E1E18181F0F074C
:10033000F0FCFE4666EECE8C030F1F18181F0F0749
:1003400006060686E6F61E0600001C1F1F010000BA
:1003500038FCFEC6C6FEFC38070F1F18181F0F0713
:1003600078FCFE8686FEFCF0040C1D19181F0F0396
:100370007070701C1C1C707070DC7C3CE0E0E0F065
:100380007070703838030303070707070E0E70708C
:100390007070707070700707070707070707383815
:1003A000707070F0E0E0E00E0E070707070303032C
:1003B000181C9EC6E6FE7C3800001D1D1D000000B6
:1003C000E018C4F43A0A0AF2FA7C08F00718272F5A
:1003D00048484C4F4F2836110080E0F8FE1EFEF8CA
:1003E000E08000001C1F0F07060606070F1F1C10E9
:1003F000FEFEFEC6C6FEBC98001F1F1F1818181F61
:100400000F07F0FCFC0E060E1E1C08030F1F1C1825
:100410001C1F0E06FEFEFE06060EFEFCF01F1F1F32
:1004200018181C1F0F03FEFEFEC6C6C6C6C6061F52
:100430001F1F181818181818FEFEFEC6C6C6C606D6
:100440001F1F1F0000000000F0FCFC0E06C6CEDEE1
:10045000DCC8030F0F1C18181C1F0F0FFEFEFEC078
:10046000C0C0C0FEFEFE1F1F1F000000001F1F1F98
:10047000FEFEFE1F1F1F000000000000FEFEFE0625
:100480000F1F1C18181F0F07FEFEFEC0E0F0F8DC5F
:100490000E0602001F1F1F00000001071F1E18107C
:1004A000FEFEFE00000000001F1F1F18181818187D
:1004B000FEFEFE3EF88080F83EFEFEFE1F1F1F007F
:1004C000031F1F03001F1F1FFEFEFE7CF0E080FEC7
:1004D000FEFE1F1F1F0001030F1F1F1FF0FCFC0E5D
:1004E00006060EFCFCF0030F0F1C18181C0F0F0360
:1004F000FEFEFEC6C6C6FE7E3C1F1F1F000000009B
:100500000000F0FCFC0E06060EFCFCF0030F0F1CB6
:10051000181E1C1F1F33FEFEFEC6C6C6FE7E3C0014
:100520001F1F1F0000030F1F1C10387CFEE6E6EEA5
:10053000DEDC98060E1E1C18191F0F07060606069D
:10054000FEFEFE06060606000000001F1F1F00003C
:100550000000FEFEFE00000000FEFEFE070F1F1C56
:1005600018181C1F0F071EFEFCF0800080F0FCFE18
:100570001E020000031F1F1C1F1F03000000FEFEC1
:10058000F80080F8FE3EFEF88000F8FEFE06000F40
:100590001F1F1F07010001071F1F1F0F0000061E5E
:1005A0003CF8F0E0F0F83C1E0602181E0F070301AD
:1005B00003070F1E1810020E1E7EF8E0F87E1E0EB6
:1005C00002000000001F1F1F00000000000606C6FA
:1005D000E6F63E1E0E1C1E1F1B1918181818FEFEEC
:1005E000FE0606FFFFFFC0C0067880000000071867
:1005F0000606FEFEFEC0C0FFFFFF40707C1E1E7C94
:10060000704000000000000000000000000000003A
:1006100000004040404040404040020604000000CE
:1006200040607030B0B0F0F0E00E1F1F1B19091FC2
:100630001F1FFEFEFE603030F0E0C01F1F1F0C18B1
:10064000181F0F07C0E0F0703030706040070F1FB8
:100650001C18181C0C04C0E0F0303060FEFEFE07D1
:100660000F1F18180C1F1F1FC0E0F0B0B0B0F0E053
:10067000C0070F1F1D19191D0D0530FCFEFE363673
:10068000001F1F1F0000C0E0F0303060F0F0F047A6
:10069000CFDFD8D8CCFF7F3FFEFEFE203030F0F019
:1006A000E01F1F1F0000001F1F1FF6F6F61F1F1F71
:1006B00000F6F6F6C0FFFF7FFEFEFEC0E0F0F03071
:1006C00010001F1F1F0301071F1E1C10FEFEFE1F30
:1006D0001F1FF0F0F02030F0F0E02030F0F0E01FCD
:1006E0001F1F00001F1F1F00001F1F1FF0F0F02022
:1006F0003030F0F0E01F1F1F0000001F1F1FC0E080
:10070000F0703070F0E0C0070F1F1C181C1F0F079F
:10071000F0F0F0603070F0E0C0FFFFFF0C18181F21
:100720000F07C0E0F0303060F0F0F0070F1F18182E
:100730000CFFFFFFF0F0F02030101F1F1F00000023
:10074000E0F0F09090B0302008191B13131F1F0E1B
:1007500030FCFCFE3030000F1F1F1818F0F0F000C6
:100760000000F0F0F00F1F1F1818081F1F1F10F0D7
:10077000F0C000E0F0F0100000071F1C1F07000091
:1007800010F0F0E00000F0F0F00000E0F0F01000F9
:1007900000071F1E0F0300030F1E1F07000010306D
:1007A00070E0C080C0E070301010181E0F07030703
:1007B0000F1E181010F0F0C000C0F0F030C0C0C71D
:1007C000FFFC3F0F0100303030F0F0F0301C1E1FF6
:1007D0001B1918180000FCFEFE0603037FFFFCC077
:1007E000FEFEFFFF06FEFEFC0000C0FCFF7F0303D1
:1007F000C0E0E0E0E0C0C0C0E00100000001010195
:100800000100F8080808080808F81F101010101058
:10081000101F000709080807090907070807080744
:100820000707070707080807080708070707080852
:10083000080707070707080707070909080707093F
:100840000707070707080707070908070707070734
:10085000070707070707080709080807080708091F
:100860000708070807070707070707070709070813
:100870000707070807080707080707070807080703
:1008800007070708080707080707070707070807F4
:1008900007070707070807070807070707070807E5
:1008A00007070708080807080709080808080908CB
:1008B00008070708070907070707070707070709C2
:1008C00008070708070707070707070708080707B4
:1008D00008080707070708070707070707070707A5
:1008E0000808080707070807070707070707070794
:1008F0000708070807080707080707080707070783
:100900000707080708070907070707070807080771
:100910000707070808070707090707070707080762
:100920000707070807070808080708080707070751
:100930000708080708070707070707070908080740
:100940000907070707080809080807070707070036
:10095000000000CDCCDC4266260043E73BE74200C6
:1009600080E642B488CC42CDCCF942008005437F7A
:10097000AAC942E73BE4421BEFF1424E22C6427F46
:10098000AAE94233B3BE424C77D2424E22D742B498
:1009900088E1427F2ACA42CD4CCC4233B3E6427F43
:1009A000AAE542B408D9427F2AE5426666DB42B234
:1009B000DDEF42B25DD442B25DDC427FAAE5424E39
:1009C00022E7427FAAE5423333EF429A19D0420030
:1009D00080DB42E510E1421944D0423333C9421969
:1009E00044F5424CF7D5427F2ACC424EA2CC42007D
:1009F00000F1429A1908434EA2ED420000C542CDD3
:100A00004CC142CD4CFA428155E04281D5DE429A3A
:100A100099D54219C4DF424EA2E3420000EB427F67
:100A20002ADD429A19DA42B2DDC84200C002430010
:100A300080F0424EA2E5427F2ADF4233B3D842190A
:100A400044D642B25DD5420000DA429A19D4429AA5
:100A500019D7427F2AD742B408CD428155DD421BC7
:100A60006FE6424EA2D5427F2AFB421BEFEC42B218
:100A70005DEF42E7BBCA42CD4CF3428155CD42B453
:100A800088EF429A59044319C4D7427FAAE642B478
:100A900008DB424E22F6421944E142E73BC3424E94
:100AA000A2D8424C77D5424EA2D5424EA2D5421989
:100AB000C4D542E7BBD5424E22CF4233730C43B27A
:100AC0005DE3420080EF428155DD424C77E0420019
:100AD00000C542B408F9420080D3428155E542B2D4
:100AE000DDDD42E590D642CDCCE2427FAAD1428103
:100AF00055DB42B408E0421BEFF8426666DC424E2A
:100B000022F5423333E042CDCCDB42E73BC74233F0
:100B100033DD427F2AF3426666E84233B3D142199D
:100B200044BF42E590F84233B3E44219C4E3429A29
:100B300019E1421BEFCE427FAADD424CF7D8424E6C
:100B400022F7429A99C342CDCCDB427FAAD342B46A
:100B500008CF4281D5E0421BEFC34281D5F5426602
:100B600066E142CD4CC2421BEFF5424E22C84281A3
:100B7000D5CD42E7BBC542B25DC8421B6FE2429A87
:100B800099F542B408DF421B6FDC427FAADE421BAC
:100B90006FD8421BEFED427FAAEF421BEFEE4200FF
:100BA00080E14281D5ED4281D5CD42271106430037
:100BB00080E5427F2AEF427FAAE5427FAAF042D930
:100BC000EE00431944E8426666F442CD4CC54266E5
:100BD000E6D942E7BBF942B25DD242F45D0C43B4C0
:100BE00088D242E73BC04281D5E0420080CE42E756
:100BF000BBCD42E590CF4219C4E5421BEFC9429AF2
:100C000099DC42CD8C0743E73BE54281D5DF42B218
:100C1000DDDE428155EB42E73BDE427FAAC842B4AB
:100C200088C64266E6C842B488CE423333C942B26F
:100C3000DDE3420080D1424C77F042E7BBEF424C0B
:100C4000F7E2427F2AD4424E22EF429A99EF42E7DE
:100C50003BDF423333D4429A19C7426666E0428191
:100C600055EF421944C842CDCCE142E510DE4219AD
:100C700044C9428155DB424C77CA42E7BBDA429A0B
:100C800019C6421BEFCD42B25DEF420080E542E75C
:100C90003BEF4281D5D54266E6DE424EA2DA428182
:100CA000D5F1421B6FD042E590E8421B6FE242E76C
:100CB000BBDA427F2AE5424CF7D64281D5DD424C71
:100CC00077DA42B408DC42B2DDE1420000F64200CD
:100CD00080D442CD4CE6427FAAC742CDCCEF42330E
:100CE000B3DE420080CD420000F1427FAABE420046
:100CF00000DD42CD4CEA429A99DA421B6FE2420093
:100D000000E2420080DC42E7BBC94233B3CF42E598
:100D100010E9424CF7DC42E510F0428155D4425ACA
:100D2000040243E590C5424EA2C4421B6FE142005B
:100D300000C0423333D8423333E642B2DDD94200F9
:100D400080F0420000DF420000E4421944DA4233FE
:100D5000B3DC423333FF42E590F8429A99DD42CD4D
:100D60004CC942B408D7428D370343B408DE421958
:100D7000C4C442E590D7427FAAD5427FAADD42662D
:100D8000E6EA4281D5D74233B3E3421944D442194B
:100D9000C4CA421BEFEE420080E1427FAADD421945
:100DA00044E6424CF7FA42B2DDEE427FAAC14281EC
:100DB00055E6426666E8421944D542E590C7429A34
:100DC00099CF42E73BD74266E6D0424CF7EA42E78A
:100DD000BBEA428155C2421944EB42CDCCC5424CDC
:100DE00077D8421944C642CD4CDA426666DC42CD21
:100DF0004CCE421BEFE942CDCCFE427FAAF142CD60
:100E0000CCF9421B6FDF42A6BB04434E22E042CD29
:100E1000CCDF426666D742CDCCDC4281D5EE42B40F
:100E200088F042D9AE0A4381D5F04219C4EF42811D
:100E300055DC4281D5DD423333DD42CDCCDB42CDC2
:100E4000CCDC4200000000448BE8C0CDCC6CC03349
:100E50003307C19A9919C046B65BC09A9911C1006F
:100E60000020C0CDCC0C40CDCC4CC02B870CC1DFBA
:100E70004F15405839A4BFDD24AA4023DBADC0661E
:100E800066DEC0560EE1C09A99993EDF4F05C03329
:100E90003307C121B05AC077BEEBC0BA4954C0CDA8
:100EA000CCECC0560EB1C09A99C1C09A99F1C0D588
:100EB0007803C1AC1C22C0000080C0CDCC8CC02502
:100EC00006913F1058DDC077BEFBC0894184C02D1C
:100ED000B2DDBE1058ADC0BC74C7C06666C63FBAAE
:100EE0004974C01058C5C0426095BF3BDF05C1DFE3
:100EF0004F5540BC74A7408B6CB73F9A9901C1AA6B
:100F0000F1DEC03333D3C0CDCCE4C01058FDC04CAB
:100F100037893D560EF1C077BEDBC060E590BEEE6E
:100F20007C47C0448BB0C0F2D2DDBFCDCCE4C0F072
:100F3000A7EAC0DD24DAC0CDCCCCC0BC74F7C04475
:100F40008BC0C077BEDBC0BC74D7C054E35DC08922
:100F500041DCC066660AC1CDCCCCC06F1209C12B82
:100F60008708C1508D37BF0E2DE23F9A990DC1F011
:100F7000A7AAC0BA4964C0666636C0BC74E7C02B75
:100F80008708C13333F3C0B072083FAAF1E6C00E40
:100F90002DA23FF0A7CAC0CDCCC4C01058C5C044D4
:100FA0008BC8C0DD24CAC077BEC3C0DBF9CEBFB0DA
:100FB0007208BF08AC02C123DBB5C03333D3C09A7B
:100FC00099F1C066664640D57803C1F0A7BAC09AC9
:100FD0009981C03333F3C09A99C9C0A8C6FBBF9AA0
:100FE0009959C01058F5C0DD24FAC091ED16C11012
:100FF00058DDC0CDCC7CC0F0A7F2C00000E0BF79C6
:10100000E93E406666F6C0560E81C0871651C03371
:10101000339BC09A99A940508D373F666646C0DB26
:10102000F98EBF21B05AC0E92651BF9A99D9C0AAFA
:10103000F1DEC0666622C100006040AAF1F6C089F8
:1010400041CCC0BA4974C077BEE3C023DB8D409A5F
:101050009905C1F0A7FAC023DBA5404A0C223FFA4C
:101060007EAABE000050C0333363409A99193EC532
:101070002002C1333373BF8941F4C0AAF1EEC0CD61
:10108000CCF4C0F0A7DAC0AC1C62C0EE7C47C0CD87
:10109000CCA4C0BC74FFC046B62BC010588DC0B6DF
:1010A000F35DBF000040C00000A0C021B05AC0AC3A
:1010B0001C22C0871651C0F85309C13BDF09C1DFAC
:1010C0004F65406DE7BB3EF2D2BD3FBA4904C091C7
:1010D000ED06C177BEA3C089418440AAF1EEC0A845
:1010E000C6DBBFA8C6BBBF21B06AC017D96EBF336D
:1010F0003333BFF0A7F2C0333353C03BDF05C133F6
:1011000033F3C01058EDC033338340333303C1830E
:10111000C02ABF2506B13F17D96EBF448B80C0BE21
:101120009FAABF000010C079E93EC0EE7C47C066B0
:101130006666BFCDCCE4C01058CDC0448B98C04685
:10114000B67BC046B62BC0128308C09A99593FAAF5
:10115000F1F6C079E97EC04A0C22BF8941F4C00093
:1011600000D8C0CDCC4CBECDCCDCC09A99193FCDB7
:10117000CCDCC046B63B40AC1C72C0871671C03395
:101180003373C0000088C0F0A7CAC077BEFBC000A0
:10119000000000BE9FAABF46B65BC066660AC14497
:1011A0008BF8C08941ECC07D3F15BFF0A7D2C07756
:1011B000BEE3C01058EDC0AAF1F6C07D3F553F1008
:1011C000589DC03333CBC021B03AC000001040540A
:1011D000E33DC06666D6C0000000BFF85309C18970
:1011E00041BC40DD24EAC06666E6BECDCCAC3F2300
:1011F000DBE5C0BA4924C00000803E83C02ABF6638
:101200006636C066660AC1AAF1DEC0894184C0891B
:1012100041C4C09A99C9C00000E03F000030406658
:1012200066EEC01058AD403333EBC09A9901C14A05
:101230000C623F77BEA3C04C37893D6666F6C0BCE2
:1012400074DFC0AAF1F6C09A99D93F3BDF1DC16691
:1012500066F6C0CDCC4CBF560EE1C0CDCC4CBF2302
:10126000DBEDC087167140F0A7D2C023DBDDC010D4
:1012700058F5C02B8708C177BEDBC00000E0C0CDA9
:10128000CCECBFDF4F05C023DBA5C0BC74E7C05664
:101290000EF1C02B8708C1EE7C67401058ADC089A5
:1012A000419440EE7C07C04260F5BF23DBC5C079A6
:1012B000E93E40000070C0000030C083C06A3F9A21
:1012C0009909406666364000005040333353400071
:1012D000000040F0A7EAC0DF4F554077BEDBC0DD1D
:1012E00024EAC0D34DA2BECDCCCCBE6666E63F6636
:1012F00066863FBE9FCA3FCDCC00C18941B4C0CDF8
:10130000CCDCC06F1201C11058DDC08941E4C0C5FA
:10131000201AC166661AC19A9979C0BC748FC0330D
:10132000338BC03333FB40DD24FAC0AAF1FEC07713
:10133000BEEBC09A99F9C00000000A0B0C00000037
:10134000000000010405060000000000000000008D
:10135000000000000000000000000000000000008D
:10136000000000000000000000000000010204086E
:101370001020408001020408102040800810010263
:10138000040810204080010201020408102040805F
:1013900004804020100804020101020408102040CB
:1013A0008005050505050505050202020202020287
:1013B00002070704040404040404040707030303E6
:1013C00003030303030701010101010101010606F3
:1013D0000606060606060000390036003300300017
:1013E00021002000630000003B003800350032007F
:1013F00023006200650000003A003700340031002D
:10140000220061006400CB23E737A73B3E3C112458
:101410001FBECFEFD0E1DEBFCDBF12E0A0E0B1E054
:10142000E2E2FEE800E00BBF02C007900D92A0359B
:10143000B107D9F727E0A0E5B2E001C01D92AD3DAC
:10144000B207E1F71AE0C7E0DAE004C02197FE0135
:101450000E94BC44C330D107C9F70E94523E0C948D
:101460000F470C940000FB013196695F7F4F80E0CD
:1014700090E02191820F911DE617F707D1F7919522
:10148000819591090895DC011D96EC911D97E13439
:1014900009F475C09196EC9391971F968C911F97C4
:1014A00090E0982F882750962C915097820F911D8D
:1014B00093969C938E9392974E2F50E0FA01FA9751
:1014C000E631F10508F04DC0EA5BFF4F0C94BC44D7
:1014D0005E961C925E9785E03DC080FF05C05E96DB
:1014E0001C925E9789E036C081FF05C05E961C9213
:1014F0005E9784E02FC083709927892B09F441C03F
:101500005E961C925E978AE025C080FF05C05E96BD
:101510001C925E9787E01EC081FF33C05E961C92CE
:101520005E9782E017C080FF05C05E961C925E97B2
:1015300088E010C081FF25C05E961C925E9783E014
:1015400009C05E961C925E9786E004C05E961C926F
:101550005E978BE090968C93909781E094968C9315
:1015600008955E961C925E9781E090968C9390977A
:1015700093961C921E92929794968C93949795961C
:101580001C920895CF93DF93EC01BC01665F7F4FFF
:101590000E94330A298930E0322F22274A89240FFA
:1015A000311D41E02817390709F040E0842FDF9111
:1015B000CF9108950F931F93CF93DF93EC01888110
:1015C0009981DC01ED91FC910480F581E02D099574
:1015D000892B09F43FC060E070E0CB010E94DD3E42
:1015E0001E8D88819981DC01ED91FC910680F78147
:1015F000E02D111106C009958A878E3701F78E8D6F
:1016000026C00995FE01E10FF11D82878E8D823083
:1016100069F0893079F08130D1F49B859F3FB9F032
:101620001E8E81E088A31BA21AA231C09C85963031
:1016300071F0F6CF8B898F3E99F7CE010E94C20AD6
:10164000882371F31E8ECE010E94430A24C08F5F4F
:101650008E8FB5CF8DA18823F1F00E94AB3E0A8119
:101660001B812C813D81DC01CB01801B910BA20BE6
:10167000B30B0E811F812885398580179107A2073A
:10168000B30748F01E8E18A21BA21AA281E08CA3F9
:101690001DA280E001C08CA1DF91CF911F910F911D
:1016A0000895CF93DF93EC01888D882361F08DA19D
:1016B000882349F060E070E0CB010E94DD3ECE015E
:1016C0000E94DA0AF4CF88819981DC01ED91FC91C6
:1016D0000280F381E02D4AE050E0BE016C5E7F4F56
:1016E00009950E94AB3E6A837B838C839D83888DA2
:1016F00091E0811101C090E09DA3811108C06AE0D2
:1017000070E080E090E0DF91CF910C94DD3EDF91BE
:10171000CF910895CF93DF93EC016F8B598F4A8F50
:10172000BC016C5E7F4F0E94330A9B8F8C8FCE0171
:10173000DF91CF910C94510B40E050E00C948A0B58
:101740008F929F92AF92BF92CF92DF92EF92FF92D1
:101750001F93CF93DF93EC016A017B010E94AB3EA4
:101760004B015C01C114D104E104F10421F4CE80E9
:10177000DF80E884F984CE010E94DA0A182F8111F3
:1017800013C00E94AB3EDC01CB0188199909AA095C
:10179000BB09C816D906EA06FB0630F060E070E027
:1017A000CB010E94DD3EE7CF812FDF91CF911F91CA
:1017B000FF90EF90DF90CF90BF90AF909F908F9071
:1017C0000895AB0163E00C948A0B462F50E066E06D
:1017D0000C948A0B6CE00C949C0B1F93CF93DF93BB
:1017E000EC01142F79836883442319F081E0888FFA
:1017F00001C0188E222389F0CE010E94EA0B40ED31
:1018000057E060E070E0CE010E94A00B68EC70E051
:1018100080E090E00E94DD3E02C084E088A31CA22C
:1018200088A1843029F0893019F081E0812701C036
:1018300081E0DF91CF911F91089566E10C949C0B9C
:1018400068E10C949C0BFC01E05FFD4F408120E4BB
:10185000429FA00111246FEF70E0FC018081918113
:101860000C94E346CF93DF93EC01660FFC01E25F3B
:10187000FD4F608331964083649F802D1124319603
:10188000808390E031969C0144E0220F331F4A95FB
:10189000E1F73183208332969C0155E0220F331FFC
:1018A0005A95E1F73183208332969C01220F331F32
:1018B000220F331FA901440F551F240F351F220F7C
:1018C000331F220F331F31832083B6E0880F991F07
:1018D000BA95E1F70E94D4449983888361E08CE152
:1018E0000E94733F61E08DE10E94733F61E08EE1F1
:1018F0000E94733F61E08FE10E94733F61E088E0E6
:101900000E94733F61E082E20E94733F61E08AE2DD
:101910000E94733F61E08FE00E94733FCE010E94FE
:10192000230CFE01E95EFD4F1082DF91CF910895F7
:101930000F93FC01DC01A25FBD4F3C91A0E23A9FF6
:10194000C00111246817790708F087C0DF01A15F83
:10195000BD4F8C91A0E18A9FC001112448175907FF
:1019600008F07BC0CB018F719927DA01B295A2955F
:10197000AF70AB27BF70AB27B5E076956795BA958A
:10198000E1F73A9F600D112430E2639F800D911DB5
:101990001124DF01A05FBD4F6C91A4E06A9FB001EC
:1019A00011244F705527649FD001659FB00D749F1F
:1019B000B00D1124AC0133E0569547953A95E1F707
:1019C0004A0F5B1F87709927DC01A75CBE4F9C9173
:1019D0002230E1F028F4222341F0213071F03DC0A3
:1019E000233019F1243061F138C00190F081E02DED
:1019F000E40FF51F013041F41FC00190F081E02D8C
:101A0000E40FF51F0023C1F0808125C0013029F5C6
:101A10000190F081E02DE40FF51F8081292F28230C
:101A2000D1F090958923808318C00130B1F40190E2
:101A3000F081E02DE40FF51F9095808198230CC074
:101A4000013059F40190F081E02DE40FF51F808101
:101A5000292F282311F4982B90830F910895611159
:101A60000C94230CFC01E05FFD4F408120E4429F79
:101A7000A001112460E070E0FC01808191810C9450
:101A8000E3462F923F924F925F926F927F928F9296
:101A90009F92AF92BF92CF92DF92EF92FF920F93FD
:101AA0001F93CF93DF9300D000D000D0CDB7DEB727
:101AB0004C016B015A01290118011E2D7101E41A14
:101AC000F50AC901861B970B9E838D83F7FE06C01E
:101AD000F194E194F1088FEF9FEF02C081E090E074
:101AE0009C838B838D819E8197FF08C09195819502
:101AF00091099E838D838FEF9FEF02C081E090E07C
:101B00009A838983EE0CFF1C8D819E81880F991F1B
:101B10009E838D8301E0212FA501B601C4010E949F
:101B2000980C8D819E81E816F90604F595958795A8
:101B30003701681A790AC414D504D1F177FC08C0BA
:101B40008B819C81A80EB91E8D819E81681A790AAD
:101B500089819A81C80ED91E6E0C7F1C01E0212F4D
:101B6000A501B601C4010E94980CE5CFC701959567
:101B700087956D807E80681A790AA214B304C1F03B
:101B800077FC06C089819A81C80ED91E6E187F081D
:101B90008B819C81A80EB91E8D819E81680E791E55
:101BA00001E0212FA501B601C4010E94980CE5CFE8
:101BB00026960FB6F894DEBF0FBECDBFDF91CF9152
:101BC0001F910F91FF90EF90DF90CF90BF90AF905B
:101BD0009F908F907F906F905F904F903F902F904D
:101BE00008956F927F928F929F92AF92BF92CF9201
:101BF000DF92EF92FF920F931F93CF93DF936C01CD
:101C0000EB015A0139014801FE2C6C167D0654F097
:101C1000EF2C84019E01A501BE01C6010E94410D69
:101C20002196F3CFDF91CF911F910F91FF90EF900D
:101C3000DF90CF90BF90AF909F908F907F906F90EC
:101C4000089588E067FF02C0DA9801C0DA9A660F4B
:101C5000611DC09AC0988150A9F70895AF92BF92B4
:101C6000CF92DF92EF92FF920F931F93CF93DF9368
:101C70007C01FC01E05FFD4FA08084E0A89E500144
:101C80001124E701C95EDD4F88818A9D60018B9D2B
:101C9000D00C112400E010E00A151B0571F0D701EB
:101CA000ED91FC91E00FF11FEC0DFD1D6081C7016E
:101CB0000E94210E0F5F1F4FEFCFC79AAE9AAE98CA
:101CC000E8818E2F90E08031910508F065C0FC011D
:101CD000E45AFF4F0C94BC44AB98AA98A998A898D2
:101CE00081E005C0AB98AA98A998A89A82E0888359
:101CF00053C0AB98AA98A99AA89883E0F8CFAB985C
:101D0000AA98A99AA89A84E0F2CFAB98AA9AA9981F
:101D1000A89885E0ECCFAB98AA9AA998A89A86E0F3
:101D2000E6CFAB98AA9AA99AA89887E0E0CFAB989B
:101D3000AA9AA99AA89A88E0DACFAB9AAA98A99801
:101D4000A89889E0D4CFAB9AAA98A998A89A8AE0D3
:101D5000CECFAB9AAA98A99AA8988BE0C8CFAB9A95
:101D6000AA98A99AA89A8CE0C2CFAB9AAA9AA998E5
:101D7000A8988DE0BCCFAB9AAA9AA998A89A8EE0B1
:101D8000B6CFAB9AAA9AA99AA8988FE0B0CFAB9A8F
:101D9000AA9AA99AA89A1882C798DF91CF911F9101
:101DA0000F91FF90EF90DF90CF90BF90AF9008958C
:101DB000845F9D4FFC01718360830895603209F454
:101DC0006EE6FC01E45FFD4F80819181FC01349659
:101DD0004491319624916417A0F0E62FF0E030E0B2
:101DE000240F311DE217F30764F4641BFC012491F6
:101DF00021110AC03196E491E11106C0FC0132962E
:101E000008C080E090E00895E62FF0E03696E80FF5
:101E1000F91FE4918E2F90E008952F923F924F92F8
:101E20005F926F927F928F929F92AF92BF92CF926A
:101E3000DF92EF92FF920F931F93CF93DF93CDB773
:101E4000DEB764970FB6F894DEBF0FBECDBFFC01BE
:101E5000E25FFD4FE08130E2E39FF0011124E617DD
:101E6000F7070CF409C1FC01E15FFD4FE081A0E13F
:101E7000EA9FF0011124E417F5070CF402C10C8766
:101E80004A015B016C01FC01E45FFD4FFF83EE83BF
:101E900080819181FC013396349139832032B1F4F1
:101EA00060E2C6010E94DE0E3C0184014981040FFC
:101EB000111D9501280F391FEE24E394A401B501EB
:101EC000C6010E94F10D7C8A6B8AF6C0FC01349633
:101ED00034913196E491231708F4D8C0422F50E092
:101EE0006E2F70E0DB01A30FB11D4A175B070CF0EA
:101EF000CDC0A9812A2E312CA101495F5F4FE3E0BB
:101F000055954795EA95E1F7231BFC013491311172
:101F100005C03196E491EE2309F4BBC0FC0136966E
:101F200010E0A0E0B0E0121731F03491A30FB11D22
:101F30001F5F3196F8CF4A9F90014B9F300D5A9FFB
:101F4000300D11246A5F7F4FDB01A20FB31FBC83EA
:101F5000AB83E12FF0E03696E80FF91F1491E12FE3
:101F6000F0E0FC8BEB8BCF01919581959109A81640
:101F7000B9060CF4A1C088279927821993098816FD
:101F800099060CF499C04D83412C9A0121503109D6
:101F90003A8B298BC10108979B878A87141509F40E
:101FA0008BC05D805A94842D90E0AB81BC81A80FDA
:101FB000B91FB88BAF87FC01EA0DFB1DF987E887D5
:101FC000FDEFF51508F456C0AE81BF81ED91FC918F
:101FD0008F859889159D800D911D1124E80FF91F9B
:101FE000E491852D90E09C0143E0220F331F4A9538
:101FF000E1F73A832983A989BA898A179B0731F4C3
:10200000BD81B23018F09A858B8502C099818A8192
:10201000692E782EE12CF12C2E2F30E03E872D8773
:10202000A981BA816A167B06CCF026143704B4F075
:10203000ED85FE850E2C02C0F595E7950A94E2F732
:10204000A401460D571DE0FF02C001E001C000E001
:102050002C8568857985C6010E94980CFFEFEF1AE0
:10206000FF0A2FEF621A720A38E0E316F104C1F694
:102070005A94A6CF439492CF8FEF9FEF9C8B8B8B7C
:102080001BC0AFEFBFEFBC8BAB8B16C01C8A1B8A8B
:1020900013C0FC0132961491249FC001259F900D1E
:1020A0001124189FF001199FF00D11249F012A5F40
:1020B0003F4F3C832B8353CF8B899C8964960FB60B
:1020C000F894DEBF0FBECDBFDF91CF911F910F916E
:1020D000FF90EF90DF90CF90BF90AF909F908F9048
:1020E0007F906F905F904F903F902F9008952F9228
:1020F0003F924F925F926F927F928F929F92AF9298
:10210000BF92CF92DF92EF92FF920F931F93CF93E4
:10211000DF93CDB7DEB728970FB6F894DEBF0FBEBA
:10212000CDBFDC01A25FBD4FBA83A983EC91B0E2C1
:10213000EB9FF00111246E177F070CF073C0FC01B8
:10214000E15FFD4FFC83EB83E081A0E1EA9FF001BA
:1021500011244E175F070CF065C0FC01E45FFD4FD2
:102160000190F081E02D3396E4913A016E0E711CDE
:1021700077FC58C0FE2C1E830D83190158874F83AE
:102180005B016C0161507109EE24E39483019B01B2
:102190000E94410D2101812C912CC20182199309C9
:1021A000ED81FE818E179F07ECF5D2012D912D0157
:1021B0000F2D4F815885B501680D791DC6010E940C
:1021C0000D0F1816190694F4880E991EB501680DA6
:1021D000791DEE24E39483019B014F815885C6014C
:1021E0000E94410DBFEF8B1A9B0A02C0892BD1F4CC
:1021F000E981FA818081F0E28F9FC001112495016D
:10220000280D391D281739076CF4AB81BC818C91DE
:10221000B0E18B9FC0011124EF81F885E817F90721
:102220000CF4BBCF28960FB6F894DEBF0FBECDBF1F
:10223000DF91CF911F910F91FF90EF90DF90CF90A2
:10224000BF90AF909F908F907F906F905F904F90D6
:102250003F902F9008952F923F924F925F926F92EE
:102260007F928F929F92AF92BF92CF92DF92EF9226
:10227000FF920F931F93CF93DF93EC015B016A01F1
:10228000290138014C018CEF881A8DEF980AD4018E
:102290001D921C928E010E5F1F4F7B01302E212E4E
:1022A000C7018A199B098C159D05A4F4F701D70174
:1022B0008D917D01D8018D938D016081CE010E94A9
:1022C000DE0E0196F40120813181820F931F9183EC
:1022D0008083E6CFFE01E45FFD4F0190F081E02DA9
:1022E0003396E491DE01AA5FBD4FF0E0ED93FC93DD
:1022F000FE01EC0DFD1D1282FE01E65FFD4F7182B5
:1023000060823297518240823697D182C082E12C1E
:102310008601232D322DA301B201CE010E94771038
:10232000DF91CF911F910F91FF90EF90DF90CF90B1
:10233000BF90AF909F908F907F906F905F904F90E5
:102340003F902F9008954F925F927F928F929F922D
:10235000AF92BF92CF92DF92EF92FF920F931F93B3
:10236000CF93DF93EC015B014A016C0128EFC21AA5
:102370002DEFD20AD6018D919C911197860F971F50
:102380008D939C937E01B6EFEB1ABDEFFB0AF7012C
:1023900020813181240F351F31832083369720819E
:1023A00031813195219531098E01025F1D4FD80190
:1023B000821793074CF48C91B0E28B9FC0011124DB
:1023C000F601918380830BC04C91B0E24B9FA0013A
:1023D0001124481759074CF4F60131832083CE01AC
:1023E0000E94230C7724739401C0712CD7014D9166
:1023F0005C91FE01EA5FFD4F80819181919581950D
:1024000091093996481759074CF48081B0E18B9FA8
:10241000C0011124F701918380830BC02081F0E17A
:102420002F9F900111242417350744F4D7018D9371
:102430009C93CE010E94230C77247394892809F081
:10244000CEC0BFEFAB16BB0609F06BC020E030E09A
:102450005E01E0EFAE1AEDEFBE0AD5018C91B0E45B
:102460008B9FC00111242817390724F5D801EC915E
:10247000B4E0EB9FF0011124C901BF010E94864422
:10248000AF0141505109E881F981E20FF31F841730
:10249000950721F48081880F8F5F08C08181982F74
:1024A000991F9927991F8081880F890F80832F5F3B
:1024B0003F4FD3CFF601A080B1804E01F2E08F0EE6
:1024C000911CC12CD12C2E0122E0420E521ED201B1
:1024D0008D919C91C816D9060CF093C0F4016191BE
:1024E0004F01CE010E94DE0ED8012C91A501480FAC
:1024F000591FB0E22B9F900111244217530754F04B
:10250000FE01EC0DFD1DD7014D915C9100E0228193
:10251000B5015BC00196A80EB91EBFEFCB1ADB0A4E
:10252000D6CFAA94AB2809F05AC0FE01E05FFD4F58
:102530002081F0E42F9F9001112421503109F0F007
:10254000D8016C91B4E06B9FB0011124C9010E94C5
:102550008644E881F981E20FF31F892B21F4808101
:102560008695805809C0DF0111979C9180818695DE
:1025700040E8949F800D11248083DFCFD601CD9059
:10258000DC905E01B2E0AB0EB11C00E010E04E0149
:10259000E2E08E0E9E1ED4018D919C9108171907C2
:1025A00084F5F50161915F01CE010E94DE0E960176
:1025B000280F391F37FD0DC0FE01E00FF11FD701B5
:1025C0004D915C9100E02281B601CE010E940D0F79
:1025D00018C00196C80ED91E0F5F1F4FDCCFFE0139
:1025E000EE5FFD4F008111819E012E5F3F4FF7018D
:1025F00040815181D6016D917C91E12CCE010E94E8
:102600007710872DDF91CF911F910F91FF90EF9061
:10261000DF90CF90BF90AF909F908F907F905F9012
:102620004F900895CF92DF92EF92FF926B017C0161
:1026300020E030E044EB53E40E941D410E9402423E
:1026400020E030E044EB53E40E9476439B01AC0170
:10265000C701B6010E9419406B017C0120E030E007
:10266000A9010E94134187FF0AC020E030E044EB3B
:1026700053E4C701B6010E941A406B017C01C701F7
:10268000B601FF90EF90DF90CF900895CF92DF9248
:10269000EF92FF926B017C0120E030E040EC51E4CE
:1026A0000E941D410E94024220E030E040EC51E4D3
:1026B0000E9476439B01AC01C701B6010E941940FC
:1026C0006B017C0120E030E0A9010E94134187FFEB
:1026D0000AC020E030E040EC51E4C701B6010E949E
:1026E0001A406B017C01C701B601FF90EF90DF90AB
:1026F000CF9008952BED3FE049E450E40E947643EB
:1027000020E030E044E353E40E941D410C94E34395
:102710002F923F924F925F926F927F928F929F92F1
:10272000AF92BF92CF92DF92EF92FF920F931F93DF
:10273000CF93DF938C01EB011A01633071051CF418
:10274000015011092C96B801012E000C880B990B31
:102750000E94C74120E030E048EC52E40E941D4155
:102760000E9402426B017C0120E030E040E85EE321
:102770000E9476430E9402424B015C01B8016459F9
:102780007D4E072E000C880B990B0E94C74120E05C
:1027900030EA46EB53E40E9476430E9402422B014A
:1027A0003C012196BE01DD0F880B990B0E94C741A9
:1027B00021E03DEC44EF51E40E9476430E94024246
:1027C0009B01AC01C301B2010E941A402B013C01E4
:1027D000B101330C880B990B0E94C7419B01AC01DE
:1027E000C301B2010E941A402B013C01A7019601CE
:1027F00060E070E080E090E40E941940A50194013F
:102800000E941A409B01AC01C301B2010E941A4010
:1028100020E030E94EEB54E40E941940DF91CF9163
:102820001F910F91FF90EF90DF90CF90BF90AF90EE
:102830009F908F907F906F905F904F903F902F90E0
:1028400008954F925F926F927F928F929F92AF9274
:10285000BF92CF92DF92EF92FF92CF93DF93CDB7EB
:10286000DEB760970FB6F894DEBF0FBECDBF24E68B
:1028700031EA45E15AE40E9419406B017C012DE4E4
:1028800030E54CE75FE30E94764326EB33EC42EB06
:1028900053E40E941A400E9412134B015C0123E68C
:1028A00033E54CE75FE3C701B6010E94764321ECB4
:1028B0003AE34CE853E40E941A400E9412136D87D9
:1028C0007E878F87988BC501B4010E947A1328EB0D
:1028D0003EE145EF5FE30E9476432D853E854F85BF
:1028E00058890E941A402B013C01A5019401C501A1
:1028F000B4010E941A400E947A132AE037ED43EA9D
:102900005CE30E947643A30192010E941A400E9458
:1029100012132B013C0126E036E441EC54E3C701DD
:10292000B6010E9476439B01AC0162E173E88BEB38
:1029300091E40E9419404B015C010E947A1369875F
:102940007A878B879C87C301B2010E947A136B013F
:102950007C019B01AC0169857A858B859C850E94F1
:1029600076430E94864069877A878B879C872BED08
:102970003FE049E450E4C301B2010E94764320E005
:1029800030E044E353E40E941D410E9418412B01B2
:102990003C012BED3FE049E450E4C501B4010E9445
:1029A000764320E030E044E353E40E941D410E945E
:1029B00018419B01AC01C701B6010E947643A301F7
:1029C00092010E94B44020E030E044E353E40E94CE
:1029D00076432BED3FE049E450E40E941D4120E0A6
:1029E00030E040E751E40E941D410E9446134B0134
:1029F0005C0120E030E044E353E469857A858B850F
:102A00009C850E9476432BED3FE049E450E40E9410
:102A10001D41F62EAB01BC0149835A836B837C8335
:102A200020E030E040E751E46D857E858F85988910
:102A30000E941D41A50194010E941940E62F462FD6
:102A4000572FBC014D835E836F8378872F2D3A818A
:102A50004B815C816E2F7E818F81988560960FB649
:102A6000F894DEBF0FBECDBFDF91CF91FF90EF9006
:102A7000DF90CF90BF90AF909F908F907F906F909E
:102A80005F904F9008959093570280935602089557
:102A900090935502809354020895CF93DF93CDB75E
:102AA000DEB728970FB6F894DEBF0FBECDBF0E94E9
:102AB000211429833A834B835C8369817A818B81DA
:102AC0009C8128960FB6F894DEBF0FBECDBFDF9174
:102AD000CF910895CF93DF93CDB7DEB728970FB688
:102AE000F894DEBF0FBECDBF0E9421146D837E839C
:102AF0008F8398876D817E818F81988528960FB608
:102B0000F894DEBF0FBECDBFDF91CF910895209125
:102B1000BC023091BD024091BE025091BF020E94A2
:102B20001A400E946A159B01AC0160E070E080E4ED
:102B300091E40E9419400C9446134F925F926F9259
:102B40007F928F929F92AF92BF92CF92DF92EF923D
:102B5000FF92CF93DF93CDB7DEB764970FB6F894AB
:102B6000DEBF0FBECDBF4B015C0169017A01209130
:102B7000BC023091BD024091BE025091BF02C7011C
:102B8000B6010E941A400E944D152B013C01C7015D
:102B9000B6010E94871569837A838B839C83C50164
:102BA000B4010E947A136D837E838F839887C3015B
:102BB000B2010E947A1369877A878B879C87C090BD
:102BC000C802D090C902E090CA02F090CB02C701BF
:102BD000B6010E947A136D877E878F87988B2BEDC5
:102BE0003FE049E450E4C301B2010E94764320E093
:102BF00030E044E353E40E941D410E941841698B78
:102C00007A8B8B8B9C8B2BED3FE049E450E4C70122
:102C1000B6010E94764320E030E044E353E40E9492
:102C20001D410E9418412B013C01CD80DE80EF80C8
:102C3000F884F7FAF094F7F8F0942D853E854F85E7
:102C4000588969857A858B859C850E9476439B018E
:102C5000AC01C701B6010E9419406B017C012989B2
:102C60003A894B895C89C301B2010E9476439B017A
:102C7000AC01C701B6010E941D410E94084020E03E
:102C800030E044E353E40E9476432BED3FE049E417
:102C900050E40E941D4129E838E848E85DE30E94BD
:102CA00076436B017C0120E030E044EB52E4C50147
:102CB000B4010E946943181624F4C701B601905864
:102CC00002C0C701B60129813A814B815C810E9413
:102CD0001A4064960FB6F894DEBF0FBECDBFDF91E9
:102CE000CF91FF90EF90DF90CF90BF90AF909F90EB
:102CF0008F907F906F905F904F9008958F929F92EA
:102D0000AF92BF92CF92DF92EF92FF92CF93DF9379
:102D1000EC016A017B012091BC023091BD0240911F
:102D2000BE025091BF02C701B6010E941A400E9424
:102D30004D159B01AC016091C8027091C902809150
:102D4000CA029091CB020E9419409F772BED3FE081
:102D500049E450E40E94764320E030E044E353E449
:102D60000E941D410E9435444B015C01BE01DD0FF4
:102D7000880B990B0E94C741A50194010E941A403B
:102D80009B01AC0160E070E080E89FE30E941D4180
:102D90000E94E44020E030E044E353E40E947643A4
:102DA0002BED3FE049E450E40E941D419058A701FB
:102DB0009601DF91CF91FF90EF90DF90CF90BF9081
:102DC000AF909F908F900C949D152091540230915C
:102DD00055022230310551F02330310561F02130A8
:102DE000310581F060E070E0CB01089565E279E49F
:102DF00082E19EE3089520E030E040E752E40E9443
:102E00001D41089560E070E080E09FE308954F92D7
:102E10005F926F927F928F929F92AF92BF92CF926A
:102E2000DF92EF92FF920F931F93CF93DF93CDB773
:102E3000DEB72A970FB6F894DEBF0FBECDBF9A87D4
:102E40008987DC0114968D909D90AD90BC9017976A
:102E500050968D919D910D90BC91A02D89839A8360
:102E6000AB83BC839C01AD01C501B4010E94194034
:102E70000E9446136B017C01009158021091590287
:102E80008EE0809FF001819FF00D1124E65AFD4FE6
:102E900060817181828193810E94E516A70196016C
:102EA0000E9476436D837E838F839887E985FA85B8
:102EB0004080518062807380A3019201C301B201FE
:102EC0000E945A4481118EC0A3019201C501B40130
:102ED0000E9419400E9446139B01AC016D817E81C6
:102EE0008F8198850E94134187FD7CC08EE0809F72
:102EF000F001819FF00D1124E65AFD4F818581116B
:102F000005C0628573858485958504C060E070E0A6
:102F100080E991E40E94E516A70196010E9476439C
:102F20002B013C01A985BA8558968D909D90AD9056
:102F3000BC905B97A5019401C501B4010E945A445D
:102F4000811160C029813A814B815C81C501B40146
:102F50000E9419400E944613A30192010E946943F6
:102F600018160CF44FC08EE0809FF001819FF00D89
:102F70001124E65AFD4F8481811105C06581768157
:102F80008781908504C060E070E080E890E40E9452
:102F9000E5169B01AC01C701B6010E9476434B01C7
:102FA0005C01E985FA85C488D588E688F788A70199
:102FB0009601C701B6010E945A44811132C029818D
:102FC0003A814B815C81C701B6010E9419400E9481
:102FD00046139B01AC01C501B4010E94134187FD5A
:102FE00020C02FC02D813E814F815885C501B4017D
:102FF0000E941940A985BA856D937D938D939C930A
:10300000139774CFA301920169817A818B819C818E
:103010000E941A40E985FA85608F718F828F938FA5
:10302000A2CFA501940169817A818B819C810E9444
:103030001A40A985BA8554966D937D938D939C9380
:1030400057972A960FB6F894DEBF0FBECDBFDF911B
:10305000CF911F910F91FF90EF90DF90CF90BF9095
:10306000AF909F908F907F906F905F904F9008955A
:10307000EF92FF920F931F93CF93DF93EC018C019C
:103080007C018CE1E80EF11C20E030E040E751E4E7
:103090006091C4027091C5028091C6029091C702EE
:1030A0000E941D419B01AC016091C0027091C10260
:1030B0008091C2029091C3020E9419409B01AC0111
:1030C000F80160817181828193810E941A40F80128
:1030D00061937193819391938F01EE16FF06A1F690
:1030E00020E030E040E752E46091500270915102DC
:1030F00080915202909153020E941D419B01AC01AC
:10310000688579858A859B850E941A4068877987BA
:103110008A879B8700915802109159028EE0809F08
:10312000F001819FF00D1124E65AFD4F8481882320
:10313000A1F020E030E040E752E4658176818781AC
:1031400090850E941D41288939894A895B890E949E
:103150001A406C8B7D8B8E8B9F8B8EE0809FF00155
:10316000819FF00D1124E65AFD4F81858823A1F03F
:1031700020E030E040E752E46285738584859585E0
:103180000E941D412C893D894E895F890E941A4009
:10319000688F798F8A8F9B8F80915402909155020E
:1031A000892B49F0CE01DF91CF911F910F91FF90B4
:1031B000EF900C940717DF91CF911F910F91FF9023
:1031C000EF9008950F931F93CF93DF93EC018C0141
:1031D000045E1F4F20E030E040EC51E468817981CB
:1031E0008A819B810E941D41699379938993999368
:1031F000C017D10779F7DF91CF911F910F910895F3
:10320000CF92DF92EF92FF921F93CF93DF93EC0167
:103210000E94E218C880D980EA80FB808091580221
:10322000909159021EE0189FF001199FF00D112492
:10323000E65AFD4F208131814281538160E070E088
:1032400084E393E40E941940A70196010E949D1512
:10325000688379838A839B832C813D814E815F8142
:1032600061EC7AE283E393E40E949D156C837D8395
:103270008E839F83688579858A859B850E948715C3
:10328000688779878A879B874C855D856E857F8572
:10329000809156029091570201960E947E166C878B
:1032A0007D878E879F87288939894A895B896DE761
:1032B0007FE385E59FE30E949D15688B798B8A8B60
:1032C0009B8B2C893D894E895F8980915802909112
:1032D0005902189FF001199FF00D1124E65AFD4F75
:1032E00065817681878190850E949D156C8B7D8B91
:1032F0008E8B9F8B288D398D4A8D5B8D80915802E6
:1033000090915902189FF001199FF00D1124E65A6F
:10331000FD4F62857385848595850E949D15688F14
:10332000798F8A8F9B8FDF91CF911F91FF90EF90C4
:10333000DF90CF9008950F931F93CF93DF93CDB776
:10334000DEB76C970FB6F894DEBF0FBECDBF182F57
:10335000092F8CE1E7E0F1E0DE01119601900D927A
:103360008A95E1F7FE013196A12FB92FCE014D9636
:1033700041915191619171914D935D936D937D93C5
:10338000E817F907A9F7812F902F0E940019812FC4
:10339000902F6C960FB6F894DEBF0FBECDBFDF91B5
:1033A000CF911F910F910C9438182F923F924F920A
:1033B0005F926F927F928F929F92AF92BF92CF92C5
:1033C000DF92EF92FF920F931F93CF93DF93CDB7CE
:1033D000DEB72D883E880093C8021093C90220935F
:1033E000CA023093CB02C092C402D092C502E092CE
:1033F000C602F092C7028092C0029092C102A092CF
:10340000C202B092C3020E9488132B013C0120E04B
:1034100030E044EB53E4C701B6010E941D419B011B
:10342000AC01C301B2010E9419406093BC027093C9
:10343000BD028093BE029093BF02C101DF91CF9184
:103440001F910F91FF90EF90DF90CF90BF90AF90C2
:103450009F908F907F906F905F904F903F902F90B4
:103460000C949B199093590280935802089560938D
:10347000AE027093AF028093B0029093B10286E0E7
:1034800090E0909359028093580208951092B702E9
:103490006093B8027093B9028093BA029093BB0212
:1034A00086E090E090935902809358020895CF925D
:1034B000DF92EF92FF920F931F93CF93DF938A01D6
:1034C000E90129E838E848E05CE30E941A400E94DC
:1034D00046136B017C010E9402420E948F41F80159
:1034E00071836083072E000C880B990B0E94C741E3
:1034F0009B01AC01C701B6010E94194020E030E0F9
:1035000040E752E40E9476430E9402420E948F41AB
:1035100079836883DF91CF911F910F91FF90EF9096
:10352000DF90CF900895833069F48FEF80937E050C
:1035300080937F0597E99093800591E490938105AE
:1035400091E33AC0843099F48FEF80937E0595E142
:1035500090937F0591E49093800597E8909381057F
:103560009DE8909382059DEE90938305CAC18530B6
:10357000A1F48FEF80937E0591EE90937F0591EA01
:103580009093800597E8909381059DE8909382053C
:1035900091E49093830593E3C9C1863089F48FEF5A
:1035A00080937E0599E190937F0591E49093800547
:1035B00091E39093810593E39093820591EA23C16F
:1035C000883099F48FEF80937E0591E490937F0586
:1035D00023EB209380059093810597E990938205D2
:1035E00097E8909383059DE8A1C1893071F48FEF2E
:1035F00080937E0580937F058093800591E890936A
:10360000810595E890938205EAC08A3071F48FEFC6
:1036100080937E0580937F058093800591E8909349
:10362000810597E190938205EEC08B30A1F48FEF76
:1036300080937E059DEE90937F0597E8909380059B
:103640009DE89093810599E19093820599E290938A
:10365000830591E46BC18C3091F48FEF80937E05EC
:1036600080937F0599E19093800591EA909381057D
:1036700021E3209382059093830595E357C18D3014
:1036800061F48FEF80937E0580937F0591E69093A0
:10369000800591EA909381050DC08E3091F48FEFF3
:1036A00080937E0580937F0591E49093800529E1C6
:1036B0002093810525E3209382059093830597E964
:1036C00035C18F30B9F487E880937E058DE880930B
:1036D0007F0581E48093800589E08093810585E3FF
:1036E0008093820587E9809383058DEE809384051E
:1036F00081E336C1803169F48FEF80937E0580933A
:103700007F059DEE9093800599E19093810599E264
:1037100077C08131A1F48FEF80937E0599E190937A
:103720007F0593E39093800591E49093810595E85C
:103730009093820591E39093830599E2F7C08231DB
:10374000B9F48FEF80937E058DEE80937F058DE039
:103750008093800581E88093810587E880938205C6
:103760008DE88093830581E48093840585E3F8C028
:10377000843199F483E380937E0581E480937F050F
:1037800097E8909380059DE89093810591E390934D
:1037900082058093830585E3E0C0853199F48093A9
:1037A0007E0581EA80937F0587E98093800581E427
:1037B0008093810585E88093820589E08093830565
:1037C0008FEF23C08A3A71F48FEF80937E05809348
:1037D0007F05809380058093810580938205809387
:1037E000830513C08631A1F48FEF80937E0580930B
:1037F0007F0595E19093800591E89093810593E38F
:103800009093820591E49093830580938405A8C0EA
:103810008731A9F48FEF80937E0591EE90937F0519
:1038200081E48093800521E62093810521EB20939C
:103830008205909383058093840583EB91C0883142
:1038400091F48FEF80937E0593E390937F0527E9B2
:10385000209380059093810593EB9093820580934C
:1038600083059DEE63C0893191F48FEF80937E05CF
:1038700093E390937F0527E920938005909381053A
:1038800093EB909382058093830593E44FC08A3134
:1038900091F48FEF80937E0593E390937F0527E962
:1038A000209380059093810593EB909382058093FC
:1038B000830599E43BC08B3191F48FEF80937E05B3
:1038C00093E390937F0527E92093800590938105EA
:1038D00093EB90938205809383059DE227C08C3102
:1038E00091F48FEF80937E0593E390937F0527E912
:1038F000209380059093810593EB909382058093AC
:10390000830599E113C08D31A1F48FEF80937E057B
:1039100093E390937F0527E9209380059093810599
:1039200093EB909382058093830591E190938405B6
:1039300017C08E31B9F485E180937E0585E38093CD
:103940007F0591EA9093800593E39093810591E33D
:103950009093820591E490938305809384058FEF83
:103960008093850508950F931F93CF93DF9306ED02
:1039700012E0C0E0D0E0CE010E94FA46F801819347
:103980008F012196C634D105B1F786ED92E0DF9123
:10399000CF911F910F910895FF920F931F93CF9393
:1039A000DF9306ED12E0C0E0D0E0F801F1908F0166
:1039B000CE010E94FA46F81621F06F2DCE010E942A
:1039C00002472196C634D10581F786ED92E0DF915A
:1039D000CF911F910F91FF9008950F931F93CF9355
:1039E000DF93CDB7DEB72C970FB6F894DEBF0FBECE
:1039F000CDBF182F062F8CE0E3E2F1E0DE01119637
:103A000001900D928A95E1F781E090E0633010F02B
:103A100080E090E09A01281B390BC90137FD03961D
:103A20009595879595958795FC01E20FF31FC90140
:103A30006CE97FEF0E948644E60FF71FC90160E939
:103A400071E00E948644CF01860F971FFE01E00FB0
:103A5000F11D2081820F911D810F911D67E070E0A3
:103A60000E948644811101C087E090E02C960FB639
:103A7000F894DEBF0FBECDBFDF91CF911F910F91A4
:103A80000895982F92959F708F702AE0929F800DD5
:103A9000112408956AE00E94664420E1829F900DFF
:103AA0001124892F08951A9A64E670E080E090E06E
:103AB0000E94DD3E1A988DE20E94DE3F892B39F488
:103AC00066E970E080E090E00E94DD3EF4CF08956A
:103AD00090E0FC013897E730F10508F086C0E45922
:103AE000FF4F0C94BC448CE00E94931A8CE090E051
:103AF0002FEF30EF380F343020F0FC01E658FA4F4A
:103B00002083019684329105A1F708958DE00E94EB
:103B1000931A8CE090E02FEF3CEE380F343020F019
:103B2000FC01E658FA4F2083019684329105A1F7F3
:103B300008958EE00E94931A8CE090E02FEF38EE0B
:103B4000380F343020F0FC01E658FA4F20830196FC
:103B500084329105A1F708958FE00E94931A8CE0BA
:103B600090E02FEF34EE380F343020F0FC01E658AF
:103B7000FA4F2083019684329105A1F7089580E1E0
:103B80000E94931A8CE090E02FEFFC01E658FA4F68
:103B90002083019680329105C1F7089585E00E9447
:103BA000931A8CE090E02FEF3CEE380F343020F089
:103BB000FC01E658FA4F2083019684329105A1F763
:103BC000089584E090E02FEFFC01E658FA4F20833F
:103BD00001968C309105C1F72FEFFC01E658FA4FA2
:103BE0002083019684329105C1F708952F923F9268
:103BF0004F925F926F927F928F929F92AF92BF92FD
:103C0000CF92DF92EF92FF920F931F93CF93DF93A8
:103C100000D000D0CDB7DEB79C01220F331F220F9A
:103C2000331FF901ED5BF14F459155916591749109
:103C3000542E652E762E472EF901E15BF64F459105
:103C40005591659174911A01162F072FFC01EE5EB4
:103C5000F74FE491892B91F4E091120350901403F3
:103C6000609015037090160340901703209018037E
:103C70003090190310911A0300911B036E2F70E00E
:103C800080E090E00E94C5414B015C014091A40599
:103C90005091A5056091A8057091A9052CE133E02C
:103CA0003F932F936101E12EF02E052D162D272D28
:103CB000342D8091AA059091AB050E94D519609191
:103CC0001C0370911D0380911E0390911F039E01A0
:103CD0002F5F3F4FAE014D5F5F4F0E94571A8B81A0
:103CE0009C811CE3189F9001199F300D112489813C
:103CF0009A81820F931F9093AF058093AE056091D8
:103D000024037091250380912603909127039E013F
:103D10002F5F3F4FAE014D5F5F4F0E94571A8B815F
:103D20009C81189F9001199F300D112489819A81DF
:103D3000820F931F9093B1058093B0056091280383
:103D40007091290380912A0390912B039E012F5F8C
:103D50003F4FAE014D5F5F4F0E94571A8B819C8190
:103D6000189F9001199F300D112489819A81820F2B
:103D7000931F9093B3058093B205609130037091C7
:103D8000310380913203909133039E012F5F3F4FA7
:103D9000AE014D5F5F4F0E94571A8B819C81189F27
:103DA0009001199F300D112489819A81820F931FF0
:103DB0009093B5058093B4056091340370913503F9
:103DC00080913603909137039E012F5F3F4FAE01E4
:103DD0004D5F5F4F0E94571A8B819C81189F900105
:103DE000199F300D112489819A81820F931F209190
:103DF000AE053091AF052E5F3F4F3093AF05209356
:103E0000AE052091B0053091B1052E5F3F4F309344
:103E1000B1052093B0052091B2053091B3052E5F16
:103E20003F4F3093B3052093B2052091B4053091F4
:103E3000B5052E5F3F4F3093B5052093B40502962C
:103E40009093B7058093B6050F900F900F900F9049
:103E50000F900F90DF91CF911F910F91FF90EF90F6
:103E6000DF90CF90BF90AF909F908F907F906F909A
:103E70005F904F903F902F90089598E087FF02C089
:103E8000DD9A01C0DD98880F811DDE9ADE98915081
:103E9000A9F70895CF93DF93DC988091D405813002
:103EA00021F480917C05877F03C080917C05886028
:103EB00080937C05C3E2D0E0FE01E658FA4F808192
:103EC0000E943D1F2197C0F7DC9ADF91CF910895A2
:103ED0000F931F93CF93DF93282F823019F08F30E9
:103EE00009F09DC18091A2059091A305CAE0D0E0A0
:103EF000BE010E948644FB01EA5EFD4F3081309393
:103F00007A05FC01EA5EFD4F808180937B058091FC
:103F1000A0059091A105BE010E948644FB01EA5EC6
:103F2000FD4F308130937C05FC01EA5EFD4F8081BE
:103F300080937D05243019F02F3009F073C18091F2
:103F4000A6059091A705EAE0F0E0BF010E94864433
:103F5000DB01A55FBD4F3C9130937E05DC01A55F81
:103F6000BD4F8C9180937F053FE730938005809112
:103F7000A8059091A905BF010E948644DB01A55FB9
:103F8000BD4F4C9140938105DC01A55FBD4F8C91E5
:103F90008093820530938305C091AA05D091AB052B
:103FA000CE01805D9740BF010E948644DB01A55F82
:103FB000BD4F8C9180938405CE01BF010E94864441
:103FC000FC01E55FFD4F808180938505273109F075
:103FD00017C12091AC053091AD05C8E5D2E0C9010B
:103FE000BE010E948644FB01E55FFD4F8081809306
:103FF0008605ECE3F0E0C901BF010E9486448C0114
:104000002AE030E0CB01B9010E948644DC01A55FC3
:10401000BD4F8C9180938705C801B9010E948644E9
:10402000DB01A55FBD4F4C9140938805DC01A55F86
:10403000BD4F8C91809389050091AE051091AF051D
:10404000C801BE010E948644DB01A55FBD4F8C9173
:1040500080938A05C801BF010E9486448C01CB0170
:10406000B9010E948644DC01A55FBD4F8C9180930D
:104070008B05C801B9010E948644DB01A55FBD4FD5
:104080004C9140938C05DC01A55FBD4F8C918093D2
:104090008D050091B0051091B105C801BE010E94C7
:1040A0008644DB01A55FBD4F8C9180938E05C801CE
:1040B000BF010E9486448C01CB01B9010E94864455
:1040C000DC01A55FBD4F8C9180938F05C801B901BC
:1040D0000E948644DB01A55FBD4F4C914093900543
:1040E000DC01A55FBD4F8C91809391050091B205D5
:1040F0001091B305C801BE010E948644DB01A55F93
:10410000BD4F8C9180939205C801BF010E948644E7
:104110008C01CB01B9010E948644DC01A55FBD4F33
:104120008C9180939305C801B9010E948644DB01FC
:10413000A55FBD4F4C9140939405DC01A55FBD4F39
:104140008C91809395050091B4051091B505C80137
:10415000BE010E948644DB01A55FBD4F8C91809318
:104160009605C801BF010E9486448C01CB01B901AC
:104170000E948644DC01A55FBD4F8C91809397051A
:10418000C801B9010E948644DB01A55FBD4F4C9177
:1041900040939805DC01A55FBD4F8C9180939905F4
:1041A0000091B6051091B705C801BE010E94864472
:1041B000DB01A55FBD4F8C9180939A05C801BF01BB
:1041C0000E948644EC01CB01B9010E948644FC01A7
:1041D000E55FFD4F808180939B05CE01B9010E9470
:1041E0008644FB01E55FFD4F208120939C05FC0187
:1041F000E55FFD4F808180939D058DE090E004C0D8
:104200002F3009F4E6CE11C0FC01E658FA4F2081A8
:104210002E7F2083049685329105B1F706C0843045
:1042200009F48DCE273109F4D4CEDF91CF911F91BF
:104230000F910895873079F48FEF80937E058093F6
:104240007F0591E49093800525E320938105909369
:10425000820591E611C08130A1F48FEF80937E0535
:1042600099E190937F0593E09093800595E8909372
:1042700081052DEE2093820590938305809384051C
:1042800015C08230B1F48FEF80937E0529E1209331
:104290007F0593E09093800593EB9093810591E4E3
:1042A00090938205209383059093840580938505E0
:1042B00008950C94931AAF92BF92CF92DF92EF922F
:1042C000FF920F931F93CF93DF93CDB7DEB7D250FA
:1042D0000FB6F894DEBF0FBECDBF6C018091D00247
:1042E0009091D102843F914024F01092D10210921B
:1042F000D002CE0101967C018C018091D002909178
:10430000D102843F91400CF03EC08091D002909148
:10431000D1028C0D9D1D0E94FA46F80181938F01F8
:104320002091D0023091D1022F5F3F4F3093D102C4
:104330002093D0025F01AE18BF088A30F1F4F70174
:10434000EA0DFB1D108261E082E693E00E942F0DD2
:1043500000E010E02FE730E0A501B70182E693E02E
:104360000E942B118091D0029091D1028C0D9D1D45
:104370000E94FA46811107C002C08111BECF10927F
:10438000D1021092D002DE5F0FB6F894DEBF0FBEEE
:10439000CDBFDF91CF911F910F91FF90EF90DF90F4
:1043A000CF90BF90AF9008950F931F93CF93DF935B
:1043B000EC0111E182E693E00E942E0E1150D1F73C
:1043C000C79A0E94AB3E0091D2021091D302209175
:1043D000D4023091D502DC01CB01801B910BA20BE2
:1043E000B30B8397A105B105B8F040E050E06FEF43
:1043F0007FEF82E693E00E94A311882319F0CE019B
:104400000E945B210E94AB3E6093D2027093D30264
:104410008093D4029093D502DF91CF911F910F9199
:104420000895CF93DF931A9A64E670E080E090E0FD
:104430000E94DD3E1A98C2E3D0E085E00E94DE3F94
:10444000892B41F40E944A1F8CEB92E00E94D421F8
:10445000219799F7DF91CF910895CF93DF931A9A1F
:1044600064E670E080E090E00E94DD3E1A98C2E3CE
:10447000D0E08EE20E94DE3F892B41F40E944A1F69
:104480008CEB92E00E94D421219799F7DF91CF9194
:1044900008959F92AF92BF92CF92DF92EF92FF92D8
:1044A0000F931F93CF93DF93982E7B016A018CE0CB
:1044B00090E02FEFFC01E658FA4F208301968432FA
:1044C0009105C1F700E0C92DD0E0CC0FDD1FC25629
:1044D000DA4F5E011FEF8DE20E94DE3F019709F087
:1044E00070C00F5F053608F000E085E00E94DE3FF7
:1044F000892BA1F4888199810196C816D9061CF0F0
:104500009983888302C0F982E88282E00E94681F52
:1045100084E00E94681F0E94112200E08EE20E9447
:10452000DE3F892BC1F48881998101978E159F0503
:1045300034F08F3F910519F09983888303C0F5010A
:10454000D182C08282E00E94681F84E00E94681FBE
:104550000E942D2200E082E00E94681F84E00E94F9
:10456000681F033338F1F1E09F1205C010937C05FA
:1045700010937D051FC082E0981205C010937A0544
:1045800010937B0517C0E4E09E1205C010937E05D2
:1045900010937F050FC0F5E09F1205C010938105B1
:1045A0001093820507C086E0981204C0109384051A
:1045B000109385050E944A1F8CEB92E00E94D42143
:1045C0008ACFDF91CF911F910F91FF90EF90DF90F5
:1045D000CF90BF90AF909F900C94531D8F929F925D
:1045E000AF92BF92CF92DF92FF920F931F93CF9320
:1045F000DF93EB014A0159012CE030E09FEFF90114
:10460000E658FA4F90832F5F3F4F24323105B9F7B8
:104610000E941A2100E01FEF8FE7F82E94E6C92EC2
:10462000D12C8DE20E94DE3F019709F0A5C00F5FFB
:10463000053608F000E082E00E94681FC436D1050C
:104640006CF0CE01B6010E9486449093A105809340
:10465000A0057093A3056093A20512C010937A057C
:1046600010937B05D7FDF0927B05CE01D7FF04C0E8
:10467000882799278C1B9D0B9093A1058093A005FB
:1046800085E00E94DE3F892BA1F52196AC16BD0680
:104690000CF4E40182E00E94681FC436D1056CF07E
:1046A000CE01B6010E9486449093A1058093A00597
:1046B0007093A3056093A20519C010937A05109317
:1046C0007B05D7FDF0927B05CE01D7FF04C088277C
:1046D00099278C1B9D0B9093A1058093A0051093A7
:1046E0007A0510937B05D7FDF0927B050E9411227D
:1046F00000E08EE20E94DE3F892BA9F52197C815C4
:10470000D9050CF4E50182E00E94681FC436D1058A
:104710006CF0CE01B6010E9486449093A10580936F
:10472000A0057093A3056093A20519C010937A05A4
:1047300010937B05D7FDF0927B05CE01D7FF04C017
:10474000882799278C1B9D0B9093A1058093A0052A
:1047500010937A0510937B05D7FDF0927B050E949C
:104760002D2200E002C0023310F40E944A1F8CEB9D
:1047700092E00E94D42155CF0E94531DCE01DF91BB
:10478000CF911F910F91FF90DF90CF90BF90AF908E
:104790009F908F900895CF93DF9341E062E082E68F
:1047A00093E00E94320CCCE3D3E084EF91E0A0E0F0
:1047B000B0E08E839F83A887B9878AE0EFE2F1E0BB
:1047C000A0E5B3E001900D928A95E1F71E8E82E09C
:1047D0008F8F1CA21DA2DF91CF9108951F93CF93BD
:1047E000DF93CEE9D5E04C855D856A8588850E949A
:1047F000ED1C182F68E670E085ED95E00E946837A3
:1048000060E085ED95E00E94153788810E944A1D81
:10481000682F85ED95E00E9415378A810E944A1D18
:10482000682F85ED95E00E9415378C810E944A1D06
:10483000682F85ED95E00E941537812F0E944A1D53
:10484000682F85ED95E00E94153788850E944A1DE6
:10485000682F85ED95E00E9415378A850E944A1DD4
:10486000682F85ED95E00E9415378C85805D0E944C
:104870004A1D682F85ED95E00E94153785ED95E07E
:10488000DF91CF911F910C94E4370F931F93CF9337
:104890008DE20E94DE3F892B81F50E94531D47E186
:1048A00050E060E070E082E00E9449224BE350E07B
:1048B00060E070E081E00E9449224FE150E061E059
:1048C00070E084E00E9449224CE050E061E070E03A
:1048D00085E00E94492243E358E060ED77E086E0FE
:1048E0000E9449220E94EE238091D6029091D70225
:1048F0000E94F61D8FE00E94681F85E00E94DE3F47
:10490000892B09F0B7C00E94112283E08093D9025D
:104910008093DA028093DB028093DC028093DD02D5
:104920008093DE026091DF0270E023E630E040E039
:1049300050E08CE00E94EE228093DF026091E00262
:1049400070E023E630E040E050E08DE00E94EE228F
:104950008093E0026091E10270E023E630E040E005
:1049600050E08EE00E94EE228093E1026091E2022C
:1049700070E023E630E040E050E08FE00E94EE225D
:104980008093E2026091E30270E023E630E040E0D1
:1049900050E080E10E94EE228093E3026091E40205
:1049A00070E023E630E040E050E08EE10E94EE222D
:1049B0008093E4026091E50270E023E630E040E09D
:1049C00050E081E10E94EE228093E5028093E602AE
:1049D0008093E7028093E8028093E9028093EA02E1
:1049E0006091D80270E023E630E040E050E088E0DB
:1049F0000E94EE228093D8028091FB029091FC02EB
:104A00000CE310E0B8010E94864427E130E040E06A
:104A100050E08AE00E94EE22CCE39C01C29FC001DC
:104A2000C39F900D11249093FC028093FB02809110
:104A3000F5029091F602B8010E94864427E130E029
:104A400040E050E089E00E94EE229C01C29FC0013C
:104A5000C39F900D11249093F6028093F5020E945B
:104A6000CC1C8091D6029091D7020E94F61D8FE057
:104A70000E94681F8EE20E94DE3F892B09F094C0DD
:104A8000C0E08EE20E94DE3F892B09F08DC064E613
:104A900070E080E090E00E94DD3ECF5FC23389F796
:104AA0000E942D226091D6027091D7022CE331E052
:104AB00040E050E086E10E94EE229093D70280937E
:104AC000D6026091FD027091FE022AE030E046EFCE
:104AD0005FEF87E10E94EE229093FE028093FD0239
:104AE000909300038093FF0290930203809301034D
:104AF000909304038093030390930603809305032C
:104B00006091EB0270E023E630E040E050E088E1A5
:104B10000E94EE228093EB026091EC0270E023E6AB
:104B200030E040E050E089E10E94EE228093EC0208
:104B30006091ED0270E023E630E040E050E08AE171
:104B40000E94EE228093ED026091EE0270E023E677
:104B500030E040E050E08BE10E94EE228093EE02D4
:104B60006091EF0270E023E630E040E050E08CE13D
:104B70000E94EE228093EF026091F00270E023E643
:104B800030E040E050E08DE10E94EE228093F002A0
:104B90000E94CC1C8091D6029091D7020E94F61DF3
:104BA0008FE00E94681F6DCFCF911F910F910895E4
:104BB00068E670E085ED95E00E94683760E085ED7D
:104BC00095E00E94153785ED95E00E94E43747E0B7
:104BD00050E068E670E085ED95E00E94E1378730AF
:104BE00009F04FC085ED95E00E94C4360E94411D3A
:104BF00090E090939F0580939E0585ED95E00E943F
:104C0000C4360E94411D90E09093A1058093A005B9
:104C100085ED95E00E94C4360E94411D90E090937E
:104C2000A3058093A20585ED95E00E94C4360E94FD
:104C3000411D90E09093A5058093A40585ED95E036
:104C40000E94C4360E94411D90E09093A705809376
:104C5000A60585ED95E00E94C4360E94411D90E0B6
:104C60009093A9058093A80585ED95E00E94C43630
:104C70000E94411D90E08053984F9093AB05809324
:104C8000AA0508950E94AB3E6093D2027093D302AE
:104C90008093D4029093D50261E088E20E94733F32
:104CA00061E086E20E94733F61E087E20E94733F09
:104CB00061E082E00E94733F62E085E00E94733F02
:104CC00062E08DE20E94733F62E08EE20E94733FD9
:104CD00026E040E855E260E070E082E397E00E9461
:104CE000D83A26E040E855E260E070E085E996E0D9
:104CF0000E94D83A85ED95E00E94543721E041E0CA
:104D000065E976E08CE393E00E94ED0B40E550E02E
:104D100060E070E082E397E00E94F23C82E090E085
:104D20000E94321A80E090E00E94431583E090E0F8
:104D30000E94481560E070E080EA91E40E94371A12
:104D400060E070E080E991E40E94461A1A9A61E0FE
:104D500082E693E00E942F0D68EA71E082E693E01C
:104D60000E94D80E6AEF70E080E090E00E94DD3E85
:104D70001A980E94B31C0E94D8258091D602909167
:104D8000D7020E94F61D69E18CE393E00E94E50BD7
:104D900061E070E08CE393E00E94E10B8CEB92E029
:104DA0000E945B218FE00C94681F3F924F925F92AC
:104DB0006F927F928F929F92AF92BF92CF92DF922B
:104DC000EF92FF920F931F93CF93DF93582E109281
:104DD000D1021092D0028CE393E00E941D0C28E0D7
:104DE000521221C04090D8020E94AB3E6B017C0160
:104DF0002091D90230E0A0E6BAEE0E94C544C60E6A
:104E0000D71EE81EF91EC091DF028CE3C89FE001A7
:104E100011246090E502712C84E690E00E945B21F1
:104E200004E610E0B6C029E0521221C04090D8023A
:104E30000E94AB3E6B017C012091DA0230E0A0E6DB
:104E4000BAEE0E94C544C60ED71EE81EF91EC091D8
:104E5000E0028CE3C89FE00111246090E602712C0F
:104E600088EC90E00E945B2108EC10E092C02AE000
:104E7000521221C04090D8020E94AB3E6B017C01CF
:104E80002091DB0230E0A0E6BAEE0E94C544C60ED7
:104E9000D71EE81EF91EC091E1028CE3C89FE00115
:104EA00011246090E702712C8CE291E00E945B215A
:104EB0000CE211E06EC02BE0521221C04090D802EB
:104EC0000E94AB3E6B017C012091DC0230E0A0E649
:104ED000BAEE0E94C544C60ED71EE81EF91EC09148
:104EE000E2028CE3C89FE00111246090E802712C7B
:104EF00080E991E00E945B2100E911E04AC02CE0CA
:104F0000521221C04090D8020E94AB3E6B017C013E
:104F10002091DD0230E0A0E6BAEE0E94C544C60E44
:104F2000D71EE81EF91EC091E3028CE3C89FE00182
:104F300011246090E902712C84EF91E00E945B21C2
:104F400004EF11E026C004E610E093E0492E2DE0C6
:104F500052121FC00E94AB3E6B017C012091DE0209
:104F600030E0A0E6BAEE0E94C544C60ED71EE81E89
:104F7000F91EC091E4028CE3C89FE0011124609007
:104F8000EA02712C88E592E00E945B2108E512E0BC
:104F9000412C332433940E94AB3E6C157D058E0565
:104FA0009F0508F049C00E94D82582E00E94681F32
:104FB0000E94AB3E4B015C0124EF820E21E0921E69
:104FC000A11CB11C87E10E94681F852D0E94681DED
:104FD0003092D4050E944A1F0E94AB3E68157905A5
:104FE0008A059B0538F4C8010E94D4214420A1F30E
:104FF0001A9AF2CF0E94AB3E4B015C0124EF820E65
:1050000021E0921EA11CB11C8EE00E94681D10922E
:10501000D4050E944A1F0E94AB3E681579058A0597
:105020009B0528F41A98C8010E94D421F4CF44208B
:1050300009F4B1CF4A94AFCF209709F48FC08CE028
:1050400090E02FEFFC01E658FA4F2083019684325E
:105050009105C1F78DE0581202C08EE101C082E1D6
:105060000E94931A1A9A6EEE72E080E090E00E941D
:10507000DD3E1A988CE3E82EF12CDD24D394CE018A
:10508000B7010E9486447093A3056093A205909394
:10509000A1058093A005D092D40582E00E94681FEC
:1050A0000E94AB3E4B015C0124EF820E21E0921E78
:1050B000A11CB11C82E10E94931A0E944A1F0E9407
:1050C000AB3E681579058A059B0540F4C330D105D0
:1050D0000CF41A9AC8010E94D421F1CF0E94AB3E71
:1050E0004B015C0124EF820E21E0921EA11CB11C39
:1050F0001092D40582E00E94681F8EE00E94681D15
:105100000E944A1F0E94AB3E681579058A059B05DF
:1051100028F4C8010E94D4211A98F4CF2197CE0117
:10512000B7010E9486447093A3056093A2059093F3
:10513000A1058093A00582E00E94681F0E944A1F7B
:10514000C8010E94D421209709F099CF1A9A60EDE6
:1051500077E080E090E00E94DD3E1A988EE00E94A9
:10516000681D8CE3869DE001879DD00D112461E0D0
:1051700082E693E00E942F0DBB24B394209709F49C
:105180005EC00E94D825B092D40582E00E94681FBC
:105190000E94AB3E6B017C0124EFC20E21E0D21EC7
:1051A000E11CF11C00E02AE340E050E06CE370E019
:1051B00082E693E00E940D0F2AE340E050E061E4B4
:1051C00070E082E693E00E940D0F0E94AB3E6C15EA
:1051D0007D058E059F0558F40E944A1F11E182E665
:1051E00093E00E942E0E1150D1F7C79AEECF0E9485
:1051F000AB3E6B017C0124EFC20E21E0D21EE11C0C
:10520000F11C1092D40582E00E94681F61E082E6E2
:1052100093E00E942F0D0E94AB3E6C157D058E051C
:105220009F0558F40E944A1F11E182E693E00E9414
:105230002E0E1150D1F7C79AEECF21979FCF8CEB4E
:1052400092E00E945B211092D1021092D002DF9175
:10525000CF911F910F91FF90EF90DF90CF90BF9073
:10526000AF909F908F907F906F905F904F903F9006
:105270000895CF92DF92EF92FF92CF93DF938091C8
:10528000A2059091A3052CE3289FE001299FD00D52
:1052900011248091A0059091A105C80FD91F2091DC
:1052A000EB028091AE059091AF05821B9109C81762
:1052B000D90731F4222321F08CE393E00E94200CE3
:1052C0002091A4053091A5058091B0059091B1057C
:1052D0002530310571F42091F002821B9109C81725
:1052E000D90751F4222341F08CE393E00E94200C73
:1052F00003C02091EC02F1CF2091ED028091B20524
:105300009091B305821B9109C817D90731F4222364
:1053100021F08CE393E00E94200C2091EE0280911A
:10532000B4059091B505821B9109C817D90731F4CE
:10533000222321F08CE393E00E94200C2091EF02C5
:105340008091B6059091B705821B9109C817D907BE
:1053500031F4222321F08CE393E00E94200C809111
:10536000AC059091AD05C817D907D9F48BE00E9420
:10537000931A0E94AB3E6B017C0120E6C20E2AEE1E
:10538000D21EE11CF11C0E94AB3E6C157D058E0502
:105390009F0538F40E944A1F8CEB92E00E94D421B2
:1053A000F2CF8091AE059091AF05C817D90719F4D7
:1053B00088E00E94D5268091B0059091B105C8176C
:1053C000D90759F48091A4059091A505059711F48A
:1053D0008DE001C089E00E94D5268091B2059091B0
:1053E000B305C817D90719F48AE00E94D526809121
:1053F000B4059091B505C817D90719F48BE00E9440
:10540000D5268091B6059091B705C817D90749F4FC
:105410008CE0DF91CF91FF90EF90DF90CF900C94D4
:10542000D526DF91CF91FF90EF90DF90CF90089538
:10543000CF92DF92EF92FF92CF930E94AB3E6B012F
:105440007C018091CF059091D005A091D105B091BC
:10545000D205A7019601281B390B4A0B5B0BDA0119
:10546000C901843F9140A105B10590F0C092CF05DC
:10547000D092D005E092D105F092D2058091D4056A
:10548000811104C081E08093D40502C01092D4053C
:105490008091CB059091CC05A091CD05B091CE0522
:1054A000A7019601281B390B4A0B5B0BDA01C901D6
:1054B00088389341A105B10540F18091CC0281115A
:1054C0000FC061E471E082E397E00E94AA3C69E4C6
:1054D00071E082E397E00E94B03C81E08093CC02CF
:1054E000C092CB05D092CC05E092CD05F092CE05CE
:1054F0008091D305811104C081E08093D30502C05F
:105500001092D3058FE00E94681F8091C70590918B
:10551000C805A091C905B091CA05A7019601281B2D
:10552000390B4A0B5B0BDA01C90188399A43A10593
:10553000B10508F468C0C092C705D092C805E092D2
:10554000C905F092CA050E94D8258091CF0290E04B
:105550002091A0053091A1052817390761F10E941B
:1055600039298091A2059091A3054CE3489F9001B1
:10557000499F300D11248091A0059091A105820FC3
:10558000931F4091F5025091F6022091FB02309159
:10559000FC02841795073CF02817390724F081E0B6
:1055A0008093060102C0109206014217530719F4B6
:1055B00081E0809306018091A0058093CF028091C5
:1055C000CE0290E02091A2053091A305281739075B
:1055D00031F08091D6029091D7020E94F61D809101
:1055E000A2058093CE028091CD0290E02091A40587
:1055F0003091A5052817390711F00E94B31C80913E
:10560000A4058093CD0280910601882379F08091D2
:10561000D305813021F48091A4050E941A210E94B3
:105620004A1F8CEB92E00E94D42106C0C4E28FEFA7
:105630000E943D1FC150D9F7CF91FF90EF90DF90AE
:10564000CF900C9445248F929F92AF92BF92CF92AD
:10565000DF92EF92FF920F931F93CF93DF93CDB71B
:10566000DEB72C970FB6F894DEBF0FBECDBF63E454
:1056700072E0CE0107960E94813D82E397E00E948E
:10568000013A892B89F062E377E0CE0101960E940E
:10569000F83CBE016F5F7F4FCE0107960E94D33D5D
:1056A000CE0101960E94133D68E571E0CE01079698
:1056B0000E94203E882359F06DE571E082E397E077
:1056C0000E94AA3C81E08093C6050C948E3680919E
:1056D000C605813009F098C061E671E0CE010796F9
:1056E0000E94203E882339F082E08093C60564E65C
:1056F00071E00C948A3669E671E0CE0107960E944B
:10570000203E882339F083E08093C6056CE671E083
:105710000C948A3661E771E0CE0107960E94203E24
:10572000882339F084E08093C60564E771E00C9427
:105730008A3669E771E0CE0107960E94203E8823F1
:1057400039F085E08093C6056CE771E00C948A36E9
:1057500061E871E0CE0107960E94203E882339F06F
:1057600086E08093C60564E871E00C948A3669E8A7
:1057700071E0CE0107960E94203E882339F087E031
:105780008093C6056CE871E00C948A3661E971E09B
:10579000CE0107960E94203E882339F088E080934E
:1057A000C60564E971E00C948A3669E971E0CE01BE
:1057B00007960E94203E882339F086E18093C60533
:1057C0006CE971E00C948A3661EA71E0CE010796CB
:1057D0000E94203E882339F08AE08093C60564EA5F
:1057E00071E00C948A3669EA71E0CE0107960E9456
:1057F000203E882311F40C948E368BE08093C605EE
:105800006CEA71E00C948A368091C6058B3009F001
:1058100069C01092C60561E070E0CE0107960E9453
:105820003F3EFC018081082E000C990BC09724E6B6
:10583000289F8001299F100D112462E070E0CE01A5
:1058400007960E943F3EFC018081082E000C990BB8
:10585000C0972AE0289F7001299FF00C1124E00EC8
:10586000F11E63E070E0CE0107960E943F3EFC010E
:105870000081002E000C110B005311090E0D1F1D8D
:1058800060E070E0CE0107960E943F3EFC018081FF
:10589000813529F4B8018CE393E00E94E10B60E0CC
:1058A00070E0CE0107960E943F3EFC018081873563
:1058B00039F4B8016E587F4F8CE393E00E94E10BFE
:1058C00060E070E0CE0107960E943F3EFC018081BF
:1058D000833521F48CE393E00E941D0C61EB71E0B1
:1058E0000C948A368091C605823009F0E4C010928B
:1058F000C60564E070E0CE0107960E943F3EFC01C1
:105900002081022E000C330B205331091AE0129F24
:105910007001139FF00C112465E070E0CE01079632
:105920000E943F3EFC018081082E000C990BC0971D
:105930008E0D9F1D9093A3058093A20562E070E0F9
:10594000CE0107960E943F3EFC012081022E000CF2
:10595000330B20533109129F7001139FF00C112457
:1059600063E070E0CE0107960E943F3EFC0180811B
:10597000082E000C990BC0978E0D9F1D9093A105CA
:105980008093A00560E070E0CE0107960E943F3E44
:10599000FC012081022E000C330B20533109129F91
:1059A0007001139FF00C112461E070E0CE010796A6
:1059B0000E943F3EFC018081082E000C990BC0978D
:1059C0008E0D9F1D90939F0580939E0566E070E06D
:1059D000CE0107960E943F3EFC012081022E000C62
:1059E000330B20533109129F7001139FF00C1124C7
:1059F00067E070E0CE0107960E943F3EFC01808187
:105A0000082E000C990BC0978E0D9F1D9093A70533
:105A10008093A60568E070E0CE0107960E943F3EA5
:105A2000FC012081022E000C330B20533109129F00
:105A30007001139FF00C112469E070E0CE0107960D
:105A40000E943F3EFC018081082E000C990BC097FC
:105A50008E0D9F1D9093A9058093A8056AE070E0C4
:105A6000CE0107960E943F3EFC012081022E000CD1
:105A7000330B20533109129FC001139F900D112445
:105A80008C010053184F6BE070E0CE0107960E9426
:105A90003F3EFC018081082E000C990BC097080F37
:105AA000191F1093AB050093AA050E94EE236AEB21
:105AB00071E00C948A368091C605833011F51092FE
:105AC000C605EB84FC8400E010E00E151F057CF495
:105AD000B801CE0107960E943F3EFC016081C801DB
