:100000000C94070A0C94360A0C94360A0C94360A9F
:100010000C94360A0C94360A0C94360A0C94360A60
:100020000C94360A0C94360A0C94360A0C94360A50
:100030000C94360A0C94360A0C94360A0C94360A40
:100040000C949C3A0C94360A0C94983D0C94CE3D3A
:100050000C94360A0C94360A0C94360A0C94360A20
:100060000C94360A0C94360A0C94360A0C94360A10
:100070000C94360A0C94360A0C94453E0C947B3E44
:100080000C94360A0C946B390C94360A8D0A9B0A30
:10009000AE0A700AAE0A750AA90AB90AAE0AAE0A11
:1000A000AE0AAE0AAE0AAE0AAE0AAE0AB90AAE0A85
:1000B000AE0AAE0AAE0AAE0A710E770E7E0E840E3E
:1000C0008A0E900E960E9C0EA20EA80EAE0EB40EC8
:1000D000BA0EC00EC60ECC0E881D9B1DAE1DC11DD6
:1000E000D41DE31DF61D983B983BA93B8A3B8D3BF5
:1000F000913B943BA93BA93B9C3BA03BA43B036E9B
:10010000DB363D9A9999993DABAAAA2A3E00000098
:10011000803F084AD73B3BCE016E84BCBFFDC12F58
:100120003D6C74319ABD56833DDA3D00C77F11BEE8
:10013000D9E4BB4C3E916BAAAABE000000803F07E9
:100140002C7AA5BA6CC590DA3B9365FC8BBC53F84E
:1001500010FD3C5692834DBD879D3AB63DCBC9BF3D
:100160005BBE73DA0FC93F05A84CCDB2D44EB93887
:1001700036A9020C50B9918688083CA6AAAA2ABEC4
:10018000000000803F0664EC1B3C04BC163E3BE5CF
:10019000B93CC93C37C29E5A3D660498083EEA699C
:1001A000AAAA3E000000803F30860A1020600003AB
:1001B000070B090E0B0305050609030503040806D2
:1001C00008080908080808080303090809080C0CAE
:1001D00009090909080A0A03090C080C0A0A090A8C
:1001E0000A090B0A0C100C0B090504050808030981
:1001F0000909090906090903040A030D090909097E
:1002000006080609090F0B09070602060908FEFE83
:10021000FE1D1D1D1E1E1E001E1E1E0000000000D5
:1002200000003030F0FE3E3030F0FE3E30061E1F43
:100230000706061E1F070606387CFEE6FFC6CE8CA4
:100240000C040C1C183F191F0F073C7E42427E3CD9
:100250008060108C82808000000000100C02010081
:100260000F1F10101F0F00809CFEFEE6BE3E9C80FC
:1002700080070F1F1918191F0F0F1F1D1E1E1E00AC
:100280000000E0F8FC1E020F3F7FF080021EFCF829
:10029000E080F07F3F0F08683E3E680800000000E5
:1002A0000000C0C0C0F8F8F8C0C0C00101010F0FC5
:1002B0000F010101000000DC7C3C80808080800315
:1002C000030303030000001C1C1C008078061807B1
:1002D0000000F8FCFE0606FEFCF8070F1F18181FAA
:1002E0000F07607038FEFEFE0000001F1F1F181C65
:1002F0001E0686FEFC78181C1E1F1B191818081CE9
:100300001EC6C6FEFC38060E1E18181F0F0780C03A
:10031000F0381CFEFEFE0003030303031F1F1F0330
:10032000F0FEFE6666E6C686060E1E18181F0F074C
:10033000F0FCFE4666EECE8C030F1F18181F0F0749
:1003400006060686E6F61E0600001C1F1F010000BA
:1003500038FCFEC6C6FEFC38070F1F18181F0F0713
:1003600078FCFE8686FEFCF0040C1D19181F0F0396
:100370007070701C1C1C707070DC7C3CE0E0E0F065
:100380007070703838030303070707070E0E70708C
:100390007070707070700707070707070707383815
:1003A000707070F0E0E0E00E0E070707070303032C
:1003B000181C9EC6E6FE7C3800001D1D1D000000B6
:1003C000E018C4F43A0A0AF2FA7C08F00718272F5A
:1003D00048484C4F4F2836110080E0F8FE1EFEF8CA
:1003E000E08000001C1F0F07060606070F1F1C10E9
:1003F000FEFEFEC6C6FEBC98001F1F1F1818181F61
:100400000F07F0FCFC0E060E1E1C08030F1F1C1825
:100410001C1F0E06FEFEFE06060EFEFCF01F1F1F32
:1004200018181C1F0F03FEFEFEC6C6C6C6C6061F52
:100430001F1F181818181818FEFEFEC6C6C6C606D6
:100440001F1F1F0000000000F0FCFC0E06C6CEDEE1
:10045000DCC8030F0F1C18181C1F0F0FFEFEFEC078
:10046000C0C0C0FEFEFE1F1F1F000000001F1F1F98
:10047000FEFEFE1F1F1F000000000000FEFEFE0625
:100480000F1F1C18181F0F07FEFEFEC0E0F0F8DC5F
:100490000E0602001F1F1F00000001071F1E18107C
:1004A000FEFEFE00000000001F1F1F18181818187D
:1004B000FEFEFE3EF88080F83EFEFEFE1F1F1F007F
:1004C000031F1F03001F1F1FFEFEFE7CF0E080FEC7
:1004D000FEFE1F1F1F0001030F1F1F1FF0FCFC0E5D
:1004E00006060EFCFCF0030F0F1C18181C0F0F0360
:1004F000FEFEFEC6C6C6FE7E3C1F1F1F000000009B
:100500000000F0FCFC0E06060EFCFCF0030F0F1CB6
:10051000181E1C1F1F33FEFEFEC6C6C6FE7E3C0014
:100520001F1F1F0000030F1F1C10387CFEE6E6EEA5
:10053000DEDC98060E1E1C18191F0F07060606069D
:10054000FEFEFE06060606000000001F1F1F00003C
:100550000000FEFEFE00000000FEFEFE070F1F1C56
:1005600018181C1F0F071EFEFCF0800080F0FCFE18
:100570001E020000031F1F1C1F1F03000000FEFEC1
:10058000F80080F8FE3EFEF88000F8FEFE06000F40
:100590001F1F1F07010001071F1F1F0F0000061E5E
:1005A0003CF8F0E0F0F83C1E0602181E0F070301AD
:1005B00003070F1E1810020E1E7EF8E0F87E1E0EB6
:1005C00002000000001F1F1F00000000000606C6FA
:1005D000E6F63E1E0E1C1E1F1B1918181818FEFEEC
:1005E000FE0606FFFFFFC0C0067880000000071867
:1005F0000606FEFEFEC0C0FFFFFF40707C1E1E7C94
:10060000704000000000000000000000000000003A
:1006100000004040404040404040020604000000CE
:1006200040607030B0B0F0F0E00E1F1F1B19091FC2
:100630001F1FFEFEFE603030F0E0C01F1F1F0C18B1
:10064000181F0F07C0E0F0703030706040070F1FB8
:100650001C18181C0C04C0E0F0303060FEFEFE07D1
:100660000F1F18180C1F1F1FC0E0F0B0B0B0F0E053
:10067000C0070F1F1D19191D0D0530FCFEFE363673
:10068000001F1F1F0000C0E0F0303060F0F0F047A6
:10069000CFDFD8D8CCFF7F3FFEFEFE203030F0F019
:1006A000E01F1F1F0000001F1F1FF6F6F61F1F1F71
:1006B00000F6F6F6C0FFFF7FFEFEFEC0E0F0F03071
:1006C00010001F1F1F0301071F1E1C10FEFEFE1F30
:1006D0001F1FF0F0F02030F0F0E02030F0F0E01FCD
:1006E0001F1F00001F1F1F00001F1F1FF0F0F02022
:1006F0003030F0F0E01F1F1F0000001F1F1FC0E080
:10070000F0703070F0E0C0070F1F1C181C1F0F079F
:10071000F0F0F0603070F0E0C0FFFFFF0C18181F21
:100720000F07C0E0F0303060F0F0F0070F1F18182E
:100730000CFFFFFFF0F0F02030101F1F1F00000023
:10074000E0F0F09090B0302008191B13131F1F0E1B
:1007500030FCFCFE3030000F1F1F1818F0F0F000C6
:100760000000F0F0F00F1F1F1818081F1F1F10F0D7
:10077000F0C000E0F0F0100000071F1C1F07000091
:1007800010F0F0E00000F0F0F00000E0F0F01000F9
:1007900000071F1E0F0300030F1E1F07000010306D
:1007A00070E0C080C0E070301010181E0F07030703
:1007B0000F1E181010F0F0C000C0F0F030C0C0C71D
:1007C000FFFC3F0F0100303030F0F0F0301C1E1FF6
:1007D0001B1918180000FCFEFE0603037FFFFCC077
:1007E000FEFEFFFF06FEFEFC0000C0FCFF7F0303D1
:1007F000C0E0E0E0E0C0C0C0E00100000001010195
:100800000100F8080808080808F81F101010101058
:10081000101F000709080807090907070807080744
:100820000707070707080807080708070707080852
:10083000080707070707080707070909080707093F
:100840000707070707080707070908070707070734
:10085000070707070707080709080807080708091F
:100860000708070807070707070707070709070813
:100870000707070807080707080707070807080703
:1008800007070708080707080707070707070807F4
:1008900007070707070807070807070707070807E5
:1008A00007070708080807080709080808080908CB
:1008B00008070708070907070707070707070709C2
:1008C00008070708070707070707070708080707B4
:1008D00008080707070708070707070707070707A5
:1008E0000808080707070807070707070707070794
:1008F0000708070807080707080707080707070783
:100900000707080708070907070707070807080771
:100910000707070808070707090707070707080762
:100920000707070807070808080708080707070751
:100930000708080708070707070707070908080740
:100940000907070707080809080807070707070036
:10095000000000CDCCDC4266260043E73BE74200C6
:1009600080E642B488CC42CDCCF942008005437F7A
:10097000AAC942E73BE4421BEFF1424E22C6427F46
:10098000AAE94233B3BE424C77D2424E22D742B498
:1009900088E1427F2ACA42CD4CCC4233B3E6427F43
:1009A000AAE542B408D9427F2AE5426666DB42B234
:1009B000DDEF42B25DD442B25DDC427FAAE5424E39
:1009C00022E7427FAAE5423333EF429A19D0420030
:1009D00080DB42E510E1421944D0423333C9421969
:1009E00044F5424CF7D5427F2ACC424EA2CC42007D
:1009F00000F1429A1908434EA2ED420000C542CDD3
:100A00004CC142CD4CFA428155E04281D5DE429A3A
:100A100099D54219C4DF424EA2E3420000EB427F67
:100A20002ADD429A19DA42B2DDC84200C002430010
:100A300080F0424EA2E5427F2ADF4233B3D842190A
:100A400044D642B25DD5420000DA429A19D4429AA5
:100A500019D7427F2AD742B408CD428155DD421BC7
:100A60006FE6424EA2D5427F2AFB421BEFEC42B218
:100A70005DEF42E7BBCA42CD4CF3428155CD42B453
:100A800088EF429A59044319C4D7427FAAE642B478
:100A900008DB424E22F6421944E142E73BC3424E94
:100AA000A2D8424C77D5424EA2D5424EA2D5421989
:100AB000C4D542E7BBD5424E22CF4233730C43B27A
:100AC0005DE3420080EF428155DD424C77E0420019
:100AD00000C542B408F9420080D3428155E542B2D4
:100AE000DDDD42E590D642CDCCE2427FAAD1428103
:100AF00055DB42B408E0421BEFF8426666DC424E2A
:100B000022F5423333E042CDCCDB42E73BC74233F0
:100B100033DD427F2AF3426666E84233B3D142199D
:100B200044BF42E590F84233B3E44219C4E3429A29
:100B300019E1421BEFCE427FAADD424CF7D8424E6C
:100B400022F7429A99C342CDCCDB427FAAD342B46A
:100B500008CF4281D5E0421BEFC34281D5F5426602
:100B600066E142CD4CC2421BEFF5424E22C84281A3
:100B7000D5CD42E7BBC542B25DC8421B6FE2429A87
:100B800099F542B408DF421B6FDC427FAADE421BAC
:100B90006FD8421BEFED427FAAEF421BEFEE4200FF
:100BA00080E14281D5ED4281D5CD42271106430037
:100BB00080E5427F2AEF427FAAE5427FAAF042D930
:100BC000EE00431944E8426666F442CD4CC54266E5
:100BD000E6D942E7BBF942B25DD242F45D0C43B4C0
:100BE00088D242E73BC04281D5E0420080CE42E756
:100BF000BBCD42E590CF4219C4E5421BEFC9429AF2
:100C000099DC42CD8C0743E73BE54281D5DF42B218
:100C1000DDDE428155EB42E73BDE427FAAC842B4AB
:100C200088C64266E6C842B488CE423333C942B26F
:100C3000DDE3420080D1424C77F042E7BBEF424C0B
:100C4000F7E2427F2AD4424E22EF429A99EF42E7DE
:100C50003BDF423333D4429A19C7426666E0428191
:100C600055EF421944C842CDCCE142E510DE4219AD
:100C700044C9428155DB424C77CA42E7BBDA429A0B
:100C800019C6421BEFCD42B25DEF420080E542E75C
:100C90003BEF4281D5D54266E6DE424EA2DA428182
:100CA000D5F1421B6FD042E590E8421B6FE242E76C
:100CB000BBDA427F2AE5424CF7D64281D5DD424C71
:100CC00077DA42B408DC42B2DDE1420000F64200CD
:100CD00080D442CD4CE6427FAAC742CDCCEF42330E
:100CE000B3DE420080CD420000F1427FAABE420046
:100CF00000DD42CD4CEA429A99DA421B6FE2420093
:100D000000E2420080DC42E7BBC94233B3CF42E598
:100D100010E9424CF7DC42E510F0428155D4425ACA
:100D2000040243E590C5424EA2C4421B6FE142005B
:100D300000C0423333D8423333E642B2DDD94200F9
:100D400080F0420000DF420000E4421944DA4233FE
:100D5000B3DC423333FF42E590F8429A99DD42CD4D
:100D60004CC942B408D7428D370343B408DE421958
:100D7000C4C442E590D7427FAAD5427FAADD42662D
:100D8000E6EA4281D5D74233B3E3421944D442194B
:100D9000C4CA421BEFEE420080E1427FAADD421945
:100DA00044E6424CF7FA42B2DDEE427FAAC14281EC
:100DB00055E6426666E8421944D542E590C7429A34
:100DC00099CF42E73BD74266E6D0424CF7EA42E78A
:100DD000BBEA428155C2421944EB42CDCCC5424CDC
:100DE00077D8421944C642CD4CDA426666DC42CD21
:100DF0004CCE421BEFE942CDCCFE427FAAF142CD60
:100E0000CCF9421B6FDF42A6BB04434E22E042CD29
:100E1000CCDF426666D742CDCCDC4281D5EE42B40F
:100E200088F042D9AE0A4381D5F04219C4EF42811D
:100E300055DC4281D5DD423333DD42CDCCDB42CDC2
:100E4000CCDC4200000000448BE8C0CDCC6CC03349
:100E50003307C19A9919C046B65BC09A9911C1006F
:100E60000020C0CDCC0C40CDCC4CC02B870CC1DFBA
:100E70004F15405839A4BFDD24AA4023DBADC0661E
:100E800066DEC0560EE1C09A99993EDF4F05C03329
:100E90003307C121B05AC077BEEBC0BA4954C0CDA8
:100EA000CCECC0560EB1C09A99C1C09A99F1C0D588
:100EB0007803C1AC1C22C0000080C0CDCC8CC02502
:100EC00006913F1058DDC077BEFBC0894184C02D1C
:100ED000B2DDBE1058ADC0BC74C7C06666C63FBAAE
:100EE0004974C01058C5C0426095BF3BDF05C1DFE3
:100EF0004F5540BC74A7408B6CB73F9A9901C1AA6B
:100F0000F1DEC03333D3C0CDCCE4C01058FDC04CAB
:100F100037893D560EF1C077BEDBC060E590BEEE6E
:100F20007C47C0448BB0C0F2D2DDBFCDCCE4C0F072
:100F3000A7EAC0DD24DAC0CDCCCCC0BC74F7C04475
:100F40008BC0C077BEDBC0BC74D7C054E35DC08922
:100F500041DCC066660AC1CDCCCCC06F1209C12B82
:100F60008708C1508D37BF0E2DE23F9A990DC1F011
:100F7000A7AAC0BA4964C0666636C0BC74E7C02B75
:100F80008708C13333F3C0B072083FAAF1E6C00E40
:100F90002DA23FF0A7CAC0CDCCC4C01058C5C044D4
:100FA0008BC8C0DD24CAC077BEC3C0DBF9CEBFB0DA
:100FB0007208BF08AC02C123DBB5C03333D3C09A7B
:100FC00099F1C066664640D57803C1F0A7BAC09AC9
:100FD0009981C03333F3C09A99C9C0A8C6FBBF9AA0
:100FE0009959C01058F5C0DD24FAC091ED16C11012
:100FF00058DDC0CDCC7CC0F0A7F2C00000E0BF79C6
:10100000E93E406666F6C0560E81C0871651C03371
:10101000339BC09A99A940508D373F666646C0DB26
:10102000F98EBF21B05AC0E92651BF9A99D9C0AAFA
:10103000F1DEC0666622C100006040AAF1F6C089F8
:1010400041CCC0BA4974C077BEE3C023DB8D409A5F
:101050009905C1F0A7FAC023DBA5404A0C223FFA4C
:101060007EAABE000050C0333363409A99193EC532
:101070002002C1333373BF8941F4C0AAF1EEC0CD61
:10108000CCF4C0F0A7DAC0AC1C62C0EE7C47C0CD87
:10109000CCA4C0BC74FFC046B62BC010588DC0B6DF
:1010A000F35DBF000040C00000A0C021B05AC0AC3A
:1010B0001C22C0871651C0F85309C13BDF09C1DFAC
:1010C0004F65406DE7BB3EF2D2BD3FBA4904C091C7
:1010D000ED06C177BEA3C089418440AAF1EEC0A845
:1010E000C6DBBFA8C6BBBF21B06AC017D96EBF336D
:1010F0003333BFF0A7F2C0333353C03BDF05C133F6
:1011000033F3C01058EDC033338340333303C1830E
:10111000C02ABF2506B13F17D96EBF448B80C0BE21
:101120009FAABF000010C079E93EC0EE7C47C066B0
:101130006666BFCDCCE4C01058CDC0448B98C04685
:10114000B67BC046B62BC0128308C09A99593FAAF5
:10115000F1F6C079E97EC04A0C22BF8941F4C00093
:1011600000D8C0CDCC4CBECDCCDCC09A99193FCDB7
:10117000CCDCC046B63B40AC1C72C0871671C03395
:101180003373C0000088C0F0A7CAC077BEFBC000A0
:10119000000000BE9FAABF46B65BC066660AC14497
:1011A0008BF8C08941ECC07D3F15BFF0A7D2C07756
:1011B000BEE3C01058EDC0AAF1F6C07D3F553F1008
:1011C000589DC03333CBC021B03AC000001040540A
:1011D000E33DC06666D6C0000000BFF85309C18970
:1011E00041BC40DD24EAC06666E6BECDCCAC3F2300
:1011F000DBE5C0BA4924C00000803E83C02ABF6638
:101200006636C066660AC1AAF1DEC0894184C0891B
:1012100041C4C09A99C9C00000E03F000030406658
:1012200066EEC01058AD403333EBC09A9901C14A05
:101230000C623F77BEA3C04C37893D6666F6C0BCE2
:1012400074DFC0AAF1F6C09A99D93F3BDF1DC16691
:1012500066F6C0CDCC4CBF560EE1C0CDCC4CBF2302
:10126000DBEDC087167140F0A7D2C023DBDDC010D4
:1012700058F5C02B8708C177BEDBC00000E0C0CDA9
:10128000CCECBFDF4F05C023DBA5C0BC74E7C05664
:101290000EF1C02B8708C1EE7C67401058ADC089A5
:1012A000419440EE7C07C04260F5BF23DBC5C079A6
:1012B000E93E40000070C0000030C083C06A3F9A21
:1012C0009909406666364000005040333353400071
:1012D000000040F0A7EAC0DF4F554077BEDBC0DD1D
:1012E00024EAC0D34DA2BECDCCCCBE6666E63F6636
:1012F00066863FBE9FCA3FCDCC00C18941B4C0CDF8
:10130000CCDCC06F1201C11058DDC08941E4C0C5FA
:10131000201AC166661AC19A9979C0BC748FC0330D
:10132000338BC03333FB40DD24FAC0AAF1FEC07713
:10133000BEEBC09A99F9C00000000A0B0C00000037
:10134000000000010405060000000000000000008D
:10135000000000000000000000000000000000008D
:10136000000000000000000000000000010204086E
:101370001020408001020408102040800810010263
:10138000040810204080010201020408102040805F
:1013900004804020100804020101020408102040CB
:1013A0008005050505050505050202020202020287
:1013B00002070704040404040404040707030303E6
:1013C00003030303030701010101010101010606F3
:1013D0000606060606060000390036003300300017
:1013E00021002000630000003B003800350032007F
:1013F00023006200650000003A003700340031002D
:101400002200610064005A248138023EAF3E11245C
:101410001FBECFEFD0E1DEBFCDBF12E0A0E0B1E054
:10142000E4E3FFE800E00BBF02C007900D92AC358B
:10143000B107D9F727E0ACE5B2E001C01D92A93EA3
:10144000B207E1F714E1CEE0D4E100E006C0229754
:101450000109FE010BBF0E944F45C630D10780E055
:101460000807A9F70E94D5400C9498470C940000F7
:1014700021E030E080E090E0FB01E20FF31F4081CB
:10148000840F911D2F5F3F4F27303105A9F79195AC
:10149000819591090895DC011D964C911D97413469
:1014A00009F475C091964C9391971F968C911F9754
:1014B00090E0982F882750962C915097820F911D7D
:1014C00093969C938E93929750E04A5351094631DC
:1014D000510508F04EC04A5B5F4FFA010C943A4543
:1014E0005E961C925E9785E03DC080FF05C05E96CB
:1014F0001C925E9789E036C081FF05C05E961C9203
:101500005E9784E02FC083709927892B09F441C02E
:101510005E961C925E978AE025C080FF05C05E96AD
:101520001C925E9787E01EC081FF33C05E961C92BE
:101530005E9782E017C080FF05C05E961C925E97A2
:1015400088E010C081FF25C05E961C925E9783E004
:1015500009C05E961C925E9786E004C05E961C925F
:101560005E978BE090968C93909781E094968C9305
:1015700008955E961C925E9781E090968C9390976A
:1015800093961C921E92929794968C93949795960C
:101590001C920895CF93DF93EC01BC01665F7F4FEF
:1015A0000E94380A298930E0322F22274A89240FE5
:1015B000311D41E08217930709F040E0842FDF914D
:1015C000CF9108950F931F93CF93DF93EC01888100
:1015D0009981DC01ED91FC910480F581E02D099564
:1015E000892B09F43FC060E070E0CB010E94163BFC
:1015F0001E8D88819981DC01ED91FC910680F78137
:10160000E02D111106C009958A878E3701F78E8D5E
:1016100026C00995FE01E10FF11D82878E8D823073
:1016200069F0893079F08130D1F49B859F3FB9F022
:101630001E8E81E088A31BA21AA22FC09C85963023
:1016400071F0F6CF8B898F3E99F7CE010E94CA0ABE
:10165000882371F31E8ECE010E944B0A22C08F5F39
:101660008E8FB5CF8DA18823E1F00E94E63A0A81E2
:101670001B812C813D81601B710B820B930B0E81B2
:101680001F8128853985601771078207930748F005
:101690001E8E18A21BA21AA281E08CA31DA280E0BC
:1016A00001C08CA1DF91CF911F910F910895CF932D
:1016B000DF93EC01888D811124C088819981DC0140
:1016C000ED91FC910280F381E02D4AE050E0BE01F3
:1016D0006C5E7F4F09950E94E63A6A837B838C8318
:1016E0009D83888D91E0811101C090E09DA38111BF
:1016F00014C06AE070E080E090E0DF91CF910C943C
:10170000163B8DA18823C9F260E070E0CB010E94F6
:10171000163BCE010E94E20AF4CFDF91CF910895EB
:10172000CF93DF93EC016F8B598F4A8FBC016C5EB6
:101730007F4F0E94380A9B8F8C8FCE01DF91CF9113
:101740000C94570B40E050E00C94900B8F929F92BA
:10175000AF92BF92CF92DF92EF92FF921F93CF93FF
:10176000DF93EC016A017B010E94E63A4B015C01C8
:10177000C114D104E104F104A9F4CE80DF80E8842F
:10178000F98410C00E94E63A681979098A099B0910
:10179000C616D706E806F90658F060E070E0CB01FF
:1017A0000E94163BCE010E94E20A182F882351F3B3
:1017B000812FDF91CF911F91FF90EF90DF90CF901D
:1017C000BF90AF909F908F900895AB0163E00C9411
:1017D000900B462F50E066E00C94900B6CE00C945C
:1017E000A20B1F93CF93DF93EC01142F79836883AF
:1017F000442319F081E0888F01C0188E222389F0DC
:10180000CE010E94EE0B40ED57E060E070E0CE01AB
:101810000E94A60B68EC70E080E090E00E94163B0E
:1018200002C084E088A31CA288A1843029F08930FA
:1018300019F081E0812701C081E0DF91CF911F91F4
:10184000089566E10C94A20B68E10C94A20BFC01D4
:10185000E05FFD4F408120E4429FA00111246FEF23
:1018600070E0FC01808191810C946C47CF93DF93F1
:10187000EC01660FFC01E25FFD4F6083319640830F
:10188000649F802D11243196808390E031969C01D5
:1018900044E0220F331F4A95E1F7318320833296CB
:1018A0009C0155E0220F331F5A95E1F731832083C5
:1018B0003296AC01440F551F440F551F9A01220F59
:1018C000331F240F351F220F331F220F331F318385
:1018D0002083B6E0880F991FBA95E1F70E9453451F
:1018E0009983888361E08CE10E94AA3B61E08DE1ED
:1018F0000E94AA3B61E08EE10E94AA3B61E08FE179
:101900000E94AA3B61E088E00E94AA3B61E082E27B
:101910000E94AA3B61E08AE20E94AA3B61E08FE05C
:101920000E94AA3BCE010E94270CC95EDD4F18829F
:10193000DF91CF9108950F93CF93DF93FC01DC01EA
:10194000A25FBD4F3C91A0E23A9FC00111246817ED
:10195000790708F087C0DF01A15FBD4F8C91A0E13E
:101960008A9FC00111244817590708F07BC0CB019A
:101970008F719927DA01C4E0B695A795CA95E1F76A
:10198000D5E076956795DA95E1F73A9F600D1124D9
:1019900030E2639F800D911D1124BC0133E07695E8
:1019A00067953A95E1F74F705527DF01A05FBD4F6E
:1019B000CC91A4E0CA9FE00111244C9FD0014D9F1F
:1019C000B00D5C9FB00D11246A0F7B1FDC01A77066
:1019D000BB27A75CBE4F8C912230F1F028F4222364
:1019E00041F0213071F03EC0233021F1243069F103
:1019F00039C00190F081E02DE60FF71F013041F46E
:101A000020C00190F081E02DE60FF71F0023C9F000
:101A10009081982B908326C0013021F50190F081B0
:101A2000E02DE60FF71F9081292F2823C9F080951C
:101A3000892317C00130B1F40190F081E02DE60F49
:101A4000F71F809590819823E5CF013059F40190DC
:101A5000F081E02DE60FF71F9081292F282311F444
:101A6000892B8083DF91CF910F91089561110C94A0
:101A7000270CFC01E05FFD4F408120E4429FA00164
:101A8000112460E070E0FC01808191810C946C472E
:101A90002F923F924F925F926F927F928F929F927E
:101AA000AF92BF92CF92DF92EF92FF920F931F936C
:101AB000CF93DF9300D000D000D0CDB7DEB74C017C
:101AC0006B015E834D8329011C830B831E2DEB80EC
:101AD000FC80E41AF50A5901A61AB70AF7FE07C0F6
:101AE000F194E194F10822242A94322C03C0222498
:101AF0002394312CB7FE08C0B194A194B1082FEF04
:101B00003FEF3A83298304C081E090E09A83898380
:101B1000EE0CFF1CAA0CBB1C01E0212F4D815E8145
:101B2000B601C4010E949B0CEA14FB0414F5C50124
:101B3000959587953701681A790AC414D504F1F18F
:101B400077FC08C0ED81FE81E20DF31DFE83ED837D
:101B50006A187B0829813A81C20ED31E6E0C7F1C45
:101B600001E0212F4D815E81B601C4010E949B0CD2
:101B7000E4CFC701959587953501681A790A2D81BB
:101B80003E818B819C8128173907C1F077FC06C004
:101B900089819A81C80ED91E6E187F08ED81FE8159
:101BA000E20DF31DFE83ED836A0C7B1C01E0212F07
:101BB000AF01B601C4010E949B0CE1CF26960FB67F
:101BC000F894DEBF0FBECDBFDF91CF911F910F9173
:101BD000FF90EF90DF90CF90BF90AF909F908F904D
:101BE0007F906F905F904F903F902F9008956F92ED
:101BF0007F928F929F92AF92BF92CF92DF92EF929D
:101C0000FF920F931F93CF93DF935C01EB014A0187
:101C100069013801FE2CCC16DD0654F0EF2C83014F
:101C20009E01A401BE01C5010E94480D2196F3CF7B
:101C3000DF91CF911F910F91FF90EF90DF90CF90A8
:101C4000BF90AF909F908F907F906F90089588E0A5
:101C500067FF02C0DA9801C0DA9A660F611DC09A68
:101C6000C0988150A9F70895AF92BF92CF92DF92AA
:101C7000EF92FF920F931F93CF93DF937C01FC01B0
:101C8000E05FFD4FC08084E0C89E60011124E70141
:101C9000C95EDD4F88818C9D50018D9DB00C112453
:101CA00000E010E00C151D0574F4D701ED91FC91D6
:101CB000E00FF11FEA0DFB1D6081C7010E94270E96
:101CC0000F5F1F4FEFCFC79AAE9AAE98888190E012
:101CD0008031910508F065C0FC01E45AFF4F0C9477
:101CE0003A45AB98AA98A998A89881E005C0AB9806
:101CF000AA98A998A89A82E0888353C0AB98AA981A
:101D0000A99AA89883E0F8CFAB98AA98A99AA89A1C
:101D100084E0F2CFAB98AA9AA998A89885E0ECCF76
:101D2000AB98AA9AA998A89A86E0E6CFAB98AA9A07
:101D3000A99AA89887E0E0CFAB98AA9AA99AA89AFE
:101D400088E0DACFAB9AAA98A998A89889E0D4CF6E
:101D5000AB9AAA98A998A89A8AE0CECFAB9AAA98EB
:101D6000A99AA8988BE0C8CFAB9AAA98A99AA89AE2
:101D70008CE0C2CFAB9AAA9AA998A8988DE0BCCF64
:101D8000AB9AAA9AA998A89A8EE0B6CFAB9AAA9ACB
:101D9000A99AA8988FE0B0CFAB9AAA9AA99AA89AC4
:101DA0001882C798DF91CF911F910F91FF90EF900C
:101DB000DF90CF90BF90AF900895845F9D4FFC015E
:101DC000718360830895603209F46EE6FC01E45F7C
:101DD000FD4F20813181F9013496749131968491BF
:101DE0006717A0F0462F50E090E0870F911D48172D
:101DF000590764F4671BF901849181110AC0319677
:101E0000E491E11106C0F901329608C080E090E04B
:101E10000895E62FF0E03696E20FF31FE4918E2F3F
:101E200090E008952F923F924F925F926F927F922F
:101E30008F929F92AF92BF92CF92DF92EF92FF92DA
:101E40000F931F93CF93DF93CDB7DEB766970FB68F
:101E5000F894DEBF0FBECDBF9E8B8D8B5B014A0118
:101E60000E83FC01E25FFD4F808130E2839FC00161
:101E70001124861797070CF421C1ED89FE89E15FD3
:101E8000FD4F808140E1849FC00111248815990590
:101E90000CF414C1ED89FE89E45FFD4F80819181CE
:101EA000FC0133960491AD89BE89A45FBD4FBC8708
:101EB000AB872032B9F460E28D899E890E94E30EDF
:101EC0006C01F401E00FF11D8F019501280F391FFE
:101ED000EE24E394A401B5018D899E890E94F70D3B
:101EE0007601F2C0FC013496349131964490231768
:101EF00008F4E8C0622F70E0512CA201430F511D7D
:101F0000641775070CF0DEC0202E312CA101495F4B
:101F10005F4F63E0559547956A95E1F7231BFC01F8
:101F20003491332331F0DC011696FD0160E070E05E
:101F300016C0FC013196E491E111F5CFFC01329617
:101F40001491249FC001259F900D1124189F2001FA
:101F5000199F500C1124A6E04A0E511C1BC03E2FA5
:101F60003A1B321728F43491630F711D3196F7CF65
:101F7000649FF001659FF00D749FF00D112436E011
:101F8000430E511C4E0E5F1EE22FF0E03696E80F16
:101F9000F91F1491E12EF12C882799278E199F099A
:101FA000A816B9060CF490C08827992782199309BE
:101FB000881699060CF488C04D8330E0842F815038
:101FC000898BDA011197BB8BAA8BF1013897FA87BD
:101FD000E987311709F478C01C821B82832F90E0B7
:101FE000AC01440D551D588B4F87D501A80FB91F63
:101FF000B887AF8389899B81891B8E3F08F05CC0BD
:102000004F855889819F400D511D1124AB85BC859A
:10201000ED91FC91E40FF51FE49190E0AC0123E019
:10202000440F551F2A95E1F75A834983AA89BB8932
:102030008A179B0731F4BD81B23018F099858A85E3
:1020400002C099818A81C92ED82E612C712C4E2F05
:1020500050E05E874D87A981BA81CA16DB06E4F09D
:102060002C143D04CCF0ED85FE85062C02C0F595C0
:10207000E7950A94E2F7A601480D591DE0FF02C05A
:1020800001E001C000E02E816F8178858D899E89F5
:102090003C8B0E949B0C3C89FFEF6F1A7F0A4FEF2D
:1020A000C41AD40A58E065167104A9F68B819C8184
:1020B00001969C838B839ECF3F5F8BCFEE24EA9467
:1020C000FE2C02C0E12CF12CC70166960FB6F894E5
:1020D000DEBF0FBECDBFDF91CF911F910F91FF905B
:1020E000EF90DF90CF90BF90AF909F908F907F90B8
:1020F0006F905F904F903F902F9008952F923F9256
:102100004F925F926F927F928F929F92AF92BF9207
:10211000CF92DF92EF92FF920F931F93CF93DF93B3
:10212000CDB7DEB728970FB6F894DEBF0FBECDBF90
:1021300098878F835B016A0119011E830D83FE2C32
:10214000825F9D4F9A838983FC018081F0E28F9F9B
:10215000C0011124681779070CF06EC02F813885F3
:10216000215F3D4F3C832B83F9018081F0E18F9FFC
:10217000C0011124481759070CF05EC0EF81F885A3
:10218000E45FFD4F0190F081E02D3396E4914A0128
:102190008E0E911C97FC50C0EE24E3948401615094
:1021A00071099B018F8198850E94480D2101612C46
:1021B000712CC201821993092D813E8182179307E8
:1021C000DCF5F20121912F010F2DA601B501660D5D
:1021D000771D8F8198850E94120F1816190694F4A6
:1021E000680E791EB501660D771DEE24E394840117
:1021F0009B01A6018F8198850E94480DFFEF6F1A01
:102200007F0A02C0892BC1F4E981FA818081F0E262
:102210008F9FC00111249501260D371D28173907FE
:102220005CF4EB81FC818081F0E18F9FC00111247F
:10223000C816D9060CF4BDCF28960FB6F894DEBFA9
:102240000FBECDBFDF91CF911F910F91FF90EF9007
:10225000DF90CF90BF90AF909F908F907F906F90C6
:102260005F904F903F902F9008956F927F928F9242
:102270009F92AF92BF92CF92DF92EF92FF920F9315
:102280001F93CF93DF93EC016A01490138018C0160
:102290000C5F1D4FD8011D921C927B01A12CB12C0B
:1022A000AC14BD04CCF4F701D7018D917D01DE01A2
:1022B000AA0DBB1D12968C936081CE010E94E30E85
:1022C0000196F80120813181280F391F3183208345
:1022D000FFEFAF1ABF0AE4CFFE01E45FFD4F0190AC
:1022E000F081E02D3396E491DE01AA5FBD4FF0E06E
:1022F000ED93FC93FE01EC0DFD1D1282FE01E65FE5
:10230000FD4F718260823297918280823697D182AE
:10231000C0829E012E5F3F4FE12C8601A301B401D4
:10232000CE010E947E10DF91CF911F910F91FF90FF
:10233000EF90DF90CF90BF90AF909F908F907F9065
:102340006F9008954F925F927F928F929F92AF927B
:10235000BF92CF92DF92EF92FF920F931F93CF9392
:10236000DF93EC015B014A016C0128EFC21A2DEFEB
:10237000D20AD6018D919C911197860F971F8D934C
:102380009C937E01B6EFEB1ABDEFFB0AF7012081AB
:102390003181240F351F318320833697208131818D
:1023A0003195219531098E01025F1D4FD8018217A9
:1023B00093074CF48C91B0E28B9FC0011124F6017D
:1023C000918380830BC04C91B0E24B9FA0011124FC
:1023D000481759074CF4F60131832083CE010E943F
:1023E000270C7724739401C0712CD7012D913C9157
:1023F000FE01EA5FFD4F8081918191958195910960
:102400003996281739074CF48081B0E18B9FC001C1
:102410001124F701918380830BC04081F0E14F9F2D
:10242000A00111244217530744F4D7018D939C93C4
:10243000CE010E94270C77247394892809F0C5C027
:10244000BFEFAB16BB0609F066C020E030E05E01CE
:10245000E0EFAE1AEDEFBE0AF5018081F0E48F9F48
:10246000C0011124281739071CF5D801EC91B4E0FC
:10247000EB9FF0011124C901BF010E940445AF0187
:1024800041505109E881F981E20FF31F8417950744
:1024900021F48081880F8F5F07C08181881F882782
:1024A000881F9081990F890F80832F5F3F4FD4CF72
:1024B000D601CD90DC90A12CB12C2E01B2E04B0EB8
:1024C0005B1EF20180819181A816B9060CF08FC0C5
:1024D0004E018A0C9B1CF4016281CE010E94E30E26
:1024E000D8012C91A601480F591FB0E22B9F9001F3
:1024F00011244217530744F0F7014081518100E055
:10250000D40112962C915CC00196C80ED91EBFEF63
:10251000AB1ABB0AD6CFAA94AB2809F056C0FE016D
:10252000E05FFD4F208140E4249F90011124215061
:102530003109F0F0D8016C91B4E06B9FB001112427
:10254000C9010E940445E881F981E20FF31F892B3C
:1025500021F480818695805809C0DF0111979C91F4
:102560008081869540E8949F800D11248083DFCF81
:10257000D601CD90DC9000E010E05E01B2E0AB0E41
:10258000BB1E05C00196C80ED91E0F5F1F4FD50197
:102590008D919C910817190754F54E01800E911EDC
:1025A000F4016281CE010E94E30E9601280F391FCB
:1025B00037FDE8CFD7014D915C9100E0F401228115
:1025C000B601CE010E94120F12C0FE01EE5FFD4F58
:1025D000008111819E012E5F3F4FF70140815181A3
:1025E000D6016D917C91E12CCE010E947E10872D49
:1025F000DF91CF911F910F91FF90EF90DF90CF90DF
:10260000BF90AF909F908F907F905F904F90089574
:10261000CF92DF92EF92FF926B017C0120E030E0DD
:1026200044EB53E40E94D8410E94AE4220E030E0E7
:1026300044EB53E40E940B449B01AC01C701B6017B
:102640000E94F3406B017C0120E030E0A9010E9470
:10265000D14187FF0AC020E030E044EB53E4C701DA
:10266000B6010E94F4406B017C01C701B601FF90E6
:10267000EF90DF90CF900895CF92DF92EF92FF928C
:102680006B017C0120E030E040EC51E40E94D84135
:102690000E94AE4220E030E040EC51E40E940B4446
:1026A0009B01AC01C701B6010E94F3406B017C01A4
:1026B00020E030E0A9010E94D14187FF0AC020E05C
:1026C00030E040EC51E4C701B6010E94F4406B01D8
:1026D0007C01C701B601FF90EF90DF90CF90089585
:1026E0002BED3FE049E450E40E940B4420E030E051
:1026F00044E353E40E94D8410C946E442F923F92DD
:102700004F925F926F927F928F929F92AF92BF9201
:10271000CF92DF92EF92FF920F931F93CF93DF93AD
:102720008C01EB011A01633071051CF40150110991
:102730002C96B801882777FD8095982F0E947342C8
:1027400020E030E048EC52E40E94D8410E94AE42C2
:102750006B017C0120E030E040E85EE30E940B4426
:102760000E94AE424B015C01B80164597D4E88273E
:1027700077FD8095982F0E94734220E030EA46EB67
:1027800053E40E940B440E94AE422B013C01BE0167
:102790006F5F7F4F882777FD8095982F0E94734247
:1027A00021E03DEC44EF51E40E940B440E94AE4214
:1027B0009B01AC01C301B2010E94F4402B013C011A
:1027C000B101882777FD8095982F0E9473429B0165
:1027D000AC01C301B2010E94F4402B013C01A701EE
:1027E000960160E070E080E090E40E94F340A50173
:1027F00094010E94F4409B01AC01C301B2010E940C
:10280000F44020E030E94EEB54E40E94F340DF91C5
:10281000CF911F910F91FF90EF90DF90CF90BF90DD
:10282000AF909F908F907F906F905F904F903F9070
:102830002F9008954F925F926F927F928F929F9206
:10284000AF92BF92CF92DF92EF92FF92CF93DF933E
:10285000CDB7DEB760970FB6F894DEBF0FBECDBF21
:1028600024E631EA45E15AE40E94F3406B017C0121
:102870002DE430E54CE75FE30E940B4426EB33EC9C
:1028800042EB53E40E94F4400E9408134B015C01A8
:1028900023E633E54CE75FE3C701B6010E940B4432
:1028A00021EC3AE34CE853E40E94F4400E94081300
:1028B0002B013C01C501B4010E94701328EB3EE1DD
:1028C00045EF5FE30E940B449B01AC01C301B201E1
:1028D0000E94F44069877A878B879C87A5019401C1
:1028E000C501B4010E94F4400E9470132AE037ED44
:1028F00043EA5CE30E940B449B01AC0169857A8545
:102900008B859C850E94F4400E9408134B015C015A
:1029100026E036E441EC54E3C701B6010E940B44C3
:102920009B01AC0162E173E88BEB91E40E94F34000
:102930006B017C010E9470136D877E878F87988B57
:10294000C501B4010E94701369877A878B879C87C1
:102950009B01AC016D857E858F8598890E940B4413
:102960000E9458416D877E878F87988B2BED3FE0C3
:1029700049E450E4C501B4010E940B4420E030E07A
:1029800044E353E40E94D8410E94D5414B015C01CD
:102990002BED3FE049E450E4C701B6010E940B442F
:1029A00020E030E044E353E40E94D8410E94D54146
:1029B00029853A854B855C850E940B44A5019401CD
:1029C0000E947E4120E030E044E353E40E940B4447
:1029D0002BED3FE049E450E40E94D84120E030E094
:1029E00040E751E40E94D8410E943C136B017C01F6
:1029F00020E030E044E353E46D857E858F8598893F
:102A00000E940B442BED3FE049E450E40E94D84182
:102A1000B62EAB01BC0149835A836B837C8320E0D3
:102A200030E040E751E4C301B2010E94D841A70160
:102A300096010E94F340E62F462F572FBC014D838D
:102A40005E836F8378872B2D3A814B815C816E2F5B
:102A50007E818F81988560960FB6F894DEBF0FBE99
:102A6000CDBFDF91CF91FF90EF90DF90CF90BF90DF
:102A7000AF909F908F907F906F905F904F90089550
:102A80009093630280936202089590936102809311
:102A900060020895CF93DF93CDB7DEB728970FB6C6
:102AA000F894DEBF0FBECDBF0E941A1429833A836B
:102AB0004B835C8369817A818B819C8128960FB6D8
:102AC000F894DEBF0FBECDBFDF91CF910895CF93B5
:102AD000DF93CDB7DEB728970FB6F894DEBF0FBEF1
:102AE000CDBF0E941A146D837E838F8398876D817A
:102AF0007E818F81988528960FB6F894DEBF0FBE31
:102B0000CDBFDF91CF9108952091C8023091C902C5
:102B10004091CA025091CB020E94F4400E94671576
:102B20009B01AC0160E070E080E491E40E94F3401E
:102B30000C943C134F925F926F927F928F929F9270
:102B4000AF92BF92CF92DF92EF92FF92CF93DF933B
:102B5000CDB7DEB764970FB6F894DEBF0FBECDBF1A
:102B60002B013C0169017A012091C8023091C90210
:102B70004091CA025091CB02C701B6010E94F440B5
:102B80000E944A154B015C01C701B6010E948415E1
:102B900069837A838B839C83C301B2010E94701383
:102BA0006D837E838F839887C501B4010E94701363
:102BB00069877A878B879C87C090D402D090D50292
:102BC000E090D602F090D702C701B6010E947013C0
:102BD0006D877E878F87988B2BED3FE049E450E42B
:102BE000C501B4010E940B4420E030E044E353E40B
:102BF0000E94D8410E94D5414B015C012BED3FE082
:102C000049E450E4C701B6010E940B4420E030E0E3
:102C100044E353E40E94D8410E94D541698B7A8BEA
:102C20008B8B9C8BCD80DE80EF80F884F7FAF0945C
:102C3000F7F8F0942D853E854F85588969857A850A
:102C40008B859C850E940B449B01AC01C701B6019A
:102C50000E94F3406B017C0129893A894B895C8988
:102C6000C501B4010E940B449B01AC01C701B60130
:102C70000E94D8410E94E54020E030E044E353E464
:102C80000E940B442BED3FE049E450E40E94D84100
:102C900029E838E848E85DE30E940B446B017C01B9
:102CA00020E030E044EB52E4C301B2010E94004452
:102CB000A701960118160CF4505869817A818B810E
:102CC0009C810E94F44064960FB6F894DEBF0FBE5C
:102CD000CDBFDF91CF91FF90EF90DF90CF90BF906D
:102CE000AF909F908F907F906F905F904F900895DE
:102CF000CF92DF92EF92FF920F931F93CF93DF93C8
:102D000000D000D0CDB7DEB78C016A017B012091E5
:102D1000C8023091C9024091CA025091CB02C7014A
:102D2000B6010E94F4400E944A159B01AC016091DB
:102D3000D4027091D5028091D6029091D7020E9460
:102D4000F3409F772BED3FE049E450E40E940B44B1
:102D500020E030E044E353E40E94D8410E94B944AB
:102D60009B01AC01B801882777FD8095982F2983B6
:102D70003A834B835C830E94734229813A814B8161
:102D80005C810E94F4409B01AC0160E070E080E84F
:102D90009FE30E94D8410E94A94120E030E044E333
:102DA00053E40E940B442BED3FE049E450E40E94C1
:102DB000D8419058A70196010F900F900F900F9057
:102DC000DF91CF911F910F91FF90EF90DF90CF9007
:102DD0000C949A15209160023091610222303105E5
:102DE000B1F02330310541F02130310561F460E06C
:102DF00070E080E09FE3089520E030E040E752E497
:102E00000E94D841089560E070E0CB01089565E22A
:102E100079E482E19EE308952F923F924F925F9270
:102E20006F927F928F929F92AF92BF92CF92DF92DA
:102E3000EF92FF920F931F93CF93DF93CDB7DEB73F
:102E400028970FB6F894DEBF0FBECDBF1C01DC0182
:102E500014968D909D90AD90BC90179750968D9143
:102E60009D910D90BC91A02D89839A83AB83BC83E7
:102E70009C01AD01C501B4010E94F3400E943C13C6
:102E80006B017C0100916402109165028EE0809FCD
:102E9000F001819FF00D1124EA59FD4F608171818D
:102EA000828193810E94EA16A70196010E940B4439
:102EB0006D837E838F839887F1014080518062808B
:102EC0007380A3019201C301B2010E94D944811110
:102ED00087C0A3019201C501B4010E94F3400E9482
:102EE0003C132D813E814F8158850E940044181665
:102EF0000CF476C08EE0809FF001819FF00D1124CC
:102F0000EA59FD4F8185811105C0628573858485ED
:102F1000958504C060E070E080E991E40E94EA16C3
:102F2000A70196010E940B442B013C01D101589648
:102F30008D909D90AD90BC905B97A5019401C501CB
:102F4000B4010E94D94481115AC029813A814B8130
:102F50005C81C501B4010E94F3400E943C13A301AF
:102F600092010E94004418160CF449C08EE0809F24
:102F7000F001819FF00D1124EA59FD4F84818111E8
:102F800005C0658176818781908504C060E070E02E
:102F900080E890E40E94EA16A70196010E940B4483
:102FA0004B015C01F101C488D588E688F788A70148
:102FB0009601C701B6010E94D94481112EC0298112
:102FC0003A814B815C81C701B6010E94F3400E94A7
:102FD0003C13A50194010E9400441816F4F02CC083
:102FE0002D813E814F815885C501B4010E94F34077
:102FF000D1016D937D938D939C9313977BCFA30108
:10300000920169817A818B819C810E94F440F10157
:10301000608F718F828F938FA9CFA50194016981F1
:103020007A818B819C810E94F440D10154966D93EA
:103030007D938D939C93579728960FB6F894DEBF97
:103040000FBECDBFDF91CF911F910F91FF90EF90F9
:10305000DF90CF90BF90AF909F908F907F906F90B8
:103060005F904F903F902F900895EF92FF920F93B3
:103070001F93CF93DF93EC018C01E12CF12C20E026
:1030800030E040E751E46091D0027091D10280912C
:10309000D2029091D3020E94D8419B01AC01609171
:1030A000CC027091CD028091CE029091CF020E940D
:1030B000F3409B01AC01F8016081718182819381B1
:1030C0000E94F440F80161937193819391938F0171
:1030D000FFEFEF1AFF0A87E0E816F10481F620E01F
:1030E00030E040E752E460915C0270915D028091B3
:1030F0005E0290915F020E94D8419B01AC016885FD
:1031000079858A859B850E94F440688779878A87BC
:103110009B8700916402109165028EE0809FF00110
:10312000819FF00D1124EA59FD4F84818823B1F06D
:1031300020E030E040E752E4658176818781908528
:103140000E94D8419B01AC01688979898A899B8951
:103150000E94F4406C8B7D8B8E8B9F8B8EE0809FCA
:10316000F001819FF00D1124EA59FD4F81858823DC
:10317000B1F020E030E040E752E462857385848559
:1031800095850E94D8419B01AC016C897D898E890F
:103190009F890E94F440688F798F8A8F9B8F8091DE
:1031A000600290916102892B49F0CE01DF91CF91AD
:1031B0001F910F91FF90EF900C940C17DF91CF911E
:1031C0001F910F91FF90EF9008950F931F93CF934E
:1031D000DF938C01C0E0D0E020E030E040EC51E42F
:1031E000F80160817181828193810E94D841F80148
:1031F00061937193819391938F012196C730D1058B
:1032000059F7DF91CF911F910F910895CF92DF92DF
:10321000EF92FF921F93CF93DF93EC010E94E5188A
:10322000C880D980EA80FB80809164029091650219
:103230001EE0189FF001199FF00D1124EA59FD4F6F
:10324000208131814281538160E070E084E393E426
:103250000E94F340A70196010E949A156883798322
:103260008A839B832C813D814E815F8161EC7AE270
:1032700083E393E40E949A156C837D838E839F83FE
:10328000688579858A859B850E94841568877987FA
:103290008A879B874C855D856E857F8580916202DC
:1032A0009091630201960E9478166C877D878E87C5
:1032B0009F87288939894A895B896DE77FE385E59E
:1032C0009FE30E949A15688B798B8A8B9B8B2C8944
:1032D0003D894E895F898091640290916502189FB3
:1032E000F001199FF00D1124EA59FD4F6581768197
:1032F000878190850E949A156C8B7D8B8E8B9F8B1E
:10330000288D398D4A8D5B8D809164029091650284
:10331000189FF001199FF00D1124EA59FD4F6285A5
:103320007385848595850E949A15688F798F8A8F19
:103330009B8FDF91CF911F91FF90EF90DF90CF9007
:1033400008950F931F93CF93DF93CDB7DEB76C979C
:103350000FB6F894DEBF0FBECDBF8C018CE1E7E065
:10336000F1E0DE01119601900D928A95E1F7DE0100
:103370001196F8019E01235E3F4F4D915D916D9135
:103380007D914193519361937193A217B307A9F76C
:10339000C8010E940619C8016C960FB6F894DEBFEA
:1033A0000FBECDBFDF91CF911F910F910C943518B7
:1033B0002F923F924F925F926F927F928F929F9245
:1033C000AF92BF92CF92DF92EF92FF920F931F9333
:1033D000CF93DF93CDB7DEB72D883E880093D4021C
:1033E0001093D5022093D6023093D702C092D00218
:1033F000D092D102E092D202F092D3028092CC021B
:103400009092CD02A092CE02B092CF020E947E1383
:103410002B013C0120E030E044EB53E4C701B6014E
:103420000E94D8419B01AC01C301B2010E94F3404C
:103430006093C8027093C9028093CA029093CB0232
:10344000C101DF91CF911F910F91FF90EF90DF901D
:10345000CF90BF90AF909F908F907F906F905F9034
:103460004F903F902F900C94A119909365028093F8
:10347000640208956093BA027093BB028093BC0209
:103480009093BD0286E090E0909365028093640281
:1034900008951092C3026093C4027093C502809392
:1034A000C6029093C70286E090E0909365028093F5
:1034B00064020895CF92DF92EF92FF920F931F93D1
:1034C000CF93DF938A01E90129E838E848E05CE31B
:1034D0000E94F4400E943C136B017C010E94AE42AA
:1034E0000E944042F80171836083882777FD8095B0
:1034F000982F0E9473429B01AC01C701B6010E9444
:10350000F34020E030E040E752E40E940B440E9488
:10351000AE420E94404279836883DF91CF911F9130
:103520000F91FF90EF90DF90CF900895833069F472
:103530008FEF80938A0580938B0597E990938C0594
:1035400091E490938D0591E33AC0843099F48FEF24
:1035500080938A0595E190938B0591E490938C0577
:1035600097E890938D059DE890938E059DEE90933E
:103570008F05CAC18530A1F48FEF80938A0591EE43
:1035800090938B0591EA90938C0597E890938D0525
:103590009DE890938E0591E490938F0593E3C9C1C4
:1035A000863089F48FEF80938A0599E190938B059B
:1035B00091E490938C0591E390938D0593E3909320
:1035C0008E0591EA23C1883099F48FEF80938A05A4
:1035D00091E490938B0523EB20938C0590938D05BC
:1035E00097E990938E0597E890938F059DE8A1C188
:1035F000893071F48FEF80938A0580938B058093D7
:103600008C0591E890938D0595E890938E05EAC01E
:103610008A3071F48FEF80938A0580938B058093B5
:103620008C0591E890938D0597E190938E05EEC0FF
:103630008B30A1F48FEF80938A059DEE90938B05DC
:1036400097E890938C059DE890938D0599E1909370
:103650008E0599E290938F0591E46BC18C3091F4C3
:103660008FEF80938A0580938B0599E190938C0569
:1036700091EA90938D0521E320938E0590938F0519
:1036800095E357C18D3061F48FEF80938A05809365
:103690008B0591E690938C0591EA90938D050DC072
:1036A0008E3091F48FEF80938A0580938B0591E49F
:1036B00090938C0529E120938D0525E320938E05B9
:1036C00090938F0597E935C18F30B9F487E88093DF
:1036D0008A058DE880938B0581E480938C0589E0D1
:1036E00080938D0585E380938E0587E980938F0510
:1036F0008DEE8093900581E336C1803169F48FEFC0
:1037000080938A0580938B059DEE90938C0599E1BB
:1037100090938D0599E277C08131A1F48FEF80936A
:103720008A0599E190938B0593E390938C0591E43E
:1037300090938D0595E890938E0591E390938F0576
:1037400099E2F7C08231B9F48FEF80938A058DEE4C
:1037500080938B058DE080938C0581E880938D05A7
:1037600087E880938E058DE880938F0581E48093B0
:10377000900585E3F8C0843199F483E380938A054A
:1037800081E480938B0597E890938C059DE8909356
:103790008D0591E390938E0580938F0585E3E0C0BE
:1037A000853199F480938A0581EA80938B0587E9B6
:1037B00080938C0581E480938D0585E880938E0548
:1037C00089E080938F058FEF23C08A3A71F48FEFE1
:1037D00080938A0580938B0580938C0580938D055B
:1037E00080938E0580938F0513C08631A1F48FEFEF
:1037F00080938A0580938B0595E190938C0591E8E1
:1038000090938D0593E390938E0591E490938F05AB
:1038100080939005A8C08731A9F48FEF80938A0523
:1038200091EE90938B0581E480938C0521E62093A3
:103830008D0521EB20938E0590938F058093900545
:1038400083EB91C0883191F48FEF80938A0593E3E5
:1038500090938B0527E920938C0590938D0593EB2E
:1038600090938E0580938F059DEE63C0893191F40E
:103870008FEF80938A0593E390938B0527E920933C
:103880008C0590938D0593EB90938E0580938F0517
:1038900093E44FC08A3191F48FEF80938A0593E3CC
:1038A00090938B0527E920938C0590938D0593EBDE
:1038B00090938E0580938F0599E43BC08B3191F4F2
:1038C0008FEF80938A0593E390938B0527E92093EC
:1038D0008C0590938D0593EB90938E0580938F05C7
:1038E0009DE227C08C3191F48FEF80938A0593E39A
:1038F00090938B0527E920938C0590938D0593EB8E
:1039000090938E0580938F0599E113C08D31A1F4BA
:103910008FEF80938A0593E390938B0527E920939B
:103920008C0590938D0593EB90938E0580938F0576
:1039300091E19093900517C08E31B9F485E18093A1
:103940008A0585E380938B0591EA90938C0593E338
:1039500090938D0591E390938E0591E490938F055C
:10396000809390058FEF809391050895EF92FF92D9
:103970000F931F93CF93DF931F92CDB7DEB702EE65
:1039800012E0E12CF12CF80161918F01C7016983EC
:103990000E9483476981681719F0C7010E948B470D
:1039A000FFEFEF1AFF0A86E4E816F10461F782EEF2
:1039B00092E00F90DF91CF911F910F91FF90EF90C8
:1039C00008950F931F93CF93DF9302EE12E0C0E0B0
:1039D000D0E0CE010E948347F80181938F012196A8
:1039E000C634D105B1F782EE92E0DF91CF911F91FD
:1039F0000F910895DC01ED91FC910190F081E02D93
:103A000009940F931F93CF93DF93CDB7DEB72C9715
:103A10000FB6F894DEBF0FBECDBF082F162F8CE077
:103A2000E3E2F1E0DE01119601900D928A95E1F753
:103A300021E030E0633010F020E030E0FA01E21BDA
:103A4000F30B9F01F7FF02C02D5F3F4F3595279580
:103A5000359527952E0F3F1FCF016CE97FEF0E9410
:103A60000445260F371FCF0160E971E00E9404452D
:103A7000260F371FFE01E10FF11D8081280F311D38
:103A8000200F311DC90167E070E00E9404458111DB
:103A900001C087E090E02C960FB6F894DEBF0FBE11
:103AA000CDBFDF91CF911F910F910895982F9295DF
:103AB0009F708F702AE0929F800D112408956AE014
:103AC0000E94E44420E1829F900D1124892F0895E3
:103AD0001A9A64E670E080E090E00E94163B1A9823
:103AE0008DE20E94193C892B39F466E970E080E090
:103AF00090E00E94163BF4CF089590E0FC013897C7
:103B0000E730F10508F088C0E459FF4F0C943A45BE
:103B10008CE00E94961A8CE090E02FEF30EF380F87
:103B2000343020F0FC01EA57FA4F208301968432AA
:103B30009105A1F708958DE00E94961A8CE090E01F
:103B40002FEF3CEE380F343020F0FC01EA57FA4FEB
:103B50002083019684329105A1F708958EE00E949A
:103B6000961A8CE090E02FEF38EE380F343020F0CA
:103B7000FC01EA57FA4F2083019684329105A1F7A0
:103B800008958FE00E94961A8CE090E02FEF34EEBB
:103B9000380F343020F0FC01EA57FA4F20830196A9
:103BA00084329105A1F7089580E10E94961A8CE075
:103BB00090E02FEFFC01EA57FA4F20830196803204
:103BC0009105C1F7089585E00E94961A8CE090E077
:103BD0002FEF3CEE380F343020F0FC01EA57FA4F5B
:103BE0002083019684329105A1F7089584E090E046
:103BF0002FEFFC01EA57FA4F208301968C30910594
:103C0000C1F78CE090E02FEFFC01EA57FA4F2083D8
:103C1000019684329105C1F708954F925F926F9299
:103C20007F928F929F92AF92BF92CF92DF92EF924C
:103C3000FF920F931F93CF93DF9300D000D0CDB7A7
:103C4000DEB79C01220F331F220F331FF901ED5BFA
:103C5000F14F4590559065907490F901E15BF64FF6
:103C6000C590D590E590F490FC01EE5EF74F64911D
:103C7000892B91F460911E03409020035090210302
:103C80006090220370902303C0902403D0902503FA
:103C9000E0902603F090270370E080E090E00E941F
:103CA00071424B015C014091B0055091B1056091AA
:103CB000B4057091B50528E233E03F932F9393014B
:103CC00082018091B6059091B7050E94D819609144
:103CD00028037091290380912A0390912B039E0160
:103CE0002F5F3F4FAE014D5F5F4F0E945A1A2B81ED
:103CF0003C811CE3129FC001139F900D1124298168
:103D00003A81820F931F9093BB058093BA0560910F
:103D100030037091310380913203909133039E01FF
:103D20002F5F3F4FAE014D5F5F4F0E945A1A2B81AC
:103D30003C81129FC001139F900D112429813A816B
:103D4000820F931F9093BD058093BC05609134034F
:103D50007091350380913603909137039E012F5F58
:103D60003F4FAE014D5F5F4F0E945A1A2B813C813D
:103D7000129FC001139F900D112429813A81820F57
:103D8000931F9093BF058093BE0560913C03709193
:103D90003D0380913E0390913F039E012F5F3F4F73
:103DA000AE014D5F5F4F0E945A1A2B813C81129FDA
:103DB000C001139F900D112429813A81820F931F16
:103DC0009093C1058093C0056091400370914103B9
:103DD00080914203909143039E012F5F3F4FAE01BC
:103DE0004D5F5F4F0E945A1A2B813C81129FC00188
:103DF000139F900D112429813A81820F931F2091E6
:103E0000BA053091BB052E5F3F4F3093BB05209321
:103E1000BA052091BC053091BD052E5F3F4F309310
:103E2000BD052093BC052091BE053091BF052E5FD6
:103E30003F4F3093BF052093BE052091C0053091C0
:103E4000C1052E5F3F4F3093C1052093C0050296F8
:103E50009093C3058093C20580911303909114033E
:103E60000F900F901816190624F49093BB058093B9
:103E7000BA0580911503909116031816190624F4BB
:103E80009093BD058093BC05809117039091180312
:103E90001816190624F49093BF058093BE058091EF
:103EA000190390911A031816190624F49093C1056A
:103EB0008093C00580911B0390911C03181619066E
:103EC00024F49093C3058093C2058091BA05909124
:103ED000BB052091090330910A03820F931F909331
:103EE000BB058093BA052091BC053091BD0540917A
:103EF0000B0350910C03240F351F3093BD05209305
:103F0000BC052091BE053091BF0540910D03509135
:103F10000E03240F351F3093BF052093BE0520915B
:103F2000C0053091C10540910F0350911003240F3B
:103F3000351F3093C1052093C0052091C2053091F3
:103F4000C3054091110350911203240F351F309384
:103F5000C3052093C2050A979093B9058093B805CD
:103F60000F900F900F900F90DF91CF911F910F91B5
:103F7000FF90EF90DF90CF90BF90AF909F908F9089
:103F80007F906F905F904F90089598E087FF02C0F8
:103F9000DD9A01C0DD98880F811DDE9ADE98915070
:103FA000A9F70895CF93DF93DC988091E0058130E5
:103FB00021F480918805877F03C0809188058860FF
:103FC00080938805C3E2D0E0FE01EA57FA4F808172
:103FD0000E94C51F2197C0F7DC9ADF91CF91089509
:103FE0000F931F93CF93DF93482F823019F08F30B8
:103FF00009F09DC18091AE059091AF052AE030E0B7
:10400000B9010E940445FB01EF5DFD4F50815093C3
:104010008605FC01EF5DFD4F8081809387058091CF
:10402000AC059091AD05B9010E940445FB01EF5D1F
:10403000FD4F208120938805FC01EF5DFD4F8081BD
:1040400080938905443009F04AC08091B20590916F
:10405000B3052AE030E0B9010E940445FB01EA5EA5
:10406000FD4F508150938A05FC01EA5EFD4F80812F
:1040700080938B05CFE7C0938C058091B405909118
:10408000B505B9010E940445FB01EA5EFD4F508170
:1040900050938D05FC01EA5EFD4F808180938E0573
:1040A000C0938F05E091B605F091B705CF01805D13
:1040B0009740B9010E9404456A5E7D4FDB018C91F7
:1040C00080939005CF01B9010E9404458A5E9D4FFF
:1040D000FC01808180939105473129F407C04F305E
:1040E00009F028C1B2CF4F3009F027C12091B8059F
:1040F0003091B905C8E5D2E0C901BE010E9404456E
:10410000655F7D4FDB018C9180939205ECE3F0E0DD
:10411000C901BF010E9404458C012AE030E0CB01B7
:10412000B9010E940445855F9D4FDC018C9180930D
:104130009305C801B9010E940445DB01A55FBD4F8D
:104140004C9140939405DC01A55FBD4F8C91809309
:1041500095050091BA051091BB05C801BE010E94EA
:104160000445655F7D4FDB018C9180939605C80106
:10417000BF010E9404458C01CB01B9010E94044596
:10418000855F9D4FDC018C9180939705C801B90133
:104190000E940445DB01A55FBD4F4C9140939805FB
:1041A000DC01A55FBD4F8C91809399050091BC0502
:1041B0001091BD05C801BE010E940445655F7D4F99
:1041C000DB018C9180939A05C801BF010E940445D0
:1041D0008C01CB01B9010E940445855F9D4FDC0134
:1041E0008C9180939B05C801B9010E940445DB01B5
:1041F000A55FBD4F4C9140939C05DC01A55FBD4F71
:104200008C9180939D050091BE051091BF05C8015A
:10421000BE010E940445655F7D4FDB018C91809358
:104220009E05C801BF010E9404458C01CB01B90164
:104230000E940445855F9D4FDC018C9180939F0512
:10424000C801B9010E940445DB01A55FBD4F4C9137
:104250004093A005DC01A55FBD4F8C918093A10523
:104260000091C0051091C105C801BE010E9404451E
:10427000655F7D4FDB018C918093A205C801BF0172
:104280000E9404458C01CB01B9010E940445855F61
:104290009D4FDC018C918093A305C801B9010E9458
:1042A0000445DB01A55FBD4F4C914093A405DC01A3
:1042B000A55FBD4F8C918093A5050091C20510911B
:1042C000C305C801BE010E940445655F7D4FDB0147
:1042D0008C918093A605C801BF010E940445EC01A2
:1042E000CB01B9010E940445855F9D4FFC0180818F
:1042F0008093A705CE01B9010E940445FB01E55F4B
:10430000FD4F20812093A805FC01E55FFD4F8081D2
:104310008093A9058DE090E0FC01EA57FA4F2081D7
:104320002E7F2083049685329105B1F706C0843034
:1043300009F48BCE473109F4D9CEDF91CF911F918B
:104340000F910895873079F48FEF80938A058093D9
:104350008B0591E490938C0525E320938D05909334
:104360008E0591E611C08130A1F48FEF80938A050C
:1043700099E190938B0593E090938C0595E8909349
:104380008D052DEE20938E0590938F0580939005DB
:1043900015C08230B1F48FEF80938A0529E1209314
:1043A0008B0593E090938C0593EB90938D0591E4AE
:1043B00090938E0520938F0590939005809391059F
:1043C00008950C94961AAF92BF92CF92DF92EF921B
:1043D000FF920F931F93CF93DF93CDB7DEB7D250E9
:1043E0000FB6F894DEBF0FBECDBF6C018091DC022A
:1043F0009091DD02843F914024F01092DD021092F2
:10440000DC028E010F5F1F4F78018091DC029091DA
:10441000DD02843F91400CF03EC08091DC0290911F
:10442000DD028C0D9D1D0E948347F80181938F0151
:104430002091DC023091DD022F5F3F4F3093DD028F
:104440002093DC025F01AE18BF088A30F1F4F70157
:10445000EA0DFB1D108261E08EE693E00E94360DAE
:1044600000E010E02FE730E0A501B7018EE693E011
:104470000E9435118091DC029091DD028C0D9D1D12
:104480000E948347811107C002C08111BECF1092E4
:10449000DD021092DC02DE5F0FB6F894DEBF0FBEC5
:1044A000CDBFDF91CF911F910F91FF90EF90DF90E3
:1044B000CF90BF90AF9008950F931F93CF93DF934A
:1044C000EC0111E18EE693E00E94340E1150D1F719
:1044D000C79A0E94E63A0091DE021091DF02209115
:1044E000E0023091E102601B710B820B930B63328F
:1044F000710581059105B8F040E050E06FEF7FEF66
:104500008EE693E00E94A211882319F0CE010E944A
:10451000E3210E94E63A6093DE027093DF0280930B
:10452000E0029093E102DF91CF911F910F910895E6
:10453000CF93DF931A9A64E670E080E090E00E94E7
:10454000163B1A98C2E3D0E085E00E94193C892B03
:1045500041F40E94D21F8CEB92E00E945C222197D2
:1045600099F7DF91CF910895CF93DF931A9A64E67C
:1045700070E080E090E00E94163B1A98C2E3D0E021
:104580008EE20E94193C892B41F40E94D21F8CEBD1
:1045900092E00E945C22219799F7DF91CF910895D4
:1045A0009F92AF92BF92CF92DF92EF92FF920F93C2
:1045B0001F93CF93DF93A82E7B018A012CE030E07C
:1045C0008FEFF901EA57FA4F80832F5F3F4F243274
:1045D0003105B9F7912CCA2DD0E0CC0FDD1FC6559F
:1045E000DA4F6E01BB24BA948DE20E94193C019708
:1045F00009F074C0939484E6891508F4912C85E041
:104600000E94193C892BA9F4288139812F5F3F4FE3
:10461000021713071CF03983288302C0F982E8824D
:1046200082E00E94F01F84E00E94F01F0E94982206
:10463000912C8EE20E94193C892BC9F42881398182
:10464000215031092E153F0534F02F3F310519F067
:104650003983288303C0F6011183008382E00E941E
:10466000F01F84E00E94F01F0E94B422912C82E08F
:104670000E94F01F84E00E94F01FF2E3F91538F564
:1046800081E0A81205C0B0928805B09289051FC0CC
:10469000E2E0AE1205C0B0928605B092870517C061
:1046A000F4E0AF1205C0B0928A05B0928B050FC03E
:1046B00085E0A81205C0B0928D05B0928E0507C0A6
:1046C000E6E0AE1204C0B0929005B09291050E944F
:1046D000D21F8CEB92E00E945C2286CFDF91CF91BB
:1046E0001F910F91FF90EF90DF90CF90BF90AF9010
:1046F0009F900C94681D9F92AF92BF92CF92DF92D1
:10470000EF92FF920F931F93CF93DF93EB016A0118
:1047100079016CE070E09FEFFB01EA57FA4F90835C
:104720006F5F7F4F64327105B9F70E94A221912C0F
:10473000BB24BA946FE7A62E04E610E08DE20E9437
:10474000193C019709F0A7C0939484E6891508F4F1
:10475000912C82E00E94F01FC436D1056CF0CE018E
:10476000B8010E9404459093AD058093AC05709309
:10477000AF056093AE0512C0B0928605B092870572
:10478000D7FDA0928705CE01D7FF04C088279927BF
:104790008C1B9D0B9093AD058093AC0585E00E942A
:1047A000193C892BA1F52196EC16FD060CF4E601C7
:1047B00082E00E94F01FC436D1056CF0CE01B80132
:1047C0000E9404459093AD058093AC057093AF05AE
:1047D0006093AE0519C0B0928605B0928705D7FDEB
:1047E000A0928705CE01D7FF04C0882799278C1B8C
:1047F0009D0B9093AD058093AC05B0928605B09269
:104800008705D7FDA09287050E949822912C8EE201
:104810000E94193C892BA9F52197CC15DD050CF4D4
:10482000E70182E00E94F01FC436D1056CF0CE0192
:10483000B8010E9404459093AD058093AC05709338
:10484000AF056093AE0519C0B0928605B09287059A
:10485000D7FDA0928705CE01D7FF04C088279927EE
:104860008C1B9D0B9093AD058093AC05B092860593
:10487000B0928705D7FDA09287050E94B422912CA3
:1048800003C081E3891510F00E94D21F8CEB92E0E7
:104890000E945C2253CF0E94681DCE01DF91CF9110
:1048A0001F910F91FF90EF90DF90CF90BF90AF904E
:1048B0009F90089541E062E08EE693E00E94360CFE
:1048C00084EF91E0A0E0B0E080934E0390934F031B
:1048D000A0935003B09351038AE0EFE2F1E0ACE51E
:1048E000B3E001900D928A95E1F71092660382E0A1
:1048F0008093670310926C0310926D030895DF920A
:10490000EF92FF920F931F93CF93DF93C6EBD5E007
:104910004881598104EB15E072EBE72E75E0F72E24
:10492000F8016081F70180810E94011DD82E68E6A0
:1049300070E081EE95E00E94053860E070E081EE65
:1049400095E00E94FA1C8091AA050E945F1D682FC5
:1049500081EE95E00E94B2378091AC050E945F1D08
:10496000682F81EE95E00E94B2378091AE050E94DB
:104970005F1D682F81EE95E00E94B2378D2D0E9459
:104980005F1D682F81EE95E00E94B237F7018081AC
:104990000E945F1D682F81EE95E00E94B237F801FA
:1049A00080810E945F1D682F81EE95E00E94B237E2
:1049B0008881805D0E945F1D682F81EE95E00E94D6
:1049C000B23781EE95E0DF91CF911F910F91FF906B
:1049D000EF90DF900C947E381F93CF93DF938DE29E
:1049E0000E94193C892B81F50E94681D47E150E027
:1049F00060E070E082E00E94D0224BE350E060E093
:104A000070E081E00E94D0224FE150E061E070E070
:104A100084E00E94D0224CE050E061E070E085E04C
:104A20000E94D02243E358E060ED77E086E00E94E8
:104A3000D0220E947F248091E2029091E3020E94A2
:104A40000D1E8FE00E94F01F85E00E94193C892B0B
:104A500009F0B7C00E94982283E08093E50280931A
:104A6000E6028093E7028093E8028093E902809354
:104A7000EA026091EB0270E023E630E040E050E0B3
:104A80008CE00E947B238093EB026091EC0270E04B
:104A900023E630E040E050E08DE00E947B238093ED
:104AA000EC026091ED0270E023E630E040E050E07F
:104AB0008EE00E947B238093ED026091EE0270E015
:104AC00023E630E040E050E08FE00E947B238093BB
:104AD000EE026091EF0270E023E630E040E050E04B
:104AE00080E10E947B238093EF026091F00270E0EE
:104AF00023E630E040E050E08EE10E947B2380938B
:104B0000F0026091F10270E023E630E040E050E016
:104B100081E10E947B238093F1028093F2028093D3
:104B2000F3028093F4028093F5028093F602609181
:104B3000E40270E023E630E040E050E088E00E94CC
:104B40007B238093E4028091070390910803CCE3D8
:104B5000D0E0BE010E94044523E630E040E050E092
:104B60008AE00E947B231CE39C01129FC001139FDB
:104B7000900D112490930803809307038091010303
:104B800090910203BE010E94044523E630E040E01C
:104B900050E089E00E947B239C01129FC001139F7B
:104BA000900D112490930203809301030E94B61C80
:104BB0008091E2029091E3020E940D1E8FE00E941C
:104BC000F01F8EE20E94193C892B09F094C0C0E0CE
:104BD0008EE20E94193C892B09F08DC064E670E0DA
:104BE00080E090E00E94163BCF5FC23389F70E94BD
:104BF000B4226091E2027091E3022CE331E040E0E4
:104C000050E086E10E947B239093E3028093E202CE
:104C10006091090370910A032AE030E046EF5FEFEC
:104C200087E10E947B2390930A038093090390936A
:104C30000C0380930B0390930E0380930D039093CA
:104C4000100380930F0390931203809311036091DC
:104C5000F70270E023E630E040E050E088E10E9497
:104C60007B238093F7026091F80270E023E630E046
:104C700040E050E089E10E947B238093F80260913C
:104C8000F90270E023E630E040E050E08AE10E9463
:104C90007B238093F9026091FA0270E023E630E012
:104CA00040E050E08BE10E947B238093FA02609108
:104CB000FB0270E023E630E040E050E08CE10E942F
:104CC0007B238093FB026091FC0270E023E630E0DE
:104CD00040E050E08DE10E947B238093FC020E9423
:104CE000B61C8091E2029091E3020E940D1E8FE0BB
:104CF0000E94F01F6DCFDF91CF911F91089568E65C
:104D000070E081EE95E00E94053860E070E081EE91
:104D100095E00E94FA1C81EE95E00E947E3847E003
:104D200050E068E670E081EE95E00E947B388730C5
:104D300009F04FC081EE95E00E9462370E94561D37
:104D400090E09093AB058093AA0581EE95E00E94D8
:104D500062370E94561D90E09093AD058093AC059C
:104D600081EE95E00E9462370E94561D90E090937C
:104D7000AF058093AE0581EE95E00E9462370E94F8
:104D8000561D90E09093B1058093B00581EE95E0BB
:104D90000E9462370E94561D90E09093B305809365
:104DA000B20581EE95E00E9462370E94561D90E0A8
:104DB0009093B5058093B40581EE95E00E9462372B
:104DC0000E94561D90E08053984F9093B7058093B2
:104DD000B60508950E94E63A6093DE027093DF0202
:104DE0008093E0029093E10261E088E20E94AA3B96
:104DF00061E086E20E94AA3B61E087E20E94AA3B52
:104E000061E082E00E94AA3B62E085E00E94AA3B4A
:104E100062E08DE20E94AA3B62E08EE20E94AA3B21
:104E200026E040E855E260E070E087E497E00E9409
:104E3000363D26E040E855E260E070E08AEA96E020
:104E40000E94363D81EE95E00E94F13721E041E07D
:104E50006AEA76E088E493E00E94F10B40E550E0D6
:104E600060E070E087E497E00E94763F82E090E0A7
:104E70000E94351A80E090E00E94401583E090E0A7
:104E80000E94451560E070E080EA91E40E943A1AC1
:104E900060E070E080E991E40E94491A1A9A61E0AA
:104EA0008EE693E00E94360D68EA71E08EE693E0AC
:104EB0000E94DD0E6AEF70E080E090E00E94163BF9
:104EC0001A980E94E11C0E947F268091E202909134
:104ED000E3020E940D1E69E188E493E00E94E90B61
:104EE00061E070E088E493E00E94E50B8CEB92E0D7
:104EF0000E94E3218FE00C94F01F3F924F925F924B
:104F00006F927F928F929F92AF92BF92CF92DF92D9
:104F1000EF92FF920F931F93CF93DF93882E1092FF
:104F2000DD021092DC0288E493E00E94210C88E00C
:104F3000881221C09090E4020E94E63A6B017C0145
:104F40002091E50230E0A0E6BAEE0E944045C60E90
:104F5000D71EE81EF91EC091EB028CE3C89FE0014A
:104F60001124A090F102B12C84E690E00E94E3218C
:104F700004E610E0B6C089E0881221C09090E402F7
:104F80000E94E63A6B017C012091E60230E0A0E647
:104F9000BAEE0E944045C60ED71EE81EF91EC0910B
:104FA000EC028CE3C89FE0011124A090F202B12C26
:104FB00088EC90E00E94E32108EC10E092C08AE0C7
:104FC000881221C09090E4020E94E63A6B017C01B5
:104FD0002091E70230E0A0E6BAEE0E944045C60EFE
:104FE000D71EE81EF91EC091ED028CE3C89FE001B8
:104FF0001124A090F302B12C8CE291E00E94E321F5
:105000000CE211E06EC08BE0881221C09090E402A7
:105010000E94E63A6B017C012091E80230E0A0E6B4
:10502000BAEE0E944045C60ED71EE81EF91EC0917A
:10503000EE028CE3C89FE0011124A090F402B12C91
:1050400080E991E00E94E32100E911E04AC08CE090
:10505000881221C09090E4020E94E63A6B017C0124
:105060002091E90230E0A0E6BAEE0E944045C60E6B
:10507000D71EE81EF91EC091EF028CE3C89FE00125
:105080001124A090F502B12C84EF91E00E94E3215D
:1050900004EF11E026C004E610E0F3E09F2E8DE05F
:1050A00088121FC00E94E63A6B017C012091EA023F
:1050B00030E0A0E6BAEE0E944045C60ED71EE81EBC
:1050C000F91EC091F0028CE3C89FE0011124A0906A
:1050D000F602B12C88E592E00E94E32108E512E097
:1050E000912C332433940E94E63A6C157D058E058D
:1050F0009F0508F049C00E947F2682E00E94F01FB1
:105100000E94E63A2B013C0184EF480E81E0581ED4
:10511000611C711C87E10E94F01F882D0E947D1D7B
:105120003092E0050E94D21F0E94E63A6415750590
:105130008605970538F4C8010E945C229920A1F3E6
:105140001A9AF2CF0E94E63A2B013C0184EF480EF6
:1051500081E0581E611C711C8EE00E947D1D109222
:10516000E0050E94D21F0E94E63A64157505860587
:10517000970528F41A98C8010E945C22F4CF992060
:1051800009F4B1CF9A94AFCF209709F48FC08CE087
:1051900090E02FEFFC01EA57FA4F2083019684320A
:1051A0009105C1F78DE0881202C08EE101C082E155
:1051B0000E94961A1A9A6EEE72E080E090E00E94C9
:1051C000163B1A98ECE3EE2EF12CDD24D394CE019D
:1051D000B7010E9404457093AF056093AE059093AC
:1051E000AD058093AC05D092E00582E00E94F01FEF
:1051F0000E94E63A2B013C0184EF480E81E0581EE4
:10520000611C711C82E10E94961A0E94D21F0E94AA
:10521000E63A641575058605970540F4C330D10557
:105220000CF41A9AC8010E945C22F1CF0E94E63A5F
:105230002B013C0184EF480E81E0581E611C711C5B
:105240001092E00582E00E94F01F8EE00E947D1D1A
:105250000E94D21F0E94E63A6415750586059705DF
:1052600028F4C8010E945C221A98F4CF2197CE013D
:10527000B7010E9404457093AF056093AE0590930B
:10528000AD058093AC0582E00E94F01F0E94D21F02
:10529000C8010E945C22209709F099CF1A9A60ED0C
:1052A00077E080E090E00E94163B1A988EE00E9422
:1052B0007D1D8CE38A9DE0018B9DD00D112461E062
:1052C0008EE693E00E94360D11E0209709F45EC04F
:1052D0000E947F261093E00582E00E94F01F0E944A
:1052E000E63A6B017C0184EFC80E81E0D81EE11C18
:1052F000F11C00E02AE340E050E06CE370E08EE651
:1053000093E00E94120F2AE340E050E061E470E075
:105310008EE693E00E94120F0E94E63A6C157D051E
:105320008E059F0558F40E94D21F01E18EE693E09E
:105330000E94340E0150D1F7C79AEECF0E94E63A90
:105340006B017C0184EFC80E81E0D81EE11CF11CCA
:105350001092E00582E00E94F01F61E08EE693E08B
:105360000E94360D0E94E63A6C157D058E059F055C
:1053700058F40E94D21F01E18EE693E00E94340EA1
:105380000150D1F7C79AEECF21979FCF8CEB92E0D7
:105390000E94E3211092DD021092DC02DF91CF9196
:1053A0001F910F91FF90EF90DF90CF90BF90AF9043
:1053B0009F908F907F906F905F904F903F90089557
:1053C000CF92DF92EF92FF92CF93DF938091AE0561
:1053D0009091AF052CE3289FE001299FD00D112467
:1053E0008091AC059091AD05C80FD91F2091F702AF
:1053F0008091BA059091BB05821B9109C817D90706
:1054000031F4222321F088E493E00E94240C2091BF
:10541000B0053091B1058091BC059091BD05253056
:10542000310571F42091FC02821B9109C817D9073C
:1054300051F4222341F088E493E00E94240C03C03D
:105440002091F802F1CF2091F9028091BE05909150
:10545000BF05821B9109C817D90731F4222321F017
:1054600088E493E00E94240C2091FA028091C00508
:105470009091C105821B9109C817D90731F42223E5
:1054800021F088E493E00E94240C2091FB0280919B
:10549000C2059091C305821B9109C817D90731F441
:1054A000222321F088E493E00E94240C8091B80527
:1054B0009091B905C817D90759F08091BA05909114
:1054C000BB05C817D907F9F488E00E947D271BC0E7
:1054D0008BE00E94961A0E94E63A6B017C0180E6FE
:1054E000C80E8AEED81EE11CF11C0E94E63A6C152B
:1054F0007D058E059F0508F70E94D21F8CEB92E078
:105500000E945C22F2CF8091BC059091BD05C81726
:10551000D90759F48091B0059091B105059711F420
:105520008DE001C089E00E947D278091BE059091A9
:10553000BF05C817D90719F48AE00E947D2780911A
:10554000C0059091C105C817D90719F48BE00E94D6
:105550007D278091C2059091C305C817D90749F4EA
:105560008CE0DF91CF91FF90EF90DF90CF900C9483
:105570007D27DF91CF91FF90EF90DF90CF9008953E
:10558000CF92DF92EF92FF92CF930E94E63A6B01A7
:105590007C018091DB059091DC05A091DD05B09147
:1055A000DE05A7019601281B390B4A0B5B0BDA01BC
:1055B000C901843F9140A105B10590F0C092DB057F
:1055C000D092DC05E092DD05F092DE058091E005E9
:1055D000811104C081E08093E00502C01092E005D3
:1055E0008091D7059091D805A091D905B091DA05A1
:1055F000A7019601281B390B4A0B5B0BDA01C90185
:1056000088389341A105B10540F18091D8028111FC
:105610000FC061E471E087E497E00E94303F69E4E5
:1056200071E087E497E00E94363F81E08093D802E2
:10563000C092D705D092D805E092D905F092DA054C
:105640008091DF05811104C081E08093DF0502C0F5
:105650001092DF058FE00E94F01F8091D30590919A
:10566000D405A091D505B091D605A7019601281BB8
:10567000390B4A0B5B0BDA01C90188399A43A10542
:10568000B10508F462C0C092D305D092D405E0926F
:10569000D505F092D6050E947F268091DB0290E02E
:1056A0002091AC053091AD052817390731F10E94E2
:1056B000E0292091AE053091AF054CE3429FC00137
:1056C000439F900D11242091AC053091AD05820FC0
:1056D000931F2091010330910203821793075CF01E
:1056E00020910703309108032817390724F081E03F
:1056F0008093060102C0109206018091AC05809350
:10570000DB028091DA0290E02091AE053091AF0586
:105710002817390731F08091E2029091E3020E944C
:105720000D1E8091AE058093DA028091D90290E03F
:105730002091B0053091B1052817390711F00E946A
:10574000E11C8091B0058093D902809106018823E5
:1057500079F08091DF05813021F48091B0050E94BD
:10576000A2210E94D21F8CEB92E00E945C2206C014
:10577000C4E28FEF0E94C51FC150D9F7CF91FF90AF
:10578000EF90DF90CF900C94EC248F929F92AF9289
:10579000BF92CF92DF92EF92FF920F931F93CF931E
:1057A000DF93CDB7DEB72C970FB6F894DEBF0FBEF0
:1057B000CDBF6EE472E0CE0107960E94054087E4FB
:1057C00097E00E94423C892B89F067E477E0CE01A4
:1057D00001960E947C3FBE016F5F7F4FCE0107960E
:1057E0000E945840CE0101960E94973F68E571E003
:1057F000CE0107960E94A340882359F06DE571E021
:1058000087E497E00E94303F81E08093D2050C94BA
:105810002C378091D205813009F098C061E671E0A3
:10582000CE0107960E94A340882339F082E080933E
:10583000D20564E671E00C94283769E671E0CE0188
:1058400007960E94A340882339F083E08093D20515
:105850006CE671E00C94283761E771E0CE010796A1
:105860000E94A340882339F084E08093D20564E746
:1058700071E00C94283769E771E0CE0107960E9429
:10588000A340882339F085E08093D2056CE771E06E
:105890000C94283761E871E0CE0107960E94A3407E
:1058A000882339F086E08093D20564E871E00C9497
:1058B000283769E871E0CE0107960E94A34088234B
:1058C00039F087E08093D2056CE871E00C942837BA
:1058D00061E971E0CE0107960E94A340882339F068
:1058E00088E08093D20564E971E00C94283769E977
:1058F00071E0CE0107960E94A340882339F086E12B
:105900008093D2056CE971E00C94283761EA71E06C
:10591000CE0107960E94A340882339F08AE0809345
:10592000D20564EA71E00C94283769EA71E0CE018F
:1059300007960E94A340882311F40C942C378BE027
:105940008093D2056CEA71E00C9428378091D205DF
:105950008B3009F068C01092D20561E070E0CE0192
:1059600007960E94C240FC018081992787FD90958F
:10597000C09724E6289F8001299F100D112462E022
:1059800070E0CE0107960E94C240FC0180819927F9
:1059900087FD9095C0974AE0489F9001499F300D40
:1059A0001124020F131F63E070E0CE0107960E94DE
:1059B000C240FC018081992787FD9095C097080F10
:1059C000191F60E070E0CE0107960E94C240FC0102
:1059D0008081813529F4B80188E493E00E94E50BC9
:1059E00060E070E0CE0107960E94C240FC01808119
:1059F000873539F4B8016E587F4F88E493E00E94F0
:105A0000E50B60E070E0CE0107960E94C240FC0109
:105A10008081833521F488E493E00E94210C61EBBE
:105A200071E00C9428378091D205823009F0DEC0F5
:105A30001092D20564E070E0CE0107960E94C24049
:105A4000FC018081992787FD9095C0971AE0189FE7
:105A50007001199FF00C112465E070E0CE010796EB
:105A60000E94C240FC018081992787FD9095C097D4
:105A70008E0D9F1D9093AF058093AE0562E070E0A0
:105A8000CE0107960E94C240FC018081992787FDC4
:105A90009095C097189F7001199FF00C112463E036
:105AA00070E0CE0107960E94C240FC0180819927D8
:105AB00087FD9095C0978E0D9F1D9093AD058093A7
:105AC000AC0560E070E0CE0107960E94C240FC0188
:105AD0008081992787FD9095C097189F7001199F25
